:020000022000DC
:1070000000000420757302005D7302005F730200CC
:1070100061730200637302006573020000000000E8
:107020000000000000000000000000006773020084
:1070300069730200000000006B7302006D730200B0
:107040006F7302006F73020005E30200ADF30200EC
:10705000C5F302006F730200A11903006F730200F1
:10706000CD1B03006F7302006F7302006F73020089
:107070006F7302006F7302006F7302006F73020080
:107080006F730200D1CC02006F7302006F730200B5
:107090006F7302006F730200E5DF03006F7302007D
:1070A0006F7302006F7302006F7302006F73020050
:1070B0006F7302006F730200000000000000000008
:1070C0006F7302006F7302006F7302006F73020030
:1070D0006F7302006F7302006F7302006F73020020
:1070E0006F7302006F7302006D1A0400000000004D
:1070F000000000006F730200000000006F730200C8
:10710000000000000000000000000000000000007F
:10711000000000000000000000000000000000006F
:10712000000000000000000000000000000000005F
:10713000000000000000000000000000000000004F
:10714000000000000000000000000000000000003F
:10715000000000000000000000000000000000002F
:10716000000000000000000000000000000000001F
:10717000000000000000000000000000000000000F
:1071800000000000000000000000000000000000FF
:1071900000000000000000000000000000000000EF
:1071A00000000000000000000000000000000000DF
:1071B00000000000000000000000000000000000CF
:1071C00000000000000000000000000000000000BF
:1071D00000000000000000000000000000000000AF
:1071E000000000000000000000000000000000009F
:1071F000000000000000000000000000000000008F
:10720000354936480A1A02D0072291438D4634493F
:1072100034480A1A06D00722914381F309880222D2
:1072200082F3148830483149314A00F044F831483B
:107230003149324A00F03FF831483249324A00F0D1
:107240003AF832483249334A00F035F83248334987
:10725000334A00F030F833483349344A00F02BF811
:1072600033483449344A00F026F83448344900227F
:1072700000F02CF833483449002200F027F8334856
:107280003349091A082902DB002202604160314AB1
:1072900090471F481F49884205D00268043003B454
:1072A000904703BCF7E700208646EC46002000210B
:1072B000294A9047FEE7884207D0521A05D0037842
:1072C00001300B700131013AF9D17047884202D088
:1072D00002700130FAE770470000042000E003204C
:1072E000000004200000042008CD04001425002024
:1072F00014260020D0730200D0730200A45C0400A6
:1073000008CD040014250020142500202C5E040064
:107310002C5E04002C5E04002C5E04002C5E040035
:107320002C5E04002C5E04002C5E040007CD0400DB
:1073300008CE040014260020142600201426002065
:1073400060670020606700206067002060670020A1
:10735000608700209D7302002D300300FEE7FEE7EA
:10736000FEE7FEE7FEE7FEE7FEE7FEE7FEE7FEE7F5
:1073700000F002B8FFF7FCBF0F484FF00701884349
:1073800085460E4880470E48016841F4700101604F
:10739000BFF34F8FBFF36F8FFFF732BF09480A4922
:1073A0000A4A884207D0521A05D0037801300B7080
:1073B0000131013AF9D1704700000420AD3E0300CD
:1073C00088ED00E0A05D04000025002000250020DD
:1073D00000B585B00190019B002B0AD0074B43F00C
:1073E00001030393019B9B010293039B029898471F
:1073F00000E000BF05B05DF804FB00BF405E040084
:1074000000B583B00190019B002B0AD04FF47A7035
:10741000FFF7DEFF019B013B0193019B002BF5D1A0
:1074200000E000BF03B05DF804FB08B50CF0CEFB34
:1074300000BF08BD00B589B0039002910192019B85
:10744000002B33D00023079303230693029A079B54
:107450001344019A194600200CF042FB0590079A4C
:10746000059B13440793019A059BD31A0193059B2F
:10747000002B13D10F4B1B7883F00103DBB2002BE1
:1074800013D10120FFF7BCFF069B013B0693069B2F
:10749000002B03D1074B00221A7007E0054B012295
:1074A0001A70019B002BD1D100E000BF00BF09B0D2
:1074B0005DF804FB1426002000B585B0039002910E
:1074C000054B00934023054A0299039800F012F8F7
:1074D00000BF05B05DF804FB3574020018260020DB
:1074E00082B0019000BF02B0704782B0019000BF2F
:1074F00002B0704700B5A1B00590049103920293C9
:10750000049802F045FB039B1593029B16930023FE
:10751000179300238DF8603000231993229B1A9350
:1075200000231F930FA91F9B0822049802F00AFC56
:1075300008231F93119B1293BDF84030ADF84C30D7
:10754000BDF84230ADF84E3000238DF851309DF833
:107550003C3003F00303DBB2012B26D10F9BC3F3B6
:1075600095231C939DF83C30C3F3C203DBB28DF826
:107570005030BDF83C30C3F38313DBB21B931B9B2D
:107580009A0009A91F9B049802F0DCFB1B9B9B003F
:107590001F9A13441F9312AA09A915AB009313460F
:1075A0001B9A1C9801F01EF82FE09DF83C3003F068
:1075B0000303DBB2022B28D1BDF83E30C3F389139D
:1075C0009BB21E939DF83C30C3F3C203DBB28DF82F
:1075D00050301E9B082B28BF08231D9307A91F9B13
:1075E0001D9A049802F0AEFB1F9A1D9B13441F9333
:1075F0001E9A1D9BD31A1E9315AB12AA07A81D999C
:1076000001F092F81E9B002BE3D1049802F0CFFA10
:1076100000BF21B05DF804FB00B583B00190019B71
:107620001B781A460C4B9B5C002B05D0019B043346
:10763000184609F047F90BE0019B1B781A46064BE8
:107640009B5C002B04D1019B0C33184608F0B6FA62
:1076500000BF03B05DF804FBD82E002000B587B052
:107660000390029113468DF8073000230593039B86
:107670001B781A46114B9B5C002B09D0039B0433EB
:107680009DF807200299184609F07EF905900FE051
:10769000039B1B781A46094B9B5C002B08D1039B6C
:1076A0000C339DF807200299184608F0FFFA059060
:1076B000059B184607B05DF804FB00BFD82E0020DC
:1076C00082B001900091034B01221A7000BF02B0FA
:1076D000704700BF9826002030B58DB003468DF866
:1076E00007301A4B02AC1D460FCD0FC495E80F00B2
:1076F00084E80F00062302934FF0FF3303934FF00B
:10770000FF3304934FF0FF3305934FF0EB7308936F
:107710009DF80730002B01D00D4A00E0002202AB9B
:1077200019460C4806F080FD0B900B9B0A930A9BB0
:10773000002B04D0084A43210A9801F037FA074A7F
:107740009DF80730137000BF0DB030BDA85E040077
:10775000C176020014250020485E0400992600200E
:1077600000B583B001238DF807309DF80730184627
:10777000FFF7B2FF00BF03B05DF804FB00B589B0AE
:10778000039002910192019B8DF81F30124B002251
:107790001A709DF81F301A4602991048FFF75EFFD5
:1077A0000690069B0593059B002B04D00C4A5321A1
:1077B000059801F0FBF900BF0A4B1B78002B07D09E
:1077C000054B1B78DBB283F00103DBB2002BF3D156
:1077D00000BF09B05DF804FB9826002014250020A6
:1077E000485E04009926002000B585B00390029100
:1077F000054B00934023054A02990398FFF77AFE50
:1078000000BF05B05DF804FB7D770200582600201C
:1078100082B0019000BF02B07047000000B583B095
:1078200001900548FFF7F8FE0020FFF755FF00BF65
:1078300003B05DF804FB00BF1425002082B0019066
:10784000019BDB6801225A7100BF02B07047000043
:1078500000B583B04FF0FF330193FFF7E6FD04213D
:10786000114800F0DBFD0190019B002B03DA0F496A
:10787000412001F01CFB0C48FFF7E0FFFFF770FF11
:1078800004210B4800F0CAFD0190019B002B03DA94
:107890000649482001F00BFB0548FFF7CFFF00BF6A
:1078A00003B05DF804FB00BF6C5D0400F85E0400EB
:1078B0007C5D040000B583B001900091019B1B68C2
:1078C0001B6800990198984700BF03B05DF804FB5E
:1078D00000B583B00190019B1B685B6801989847D5
:1078E00000BF03B05DF804FB00B583B00190019BBD
:1078F0001B689B680198984700BF03B05DF804FBC4
:1079000082B001900B468DF80330019BDB689DF837
:1079100003201A7100BF02B0704782B00190019B32
:10792000DB681B79184602B0704782B00190019B5A
:10793000DB6801225A7100BF02B0704782B001902B
:10794000019BDB685B79184602B0704700B585B0D3
:10795000019000910C4B00221A700C4802F07CF848
:107960000390039B002B01D0039B08E0084802F022
:1079700009FA084A084BD31ADB0802930023184679
:1079800005B05DF804FB00BF042800208C5D0400F6
:107990005C5F04006C5D0400A45C0400024A034BBD
:1079A000D31ADB08184670476C5D0400A45C040021
:1079B00000B587B001900B468DF803309DF8033079
:1079C000002B1FD0FFF7EAFF04900023059313E07C
:1079D000059B9B000E4A13440393039B1B881A4686
:1079E000019B1B689A4204D1019B059A1A600023EF
:1079F00009E0059B01330593059A049B9A42E7D35E
:107A0000052300E00023184607B05DF804FB00BF23
:107A10000025002000B585B001900B468DF803309D
:107A20009DF8032001AB11461846FFF7C1FF03463E
:107A3000002B07D1019BDB00054A13440393039BF2
:107A40001B6800E00023184605B05DF804FB00BF8A
:107A5000A45C040084B001900B468DF80330019BB8
:107A6000DB00174A134402939DF80330013B032BBC
:107A70001CD801A252F823F0897A0200917A020000
:107A8000997A0200A37A020002238DF80F3011E0E8
:107A900004238DF80F300DE0029B1B798DF80F3019
:107AA00008E0029B5B798DF80F3003E000238DF82E
:107AB0000F3000BF9DF80F30184604B0704700BF6C
:107AC000A45C040084B00190009100238DF80F3075
:107AD000019B1B7803F00403DBB2002B24D0019B35
:107AE0001B78C3F30103DBB2012B02D0022B0CD0B5
:107AF00017E0009B1B68019A1288C2F38312D2B26E
:107B000013449A1C009B1A600BE0009B1B68019AAF
:107B10005288C2F3891292B213449A1C009B1A60D5
:107B200000BF01238DF80F309DF80F30184604B0C8
:107B30007047000000B58BB00023ADF826303E48FA
:107B400001F096FA3D4801F093FA3D4B9B6804938F
:107B50003C4B1B680693049A069B134002339B0020
:107B6000374A13440433089304AB19460898FFF7C7
:107B7000A9FF0346002B09D0049A069B1340023349
:107B80009B002F4A134404330893EDE700BF002302
:107B9000079311E0049B5A1C0492069A1340079A1B
:107BA000920001A90A44264902339B000B445B68FA
:107BB0001360079B01330793079B012BEAD99DF8BC
:107BC0000430C3F30103DBB2012B10D0022B1CD114
:107BD000BDF80A30ADF82630BDF80630C3F389137E
:107BE0009BB203339A08049B1344049313E0BDF83B
:107BF0000A30ADF82630BDF80430C3F38313DBB28E
:107C00001A46049B1344049305E00F494FF4C270D5
:107C100001F04DF900BF094801F036FA0590059BC7
:107C2000002B02D0049B064A9360BDF8263018460C
:107C30000BB05DF804FB00BF1C2C0020182C0020AA
:107C400004280020382500206C5F040000B585B0B2
:107C50000021074801F041F90390039B0293029B26
:107C600083F310030193019B184605B05DF804FBF4
:107C7000202C002000B589B003900291019200935E
:107C8000039B1B0C0793FFF7E1FF0690FFF786FEAF
:107C90000246079B934204D3214940F2A91001F008
:107CA00006F9069B1904009B5A1C0A9B1340079A6D
:107CB0000A431C4902339B000B445A60009A0A9BFA
:107CC000134002339B00174A134404330593039B6C
:107CD00003F00703D9B2059A137861F3C503137053
:107CE000019B03F00F03D9B2059A138861F389133E
:107CF0001380029BC3F31501059A136861F39F2358
:107D00001360059A1378012161F301031370059A3A
:107D100013786FF38203137000BF09B05DF804FBA2
:107D20006C5F04000428002000B58DB00390029120
:107D300013468DF80730039B02330A9301238DF815
:107D4000273000238DF81B300DF11B03184601F07E
:107D500061F8404B5A68029B1A603F4B1A683D4BD2
:107D600099683C4B5B68CB1A134401330B9314E0C6
:107D700001213A4801F040F9FFF7DCFE079007992E
:107D8000364801F039F9344B1A68324B9968314B57
:107D90005B68CB1A134401330B930A9A0B9B9A42EC
:107DA000E6D89DF82730002B48D0002305939DF896
:107DB0000730002B17D09DF81430012262F3010325
:107DC0008DF814309DF8143043F004038DF814300E
:107DD000039B03F00F03DAB2BDF8143062F389138A
:107DE000ADF8143016E09DF81430022262F301035E
:107DF0008DF814309DF8143043F004038DF81430DE
:107E0000039BC3F309039AB2BDF8163062F38F13D4
:107E1000ADF816300F4B5A680F4B1B6813400233F6
:107E20009B000C4A134404330893059A089B1A607C
:107E3000084B5A680A9B1344064A53609DF81B304E
:107E4000184600F0FDFF9DF8273018460DB05DF88C
:107E500004FB00BF0428002038250020202C00202F
:107E600000B58BB005900491039202931F4B1B68E1
:107E7000079306AB012219460298FFF755FF034608
:107E8000002B24D0069B023309930023089311E0B2
:107E9000089B9B00039A1A44099B591C0991079956
:107EA0000B401268124902339B000B445A60089B36
:107EB00001330893089A029B9A42E9D3069A079BDA
:107EC00000931346029A04990598FFF7D3FE084BD6
:107ED0001B78002B05D000BF00F096F80346002B5E
:107EE000FAD100BF0BB05DF804FB00BF38250020BD
:107EF0000428002000B583B00190009100230022E7
:107F000000990198FFF7ACFF00BF03B05DF804FBD8
:107F100000B587B0039002910192019B059305AAD9
:107F2000012302990398FFF79BFF00BF07B05DF89C
:107F300004FB00B587B00390029101920093019B6E
:107F40000493009B059304AA022302990398FFF768
:107F500087FF00BF07B05DF804FB00B589B0039050
:107F6000029101920093019B0593009B06930A9B4B
:107F7000079305AA032302990398FFF771FF00BF37
:107F800009B05DF804FB00B589B00390029101923D
:107F90000093019B0493009B05930A9B06930B9B04
:107FA000079304AA042302990398FFF759FF00BF1F
:107FB00009B05DF804FB00B58BB00390029101920B
:107FC0000093019B0593009B06930C9B07930D9BCD
:107FD00008930E9B099305AA052302990398FFF7BE
:107FE0003FFF00BF0BB05DF804FB0000054B9A6833
:107FF000044B5B689A420CBF01230023DBB2184696
:10800000704700BF0428002000B599B0FFF7EEFFCD
:108010000346002B01D00023C0E19B4B0022C3F894
:108020001824BFF34F8F00BF974B9B680493974B67
:108030001B681093049A109B134002339B00924AD2
:108040001344043311930023179300231693002342
:108050000F9304AB19461198FFF734FD0346002B2C
:1080600019D0894BD3F81834002B14D1864B5A6899
:10807000049B9A4205D8844B5B68834A9360002333
:108080008CE1049A109B134002339B007E4A1344F8
:1080900004331193DDE70023159311E0049B5A1C70
:1080A0000492109A1340159A920001A90A44764945
:1080B00002339B000B445B681360159B01331593DF
:1080C000159B012BEAD99DF8043003F00303DBB2C2
:1080D000022B40F09C80BDF80630C3F389139BB29D
:1080E0000D93BDF80630C3F389139BB2502B28BF04
:1080F00050239BB20C930C9BC3F309039AB2BDF8B7
:10810000063062F38F13ADF806300C9B08330B93E7
:108110009DF80430C3F3C203DBB20F930B995C48A4
:1081200001F0A5FC1790179B002B00F0D380179847
:1081300001F02EFD01A9169B0822179801F0E4FD1D
:10814000169B08331693049BDA43109B13400133AC
:108150009B000A930C9A0A9B9A4242D90A9B002BD5
:1081600008D0049A109B134002339B00464A1344E4
:10817000043300E0474B08930A9B002B02D00A9B74
:10818000DBB201E00C9BDBB28DF81F300A9B002BA9
:1081900001D0404B00E0002306930A9B002B06D041
:1081A0000C9BDAB20A9BDBB2D31ADBB200E00023ED
:1081B0008DF817309DF81F20169B0899179801F02D
:1081C000A3FD9DF81F30169A13441693069B002BAF
:1081D00016D09DF81720169B0699179801F094FD6C
:1081E0000EE0049A109B134002339B00264A13446E
:1081F00004330993169B0C9A0999179801F084FD92
:108200000D9B03339A08049B1344049362E09DF88A
:10821000043003F00303DBB2012B5BD1BDF8043063
:10822000C3F38313DBB2062B28BF0623DAB2BDF8F3
:10823000043062F38913ADF80430BDF80430C3F3A1
:108240008313DBB202330E939DF80430C3F3C203F1
:10825000DBB20F930E9B9B0019460D4801F007FC03
:108260001790179B002B35D0179801F091FC01A9AE
:10827000169B0822179801F047FD169B08331693AA
:10828000002315931DE000BF04280020382500209E
:108290008C5D040010280020049B5A1C0492109A44
:1082A000134002339B003F4A1344191D169B0422BE
:1082B000179801F029FD169B04331693159B013383
:1082C0001593BDF80430C3F38313DBB21A46159B34
:1082D0009342E1D3179B002B40D0324BD3F810349C
:1082E0001493304BD3F81834002B1BD0179801F09F
:1082F0005EFC4DE000238DF84F301498FFF71EFB15
:108300000346002B02D001238DF84F309DF84F30EB
:10831000002B03D017991498FFF7CCFA149BDB6855
:108320001B681493149B002BE4D1179801F03FFCB9
:1083300000238DF803300DF10303184600F06AFDA9
:10834000184BD3F81834002B02D1049B154A9360C4
:108350009DF80330184600F073FD19E0114BD3F877
:108360001034129306E01298FFF7BEFA129BDB68F6
:108370001B681293129B002BF5D10B4A0B4BD31A9F
:10838000DB081B0443F0020309491846FFF7B2FD5E
:10839000FFF72CFE034683F00103DBB2184619B049
:1083A0005DF804FB04280020D45C0400A45C0400F5
:1083B000C85F040000B585B00023039323E0164B8B
:1083C000D3F81034029301238DF807300FE00298A0
:1083D000FFF7A3FA03461A46039B934203D10023F7
:1083E0008DF8073006E0029BDB681B680293029B56
:1083F000002BECD19DF80730002B01D0039B07E048
:10840000039B01330393039B092BD8DD4FF0FF330C
:10841000184605B05DF804FB0428002000B585B0BF
:1084200001900B468DF80330FFF7C4FF0390039BC8
:10843000B3F1FF3F01D1039B22E0039BDBB219465E
:108440000198FFF75DFA104BD3F81034002B08D1D8
:108450000D4A019BC2F81034019BDB6800221A60B0
:108460000DE0094BD3F81034DA68019BDB68126821
:108470001A60054BD3F81034DB68019A1A60039B2D
:10848000184605B05DF804FB0428002000B583B051
:108490000C4BD3F8103401930A4B01221A7009E0F7
:1084A0000198FFF742FA0198FFF712FA019BDB6887
:1084B0001B680193019B002BF2D100BF00BF03B0EA
:1084C0005DF804FB0428002082B00190009100BFF9
:1084D00002B0704710B584B003900291039BDB8813
:1084E000002B0AD0039BDB881A461F4B00931346D0
:1084F0001E4A1F49029800F003FF039B1B7A052BBD
:108500002ED0039B5B7A002B12D0039B9B881A46CC
:10851000039B1B7A19461046FFF79CFA03461A463E
:10852000144B53F822301A461349029800F0E8FE23
:10853000039B1B6819460298FFF7C6FF039B1B7A33
:108540001A460E4B53F82240039B9B880021184685
:10855000FFF760FA034622460949029800F0D0FE70
:1085600000BF04B010BD00BFFC5F04000C6004003D
:1085700044600400502500205C6004003C2500207D
:108580006060040000B585B00390029113468DF839
:108590000730039B1B7A052B0FD0039B5B7A002BC4
:1085A00006D00D4B1B681A460C49029800F0A8FE35
:1085B0000B49029800F0A4FE07E09DF80730002B5D
:1085C00003D00749029800F09BFE029800F076FE67
:1085D00000BF05B05DF804FB502500205C6004007E
:1085E0006C60040030B58BB007900691059204933F
:1085F0000E9B1B7B8DF827300E9B00221A730E9961
:108600000498FFF767FF059B062B7FD801A252F85D
:1086100023F000BF318602003B8602004B86020039
:108620005F8602007D860200A5860200D5860200D4
:1086300007990E9800F064FE69E0069B1B681A46D5
:1086400007990E9800F05CFE61E0069B1A68069B95
:1086500004331B6807990E9800F052FE57E0069B02
:108660001A68069B04331968069B08331B6800933D
:108670000B4607990E9800F043FE48E0069B1968E8
:10868000069B04331868069B08331B68069A0C3255
:1086900012680192009303460A4607990E9800F06B
:1086A0002FFE34E0069B1868069B04331C68069B6B
:1086B00008331B68069A0C32126806991031096853
:1086C0000291019200932346024607990E9800F00A
:1086D00017FE1CE0069B1C68069B04331D68069B66
:1086E00008331B68069A0C32126806991031096823
:1086F00006981430006803900291019200932B4673
:10870000224607990E9800F0FBFD00E000BF002212
:108710000E990498FFF736FF0E9B9DF827201A73D9
:1087200000BF0BB030BD00BF00B587B00390029111
:1087300001920093029B082B60D8009B1B7B8DF855
:108740001330009B00221A7300990198FFF7C2FEB4
:108750000023059314E0059A029B9A4209D2039ADA
:10876000059B13441B781A462649009800F0C8FD63
:1087700003E02549009800F0C3FD059B01330593F4
:10878000059B072BE7D92149009800F0B9FD00238C
:10879000059326E0059A029B9A421BD2039A059BF9
:1087A00013441B788DF812309DF812307E2B0AD8B6
:1087B0009DF8123018461CF043FE0346002B02D0F1
:1087C0009DF8123000E02E231A461149009800F05F
:1087D00097FD03E00F49009800F092FD059B0133DF
:1087E0000593059B072BD5D9012200990198FFF726
:1087F000C9FE009B9DF813201A7300E000BF07B06C
:108800005DF804FB70600400786004007C60040084
:10881000806004008460040000B583B00190019B77
:108820001B68184600F0ABF80346002B04D10B4937
:108830004FF4F67000F03BFB019B1B681F2B02D826
:108840004FF0A04306E0019B1B6803F01F02019B51
:108850001A60034B184603B05DF804FB88600400FF
:108860000003005000B585B0019001AB1846FFF73A
:10887000D3FF0390019B012202FA03F319460398E8
:1088800000F069F800BF05B05DF804FB00B585B0E5
:10889000019001AB1846FFF7BFFF0390019B012237
:1088A00002FA03F31946039800F05FF800BF05B021
:1088B0005DF804FB00B585B0019001AB1846FFF7E9
:1088C000ABFF0390039BD3F804350293029BDA437A
:1088D000019B012101FA03F31A40039BC3F8082509
:1088E000019B01229A40029B1A40039BC3F80C256E
:1088F00000BF05B05DF804FB00B583B001900091A6
:10890000009B002B03D10198FFF7C0FF02E0019804
:10891000FFF7A8FF00BF03B05DF804FB00B585B00A
:10892000019001AB1846FFF777FF0390039800F022
:108930000AF80246019B22FA03F303F001031846EA
:1089400005B05DF804FB82B00190019BD3F80435BB
:10895000184602B0704782B001900091019B009AC6
:10896000C3F8082500BF02B0704782B001900091A3
:10897000019B009AC3F80C2500BF02B0704784B079
:108980000190019B5B09029300230393029B002B40
:1089900003D0029B012B04D007E04FF0FF33039379
:1089A00003E04FF6FF73039300BF019B03F01F0327
:1089B0000193039A019B22FA03F303F00103002BB6
:1089C00014BF01230023DBB2184604B07047000037
:1089D00000B585B00190019B032B03D911493A20C2
:1089E00000F065FA104A019B13441B781846FFF704
:1089F00095FF0346002B14BF012300238DF80F3091
:108A00009DF80F30002B14BF01230023DBB283F04D
:108A10000103DBB203F00103DBB2184605B05DF8D9
:108A200004FB00BFB06004000061040000B583B027
:108A30000190019B032B03D90749412000F037FA2D
:108A4000064A019B13441B7800211846FFF754FF88
:108A500000BF03B05DF804FBB060040000610400D7
:108A600000B583B00190019B032B03D90749472030
:108A700000F01DFA064A019B13441B780121184699
:108A8000FFF73AFF00BF03B05DF804FBB0600400DD
:108A90000061040000B583B00023019305E0019854
:108AA000FFF7DEFF019B01330193019B032BF6D9F6
:108AB00000BF00BF03B05DF804FB00B583B0002326
:108AC000019305E00198FFF7B1FF019B013301938A
:108AD000019B032BF6D900BF00BF03B05DF804FB78
:108AE00000B583B00190019B032B03D907495F2098
:108AF00000F0DDF9064A019B13441B781846FFF786
:108B0000D9FE00BF03B05DF804FB00BFB0600400F5
:108B10000061040086B003900291019201238DF858
:108B200017309DF81730204A039B13601E4A029BA2
:108B300053601D4A019B9360039B44F201029342E0
:108B400012D0039B44F20202934220D1019B164AA9
:108B5000D360154BDB681B68134A9361124BDB68CB
:108B60005B68114AD36112E0019B0F4A13610E4BFF
:108B70001B699B680C4A53610B4B1B691B680A4AB3
:108B80009361094B1B695B68074AD36100BF72B6EA
:108B900000BF00BF9DF81730DBB2002BFAD162B6E0
:108BA00000BF00BF06B07047242C002000B583B082
:108BB00002900091019244F2010071466A4600F071
:108BC00003F803B000BD00BF30B58BB0079006912D
:108BD000059272B600BFFFF759FC00BFFFF714FA09
:108BE0000346002BFAD1079B44F2020293422FD096
:108BF000079B44F20202934269D8079B44F20102A8
:108C0000934237D0079B44F2010293425FD8079BFF
:108C1000012B05D0079B41F2010293420CD056E094
:108C2000394A3A4BD31ADB081B0443F00103384995
:108C30001846FFF75FF957E0334A344BD31ADB0885
:108C40001B0443F0010333491846FFF753F94BE087
:108C5000059B09932C4A2D4BD31ADB081B0443F0C8
:108C60000100099B5B681A46099B1B682A49FFF7AC
:108C700060F939E0059B0893234A244BD31ADB089B
:108C80001B0443F00104089B9D68089B9B681846E1
:108C900001F096F803461846089B5B681946089B46
:108CA0001B68069A02920193009103462A461B49CB
:108CB0002046FFF780F9144A144BD31ADB081B0433
:108CC00043F0010316491846FFF714F90CE00E4A69
:108CD0000E4BD31ADB081B0443F00103069A11491B
:108CE0001846FFF715F900BF0F4B1B6803F001038F
:108CF000002B00D000BE059A06990798FFF70AFFDF
:108D000000BF0BB030BD00BFD45C0400A45C040005
:108D100004610400246104004861040064610400EB
:108D20008C610400A0610400F0ED00E082B0EFF37C
:108D300010830093009B019372B600BF019B1846FD
:108D400002B0704762B600BF00BF704700B585B083
:108D50000190FFF7EBFF0390164B9B68002B1BD194
:108D6000144B01229A60144BD3F88020134B13400C
:108D7000104A1360104B114AC3F880200E4BD3F8F1
:108D800084300C4A53600C4B4FF0FF32C3F8842000
:108D9000019B00221A7002E0019B01221A70039BC2
:108DA000002B01D1FFF7CEFF0023184605B05DF878
:108DB00004FB00BF442C002000E100E0FC06FFBDE6
:108DC00000B585B003468DF80730104B9B68002B2B
:108DD00016D09DF80730002B12D1FFF7A7FF0390A4
:108DE0000B4A0A4B1B681360094A084B5B685360C7
:108DF000064B00229A60039B002B01D1FFF7A2FFD4
:108E00000023184605B05DF804FB00BF442C002089
:108E100000E100E000B583B0019000F02BF80346BC
:108E2000012B03D00549432000F041F80198FFF7DA
:108E30008DFF00BF03B05DF804FB00BFB861040004
:108E400000B583B003468DF8073000F013F80346F1
:108E5000012B03D00649512000F029F89DF8073076
:108E60001846FFF7ADFF00BF03B05DF804FB00BF7D
:108E7000B861040084B0EFF305830193019BC3F351
:108E800008030393039B002B0DD1EFF3148300938E
:108E9000009B0293029B03F00103002B0CBF0123F4
:108EA0000023DBB200E00123184604B0704700B590
:108EB00085B003460091ADF80630BDF80630029348
:108EC000009B039302AB1A46002144F20200FFF715
:108ED0007BFE00BF05B05DF804FB10B487B00190C5
:108EE0000091019B009A53E8004F104643E80001AF
:108EF00091F0000FF7D1059404900391059B18465B
:108F000007B05DF8044B704710B487B00190009132
:108F1000019B009A53E8004F44EA020043E8000135
:108F200091F0000FF6D1059404900391059B18462B
:108F300007B05DF8044B704710B487B00190009102
:108F4000019B009A53E8004F44EA020043E8000105
:108F500091F0000FF6D1059404900391049B1846FC
:108F600007B05DF8044B704710B487B001900091D2
:108F7000019B009A53E8004F04EA020043E8000115
:108F800091F0000FF6D1059404900391059B1846CB
:108F900007B05DF8044B704710B487B001900091A2
:108FA000019B009A53E8004F04EA020043E80001E5
:108FB00091F0000FF6D1059404900391049B18469C
:108FC00007B05DF8044B704710B487B00190009172
:108FD000019B009A53E8004F04EB020043E80001B4
:108FE00091F0000FF6D1059404900391059B18466B
:108FF00007B05DF8044B704710B487B00190009142
:10900000019B009A53E8004F04EB020043E8000183
:1090100091F0000FF6D1059404900391049B18463B
:1090200007B05DF8044B704710B487B00190009111
:10903000019B009A53E8004FA4EB020043E80001B3
:1090400091F0000FF6D1059404900391049B18460B
:1090500007B05DF8044B704700B583B00190012163
:109060000198FFF751FF0346184603B05DF804FB73
:1090700000B583B0019001210198FFF75DFF034621
:10908000184603B05DF804FB00B583B001900021E1
:109090000198FFF769FF0346184603B05DF804FB2B
:1090A00000B583B001900B468DF80330019B002B77
:1090B00003D10849E820FFF7FAFE019BDA689DF822
:1090C00003300199098A01FB03F31344184603B0E6
:1090D0005DF804FB1462040000B583B001900091B8
:1090E000019B002B03D10849F520FFF7E0FE009B10
:1090F000019AD2689B1A019A128AB3FBF2F3DBB28F
:10910000184603B05DF804FB1462040000B585B096
:109110000190019B002B01D10E234CE0019B1B68A9
:10912000002B03D12649FF20FFF7C1FE019B5B689E
:10913000002B04D122494FF48070FFF7B8FE019B49
:109140009B68002B04D11E4940F20110FFF7AFFECF
:10915000019BDB68002B04D119494FF48170FFF7A4
:10916000A6FE019B1B8A002B04D1154940F2031077
:10917000FFF79DFE019B9A68019B5B68D31A8DF8EF
:109180000F30019B1B68019A52681A6007E0019B2F
:109190001A681368591C11609DF80F201A709DF809
:1091A0000F305A1E8DF80F20002BF0D1019B1B6849
:1091B00000221A710023184605B05DF804FB00BFB9
:1091C0001462040000B585B00190019B002B04D10E
:1091D0001F494FF49270FFF76AFE002303930023A8
:1091E0008DF80A300DF10A031846FFF713FE019BB4
:1091F0001B681A68019B5B689A421FD9019B1B6818
:109200001A68013A1A601B681B7819460198FFF723
:1092100047FF0390019B9A68019B1B681B68D31A48
:109220008DF80B30019B1B681B799DF80B209A422F
:1092300004D9019B1B689DF80B201A719DF80A3018
:109240001846FFF7FDFD039B184605B05DF804FBCB
:109250001462040010B584B001900091019B002BB2
:1092600004D1154940F24710FFF721FE009B002B67
:1092700004D111494FF4A470FFF719FE009B03932A
:1092800000238DF80B300DF10B031846FFF7C2FDDC
:10929000019B1B681C68621C1A6003990198FFF708
:1092A0001BFF034623709DF80B301846FFF7C8FDDF
:1092B00000BF04B010BD00BF1462040000B583B04D
:1092C0000190019B002B03D10C493120FFF7EFFDEA
:1092D000019B9B68002B0CD0019B5B69019A106974
:1092E000019A1168019A92689847019B00229A603E
:1092F00000E000BF03B05DF804FB00BF686204003B
:109300000EB400B584B00190019B002B03D1184925
:109310004220FFF7CCFD019B5B69002B03D1144970
:109320004320FFF7C4FD019B1B68002B03D11049AC
:109330004420FFF7BCFD019B5B68002B03D10C4967
:109340004520FFF7B4FD059B002B0AD000230393B3
:1093500006AB039303AB1A460599019800F0B8F9E0
:1093600000E000BF04B05DF804EB03B0704700BF3D
:109370006862040000B583B001900B468DF803309D
:109380009DF803300A2B03D10D210198FFF7F2FF5E
:10939000019B1A68019B9B68581C019988601344C3
:1093A0009DF803201A70019B9A68019B5B689A42A2
:1093B00002D30198FFF782FF00BF03B05DF804FB02
:1093C00000B587B0039002910192009300230593AA
:1093D000009B03F00103002B24D00BE0029B013320
:1093E0000293059B013305939DF8133019460398AA
:1093F000FFF7C0FF029B1B788DF813309DF81330E8
:10940000002BEBD106E0019B013B01932021039847
:10941000FFF7B0FF019A059B9A422ED9019B002BC2
:10942000F1D12AE0029B002B0BD002981CF0EDF842
:10943000059006E0019B013B019320210398FFF773
:1094400099FF019A059B9A420FD9019B002BF1D1FC
:109450000BE0029B01330293059B013305939DF8BA
:10946000133019460398FFF785FF029B1B788DF890
:1094700013309DF81330002BEBD100BF07B05DF81F
:1094800004FB000000B589B00390029101920093A3
:10949000029B07930123069307E0079A019BB2FB07
:1094A000F3F30793069B01330693079A019B9A42B5
:1094B000F3D2009A069B9A4201D9009B06930B9B1C
:1094C00003F00103002B22D10A9B002B1FD00B9B22
:1094D00003F00203002B06D0009B002B03D13023A6
:1094E0008DF8173002E020238DF8173008E00A9B32
:1094F000013B0A939DF8173019460398FFF73AFF8E
:109500000A9B002B03D0069A0A9B9A42EFD30123B1
:109510000793009B012B03D9009B013B009309E0BB
:10952000029A079BB2FBF3F30493049A019B9A42BD
:1095300000D205E0079B019A02FB03F30793E8E7DB
:10954000029A079BB2FBF3F30493049B079A02FB76
:1095500003F3029AD31A0293154A049B13441B780F
:1095600019460398FFF706FF079A019BB2FBF3F336
:109570000793079B002BE3D10B9B03F00103002B08
:1095800011D00A9B002B0ED006E00A9B013B0A93E8
:1095900020210398FFF7EEFE0A9B002B03D0069ACA
:1095A0000A9B9A42F1D300BF09B05DF804FB00BFEB
:1095B0001863040000B589B00590049103920293EA
:1095C000049B002BB8BF5B4206930123079307E07F
:1095D000039B069A92FBF3F30693079B01330793D1
:1095E000039B069A9A42F3DA029A079B9A4201D9A0
:1095F000029B07930A9B002B0AD0049B002B04DBE1
:109600000B9B03F00403002B02D00A9B013B0A933F
:109610000B9B03F00203002B02D0029B002B16D001
:109620000B9B03F00103002B11D10A9B002B0ED0E2
:1096300006E00A9B013B0A9320210598FFF79AFE5A
:109640000A9B002B03D0079A0A9B9A42F1D3049BF2
:10965000002B07DA049B5B4204932D210598FFF74A
:1096600089FE08E00B9B03F00403002B03D02B21A1
:109670000598FFF77FFE0B9B03F00203002B19D028
:109680000B9B03F00103002B14D1029B002B11D183
:109690000A9B002B0ED006E00A9B013B0A93302167
:1096A0000598FFF767FE0A9B002B03D0079A0A9BD9
:1096B0009A42F1D304990B9B01930A9B0093029B5E
:1096C000039A0598FFF7DEFE00BF09B05DF804FBC2
:1096D00000B58FB0059004910392059B002B04D137
:1096E000AD4940F25220FFF7E2FB059B5B69002B7E
:1096F00004D1A9494FF41570FFF7D9FB059B1B68EE
:10970000002B04D1A44940F25520FFF7D0FB059B64
:109710005B68002B04D1A04940F25620FFF7C7FB3D
:10972000049B002B00F09381049B1B788DF837304D
:10973000049B013304939DF83730002B00F07E81A9
:109740009DF83730252B40F06D8100230A930123CB
:109750000C93049B1B788DF837309DF83730302BF5
:109760000DD0302B1BDC2B2B11D02D2B17D10A9BAE
:1097700043F001030A93049B0133049312E00A9B14
:1097800043F002030A93049B013304930AE00A9B0B
:1097900043F004030A93049B0133049302E0002383
:1097A0000C9300BF0C9B002BD3D1002309939DF891
:1097B00037302A2B0CD1039B1B68191D039A1160AB
:1097C0001B68099A13440993049B013304931AE01C
:1097D000049B1B788DF837309DF837302F2B12D92A
:1097E0009DF83730392B0ED8049B01330493099A26
:1097F00013469B0013445B001A469DF83730134410
:10980000303B0993D3E700230B93049B1B788DF81F
:1098100037309DF837302E2B1DD1049B0133049334
:10982000049B1B788DF837309DF837302F2B12D9D9
:109830009DF83730392B0ED8049B013304930B9AD3
:1098400013469B0013445B001A469DF837301344BF
:10985000303B0B93E4E7049B1B788DF837309DF881
:1098600037306C2B03D09DF83730682B07D1049B21
:1098700001330493049B1B788DF83730EFE79DF894
:109880003730252B00F0C480252BC0F2C680782B02
:1098900000F3C380582BC0F2C080583B202B00F24D
:1098A000BC8001A252F823F09D9902001B9A02008D
:1098B0001B9A02001B9A02001B9A02001B9A0200CC
:1098C0001B9A02001B9A02001B9A02001B9A0200BC
:1098D0001B9A02002D9902004F9902001B9A020068
:1098E0001B9A02001B9A02001B9A02004F99020069
:1098F0001B9A02001B9A02001B9A02001B9A02008C
:109900001B9A02001B9A0200DD9902001B9A0200BA
:109910001B9A0200C19902001B9A0200739902006F
:109920001B9A02001B9A02009D990200039B1B6870
:10993000191D039A11601B680C930C9B8DF81F3046
:109940009DF81F3019460598FFF714FD66E0039B4C
:109950001B68191D039A11601B680C930A9B0193E5
:10996000099B00930B9B0A220C990598FFF722FE96
:1099700054E0039B1B68191D039A11601B680C932C
:109980000C990A9B0193099B00930B9B0A22059853
:10999000FFF778FD42E000BFBC620400039B1B6838
:1099A000191D039A11601B680C930C990A9B019373
:1099B000099B00930B9B10220598FFF763FD2DE098
:1099C000039B1B68191D039A11601B6808930A9B6F
:1099D000099A08990598FFF7F3FC1FE0039B1B68A1
:1099E000191D039A11601B680C9330210598FFF72D
:1099F000C1FC78210598FFF7BDFC0C990023019369
:109A000008230093082310220598FFF73BFD05E08B
:109A100025210598FFF7AEFC00E000BF049B013351
:109A2000049305E09DF8373019460598FFF7A2FC2E
:109A3000049B1B78002B7FF477AE00E000BF059BF2
:109A40001B7B002B04D00598FFF738FC00E000BF1B
:109A50000FB05DF804FB00BF00B583B00190019822
:109A6000FFF754FB0346184603B05DF804FB00B54E
:109A70008BB001900091019B1B8A043B0793009AD5
:109A8000079B1344DA1C079BB2FBF3F38DF81B30E2
:109A90000198FFF797FB0590059B002B01D1002350
:109AA00038E0059B00221A71059B01225A71079B21
:109AB0009AB2059BDA80059B09939DF81B30013B08
:109AC0000493099B019A1A60002308931DE00198F2
:109AD000FFF778FB0390039B002B0ED0059B5B796F
:109AE0000133DAB2059B5A71099B039A1A60039BF2
:109AF000019A1A60039B099304E0059800F00EF8A0
:109B0000002307E0089B01330893089A049B9A42BC
:109B1000DDD3059B18460BB05DF804FB00B58BB098
:109B20000190019B0793079B5B798DF81B30019B8C
:109B300008939DF81B30013B05930023099305E032
:109B4000089B1B680893099B01330993099A059B9D
:109B50009A42F5D3089B1B680493019B089300234A
:109B600009930BE0089B1B68039308990498FFF77F
:109B700071FB039B0893099B013309939DF81B30EC
:109B8000099A9A42EED300BF00BF0BB05DF804FB08
:109B900000B585B00190019B0393039B0433012121
:109BA0001846FFF729FA00BF05B05DF804FB00B5C1
:109BB00087B00190019B0593059B04330121184652
:109BC000FFF732FA0346039303AB0493049B1B781D
:109BD000002B02D10198FFF7A1FF00BF07B05DF88D
:109BE00004FB000000B591B0039002910192009334
:109BF000039B002B03D14349B620FFF758F9039B81
:109C00000993039B0F93099BDB881A46099B5B7999
:109C100002FB03F3043B0893009A089B9A4203D388
:109C20003849C420FFF743F9099BDB880793009B61
:109C30001A1D079BB2FBF3F30E93009B0433079AA4
:109C4000B3FBF2F2079901FB02F29B1A0D93019B01
:109C50001A68009B1344089A9A4203D2089A009B00
:109C6000D31A01E0019B1B680C93019B0C9A1A60AC
:109C700005E00F9B1B680F930E9B013B0E930E9B01
:109C8000002BF6D100230B93079A0D9BD31A0A934E
:109C90000A9A0C9B934228BF13460A932AE0029A21
:109CA0000B9B134406930F9A0D9B134404330593A7
:109CB0009DF84830002B05D00A9A059906981BF0AC
:109CC00048FC04E00A9A069905981BF042FC002320
:109CD0000D930F9B1B680F930C9A0A9BD31A0C933E
:109CE0000B9A0A9B13440B93079A0C9B934228BF31
:109CF00013460A930C9B002BD1D100BF00BF11B0BB
:109D00005DF804FB2863040000B589B00590049158
:109D100003920293039B079307AA00230093029BDD
:109D200004990598FFF75EFF079B039A9A4203D0B8
:109D30000349F620FFF7BBF800BF09B05DF804FB4C
:109D40002863040000B589B0059004910392029342
:109D5000039B079307AA01230093029B049905988C
:109D6000FFF740FF079B039A9A4204D004494FF43F
:109D70008070FFF79CF800BF09B05DF804FB00BFDE
:109D80002863040082B00190019B9B6800229A60C6
:109D9000019B9B6800221A61019B9B6800225A610B
:109DA000019B9B680022DA60019B9B6800225A603D
:109DB000019B9B6800221A6000BF02B07047000040
:109DC00000B585B00190019800F00EF80390039B58
:109DD000002B01D0039B00E0024B184605B05DF854
:109DE00004FB00BF7C63040086B00190164B059312
:109DF000164B04931FE0049A059BD31ADB10DA0F6D
:109E000013445B10DB00059A13440393039B1B6808
:109E10000293029A019B9A4202D9039B04930AE09F
:109E2000029A019B9A4203D2039B0833059302E0F6
:109E3000039B5B6804E0059A049B9A42DBD30023F2
:109E4000184606B0704700BF7C670400A468040091
:109E500082B00190019B03F00303002B0CBF012390
:109E60000023DBB2184602B07047000000B585B091
:109E70000190002303930EE00B4A039B52F823301A
:109E8000002B05D0084A039B52F8233001989847CD
:109E9000039B01330393039B032BEDD900BF00BF4A
:109EA00005B05DF804FB00BF602C002082B001907B
:109EB0000091019B1B78013B052B61D801A252F850
:109EC00023F000BFDD9E0200E59E02000B9F020012
:109ED0003D9F02005D9F0200799F0200009B0022CF
:109EE0001A704EE0009B01221A70019B1A89009B98
:109EF0009A81019B9A88009BDA81019BDA68009B1A
:109F00009A60009B00221A743BE0009B02221A70A8
:109F1000019B1A89009B9A81019B9A88009BDA8198
:109F2000019BDA68009B9A60019B9B7D062B0CBF0E
:109F300001230023DAB2009B1A7422E0009B032263
:109F40001A70019BDA88009B9A81019B1A89009BF9
:109F5000DA81019BDA68009B9A6012E0009B042280
:109F60001A70019BDA88009B9A81009B0022DA819B
:109F7000009B00229A6004E0009B05221A7000E01A
:109F800000BF00BF02B0704784B001900091019BF8
:109F90000393039A009B9A4206D2039B1B68B3F17A
:109FA000FF3F01D0012300E0002303F00103DBB2F7
:109FB000184604B0704782B00190019B5B88033360
:109FC0009B00019A1344184602B0704700B583B055
:109FD000019000910198FFF7EEFF0246009B93422B
:109FE00001D2022311E0019B9B884FF6FF7293423E
:109FF00008D0019B1B88002B04D0019B9B68B3F108
:10A00000FF3F01D1012300E00023184603B05DF8B3
:10A0100004FB000000B583B00190019B002B13D01E
:10A020000D4BDB681A46019B93420DD30A4B1B690B
:10A030001A46019B934207D80198FFF709FF034690
:10A04000002B01D0012300E0002303F00103DBB269
:10A05000184603B05DF804FB0025002082B0019093
:10A06000019B002B04D0019B1B680B4A934201D03B
:10A0700003230DE0019B04331B68084A934204D07C
:10A08000074A934203D1012302E0002300E00323A7
:10A09000184602B0704700BFDEC0ADDEFE011EF103
:10A0A000FF011EF184B00190019B1B68B3F1FF3FDB
:10A0B00006D0019B1B680E4A934201D0002314E096
:10A0C000012303930CE0039B9B00019A13441B683C
:10A0D000B3F1FF3F01D0002307E0039B013303935B
:10A0E000039BB3F5806FEED30123184604B070478D
:10A0F000DEC0ADDE82B003460A46ADF80630134638
:10A10000ADF80430BDF80620134913469B001344F4
:10A110009B000B4408331A88BDF804301344ADF893
:10A120000430BDF806200C4913469B0013449B00E5
:10A130000B440A331A88BDF804301344ADF80430D8
:10A14000BDF80430B3F5806F94BF01230023DBB268
:10A15000184602B0704700BF102D002084B0019057
:10A16000009148F2096303930023ADF80A3027E019
:10A17000BDF80A20164913469B0013449B000B446C
:10A1800004331B68009A9A4215D9BDF80A20104979
:10A1900013469B0013449B000B4404331B6803F5D8
:10A1A0008053009A9A4206D200230393019BBDF884
:10A1B0000A201A8008E0BDF80A300133ADF80A30F1
:10A1C000BDF80A30012BD3D9039B184604B0704761
:10A1D000102D002000B589B0039002910192039BDD
:10A1E00003F580530693039B08330393029B0222DB
:10A1F0001A80039B079332E006990798FFF7E6FE63
:10A2000003468DF817309DF81730002B0AD1079BB5
:10A210009A68184B1B689A4213D9079B9B68154A8A
:10A2200013600EE0019B002B02D0019B01221A70EB
:10A230009DF81730022B04D1029B4FF480621A80E4
:10A2400014E0029B1A88079B5B8813449BB203337C
:10A250009AB2029B1A800798FFF7ADFE0790069905
:10A260000798FFF791FE0346002BC5D109B05DF8B2
:10A2700004FB00BF702C002082B001900091009B75
:10A280009B7D022B09D9019B1A89009BDB88134413
:10A290009BB203339AB2019B1A81019B5A89009B9E
:10A2A000DB88D31A9BB2033B9AB2019B5A8100BF51
:10A2B00002B0704700B583B0074B1B6819460023F6
:10A2C00000930823054A064803F08EF80346184613
:10A2D00003B05DF804FB00BF382D0020F0680400D7
:10A2E0000025002000B585B003900399002300935A
:10A2F0000823044A044803F077F80346184605B0DB
:10A300005DF804FBF86804000025002000B585B066
:10A3100003460091ADF8063000238DF80F30BDF8EC
:10A3200006300333ADF80A30BDF80A3040F2FE3291
:10A33000934202D948F208634BE00023ADF80C3099
:10A340003BE0BDF80C20254913469B0013449B00BD
:10A350000B441B78002B2BD1BDF80A20BDF80C3024
:10A3600011461846FFF7C6FE0346002B20D00123F6
:10A370008DF80F30009BBDF80C201A80BDF80C2022
:10A38000164913469B0013449B000B440A3319885B
:10A39000BDF80C20BDF80A300B4498B20F491346A3
:10A3A0009B0013449B000B440A3302461A8008E0CA
:10A3B000BDF80C300133ADF80C30BDF80C30012B7A
:10A3C000BFD99DF80F30002B01D0002301E048F2E7
:10A3D0000663184605B05DF804FB00BF102D002091
:10A3E00082B003460A46ADF806301346ADF8043095
:10A3F000BDF804200D4913469B0013449B000B44F9
:10A400000A331A88BDF80630D31A9BB2BDF804206F
:10A41000033B98B2054913469B0013449B000B4431
:10A420000A3302461A8000BF02B07047102D002088
:10A4300008B501210248FEF7DFFD0346184608BDB6
:10A44000702C002000B585B003460091ADF80630B1
:10A45000BDF80620244913469B0013449B000B447F
:10A4600004331B6803F580530293009B1B6803931E
:10A47000039B002B04D00398FFF79DFD039026E07B
:10A48000BDF80620184913469B0013449B000B445B
:10A4900004331B680833039319E002990398FFF70C
:10A4A00095FD0346022B10D0022B10DC002B02D0AE
:10A4B000012B05D00BE0009B039A1A6001230EE0EC
:10A4C0000398FFF778FD039001E0002307E002996D
:10A4D0000398FFF759FD0346002BDED100231846F1
:10A4E00005B05DF804FB00BF102D002000B585B05D
:10A4F00001900091019B5B681846FFF78BFD0346B6
:10A50000002B19D0019B1A89244B1B899A4213D125
:10A51000019B1A68019B5B689B689A420CD1019B66
:10A520005B6819460098FFF719FE0346002B0CBF25
:10A5300001230023DBB22CE0009B00221A8023E0E1
:10A540000023029310E0029B0393039B9A68019BF4
:10A550001B689A4208D1029A019B5A600F4B1A89D4
:10A56000019B1A81012314E0009B1B8802AA11465B
:10A570001846FFF767FF0346002BE4D1009B1B88BA
:10A5800001339AB2009B1A80009B1B88012BD7D9FC
:10A590000023184605B05DF804FB00BF402D0020E5
:10A5A00000B587B00390029101920093324B1B7863
:10A5B000DBB283F00103DBB2002B02D048F201636F
:10A5C00055E0019B002B02D0009B002B49D148F2A3
:10A5D00004634CE0009B9B881946284A0B469B006D
:10A5E0000B449B0013441B78002B33D124E0009BC9
:10A5F0001B680593039B002B06D0059B9A88039B41
:10A600001B889A4200D017E0029B002B06D0059BC6
:10A610001A88029B1B889A4200D00DE0059B9A681D
:10A62000019B1A60009B1A68019B5A60144B1A899F
:10A63000019B1A8100231AE0009B9B88009A114617
:10A640001846FFF7FFFE0346002BD0D1009B0022E7
:10A650001A6000E000BF009B9B8801339AB2009B08
:10A660009A80009B9B88012BB4D948F20963184655
:10A6700007B05DF804FB00BF502C0020102D002017
:10A68000402D002000B587B002910192009303464F
:10A69000ADF80E30BDF80E20324913469B0013442E
:10A6A0009B000B4404331B6808330593BDF80E2050
:10A6B0002C4913469B0013449B000B4404331B6836
:10A6C00003F58053049342E004990598FFF77EFC5C
:10A6D0000346022B25D0022B38DC002B16D0012B91
:10A6E00034D1019B1B8801339AB2019B1A80009BD5
:10A6F0001A88059B5B8813449BB203339AB2009B74
:10A700001A800598FFF757FC059020E0029B1B88F4
:10A7100001339AB2029B1A800598FFF74CFC059012
:10A7200015E0019B1B8801339AB2019B1A80009BA4
:10A730001A880499059BCB1A9B109BB213449AB2BA
:10A74000009B1A80089B01221A7007E000BF049941
:10A750000598FFF719FC0346002BB5D107B05DF84B
:10A7600004FB00BF102D002000B585B00190084B00
:10A770000199184602F09AFB03901C2200210398CD
:10A780001AF010FF039B184605B05DF804FB00BFEC
:10A79000002D002000B583B00190044B01991846AC
:10A7A00002F09DFB00BF03B05DF804FB002D00200C
:10A7B00000B583B00190054B0199184602F0A3FB48
:10A7C0000346184603B05DF804FB00BF002D0020CF
:10A7D00000B583B00190044B0199184602F0ACFB20
:10A7E00000BF03B05DF804FB002D002008B50A4B44
:10A7F0001B68002B04D109494FF42470FEF757FB66
:10A8000001210548FEF710FC0346002B14BF01236D
:10A810000023DBB2184608BD582C0020A4680400B1
:10A8200000B587B0002305930023ADF81230032351
:10A83000ADF8103000238DF80F300023ADF80C3048
:10A84000F7E0BDF80C301A03824BDB681344029327
:10A850000298FFF703FC03468DF807309DF8073098
:10A86000032B08D0032B00F3DE80002B65D0012BD7
:10A8700000F09880D7E00298FFF714FC0346002B05
:10A880003BD0754B1B68002B29D0BDF812207349B3
:10A8900013469B0013449B000B4402221A70BDF820
:10A8A00012206E4913469B0013449B000B44043353
:10A8B000029A1A60BDF81220684913469B0013449F
:10A8C0009B000B44083302221A80654ABDF81230FF
:10A8D0005380BDF812300133ADF8123008E05E4A03
:10A8E000029B13605C4B02229A8001238DF80F308B
:10A8F000059B43F00103059396E0BDF81030013B42
:10A90000ADF81030BDF81220544913469B00134493
:10A910009B000B440433029A1A60BDF812204F4981
:10A9200013469B0013449B000B4403221A70BDF88E
:10A9300012300133ADF8123076E0BDF812204749ED
:10A9400013469B0013449B000B4400221A70BDF871
:10A950001220424913469B0013449B000B440433CE
:10A96000029A1A60BDF8122013469B0013449B0004
:10A9700008333A4A9918BDF8122013469B00134435
:10A980009B001033354A13441A460298FFF722FC05
:10A99000059B43F002030593BDF812300133ADF877
:10A9A000123041E09DF80F30002B29D0BDF8122065
:10A9B0002A4913469B0013449B000B4402221A7041
:10A9C000BDF81220244B1968244813469B001344F9
:10A9D0009B00034404331960BDF812201F4913463D
:10A9E0009B0013449B000B44083302221A801C4A2C
:10A9F000BDF812305380BDF812300133ADF812307B
:10AA0000154A029B1360002216490298FFF7E2FBE9
:10AA1000114B9B88022B01D1042300E00823059AE7
:10AA20001343059300E000BFBDF80C300133ADF8CF
:10AA30000C30BDF80C30022B7FF603AFBDF81030A0
:10AA4000012B01D800230593059BDBB2184607B004
:10AA50005DF804FB00250020382D0020102D00207B
:10AA6000402D00203C2D002000B587B003900291BE
:10AA7000039B02229A750299039B1A1D00230093DF
:10AA80000423074802F0B0FC0590059B002B01D180
:10AA9000002301E048F20D63184607B05DF804FB9F
:10AAA0000025002000B587B003900291039B1B692D
:10AAB000002B01D0032200E00122039B9A75029B28
:10AAC00008331946039B03F10C020023009304236F
:10AAD000074802F089FC0590059B002B01D100235B
:10AAE00001E048F20D63184607B05DF804FB00BFB3
:10AAF0000025002000B587B003900291039B1B78CE
:10AB0000032B01D1052200E00622039B9A75029BCC
:10AB100004331946039B03F1080200230093042326
:10AB2000074802F061FC0590059B002B01D1002332
:10AB300001E048F20D63184607B05DF804FB00BF62
:10AB40000025002000B587B003900B46ADF80A3011
:10AB500003990023009304230D4A0E4802F044FC9D
:10AB60000590059B002B02D048F20D630BE0BDF869
:10AB70000A20094913469B0013449B000B441033E1
:10AB800001221A700023184607B05DF804FB00BFCD
:10AB90000069040000250020102D002000B589B0B8
:10ABA000019002AB00221A605A609A60019BDB6838
:10ABB00002930DF1160202AB11461846FFF796FC00
:10ABC0000346002B12D0039B0693069B9A88019B99
:10ABD000DA80069B1A88019B1A81039BBDF8162018
:10ABE00011461846FFF7AEFF079002E048F20963EE
:10ABF0000793079B184609B05DF804FB00B587B0C2
:10AC00000190019B981D02AA0D4B0021FFF7C8FC83
:10AC10000590059B002B08D1039B094A9288114699
:10AC20001846FFF78FFF059004E008220021044832
:10AC30001AF0B8FC059B184607B05DF804FB00BF8E
:10AC4000502D002000B587B003900291039B012294
:10AC50009A75029B0C331846039B1A69039BDB8889
:10AC60009B00002100910146074802F0BDFB0590C2
:10AC7000059B002B01D1002301E048F20D6318462B
:10AC800007B05DF804FB00BF0025002082B0184B20
:10AC90001B8901339AB2164B1A81154B00225A8038
:10ACA000134B00221A730023ADF8063018E0BDF8EC
:10ACB0000620104913469B0013449B000B441A784E
:10ACC000BDF80630002A0CBF01220022D1B2084A8A
:10ACD00013440A469A72BDF806300133ADF80630C7
:10ACE000BDF80630012BE2D900BF00BF02B07047AB
:10ACF000402D0020102D002084B0019000238DF8FD
:10AD00000F300023ADF80C3031E0BDF80C301C4A98
:10AD100013449B7A002B25D0BDF80C30184A1344FD
:10AD200000229A72BDF80C20164913469B0013446A
:10AD30009B000B440C331B68002B13D1BDF80C2077
:10AD4000104913469B0013449B000B4410331B789F
:10AD5000002B07D0019BBDF80C201A8001238DF831
:10AD60000F3008E0BDF80C300133ADF80C30BDF801
:10AD70000C30012BC9D99DF80F30184604B070472C
:10AD8000402D0020102D002008B5084B05221A7018
:10AD9000074B02229A80064B1B68194600230122AA
:10ADA000044802F003FC0346184608BD402D00206D
:10ADB000382D00200025002000B583B0164B5B889D
:10ADC000ADF80230BDF80220144913469B0013442D
:10ADD0009B000B440C331B68002B14D10E4B042238
:10ADE0001A70BDF802200D4913469B0013449B00C6
:10ADF0000B4404331B68194600230122084802F063
:10AE0000D5FB019002E0FFF7BFFF0190019B1846C0
:10AE100003B05DF804FB00BF402D0020102D002082
:10AE20000025002000B587B0104B5B680593104BE0
:10AE30001A680F4B9B889B0013440493059B5B8807
:10AE40000333ADF80E30094B03221A700499074BF7
:10AE50005A68BDF80E309B0000200090054802F0B3
:10AE6000C3FA0346184607B05DF804FB402D0020E6
:10AE7000382D00200025002000B583B00A4B5B88E8
:10AE80000A491846FFF7DEFA0346002B03D0FFF706
:10AE9000C9FF019002E0FFF78FFF0190019B184668
:10AEA00003B05DF804FB00BF402D0020442D0020BE
:10AEB00008B50A4B06221A70084B5B881946084AE7
:10AEC0000B469B000B449B00134404331B6818463D
:10AED000FFF708FA0346184608BD00BF402D0020C2
:10AEE000102D002008B5054B07221A70034B0022D5
:10AEF0005A60FFF7DFF90346184608BD402D0020D1
:10AF000008B50D48FFF7F8FE034683F00103DBB2F6
:10AF1000002B0BD0094B00221A70084B00225A80DC
:10AF2000064B00225A6041F61D5302E0FFF7A4FFD2
:10AF30000346184608BD00BF422D0020402D0020CA
:10AF400082B0094B5B680193019B5B880333ADF8CA
:10AF50000230064B9A88BDF8023013449AB2034B74
:10AF60009A8000BF02B07047402D0020382D00208D
:10AF700082B01E4B1B6801931D4B5B8819461D4A0E
:10AF80000B469B000B449B00134404331B68174A79
:10AF90001360174B5B881946164A0B469B000B44FF
:10AFA0009B0013440433019A1A60114B5B881946C5
:10AFB0000E4B98880F4A0B469B000B449B00134492
:10AFC000083302461A80094B02229A80084B5B889C
:10AFD0001946084A0B469B000B449B001344103350
:10AFE00000221A7000BF02B0704700BF382D002049
:10AFF000402D0020102D002008B51A4B1B78072B80
:10B000002CD801A252F823F029B002005DB0020052
:10B010005DB0020035B0020041B002004DB0020048
:10B020004DB0020055B00200FFF730FE0D4B01227B
:10B030001A7014E0FFF784FF0A4B02221A700EE028
:10B04000FFF796FF074B06221A7008E0054B072210
:10B050001A7004E0034B01221A7000E000BF00BF29
:10B0600008BD00BF402D002000B587B001900091C1
:10B0700048F20E630593019B002B05D0634B002221
:10B080005A604FF40643BCE0009B1B79032B00F28F
:10B09000AB8001A252F823F0A9B00200B7B00200C1
:10B0A00045B1020065B10200009B01221A71FFF751
:10B0B00001F905909BE000238DF813300023ADF8D3
:10B0C00010302BE0BDF81020514913469B0013446B
:10B0D0009B000B441B78022B1BD1BDF810204C4960
:10B0E00013469B0013449B000B4400221A7001235B
:10B0F0008DF81330BDF81020454913469B001344CA
:10B100009B000B4404331B681846FFF7EBF80590CF
:10B1100008E0BDF810300133ADF81030BDF8103044
:10B12000012BCFD99DF8133083F00103DBB2002B44
:10B130005CD0364B01221A70344B00225A6041F623
:10B140001D535EE0009B00221A71324B02229A804E
:10B15000304B1B681946002301222F4802F026FAC3
:10B16000059044E0009B00221A712A4B1B68184688
:10B17000FFF7B8F80590294B5B88ADF80E30254BEA
:10B180001B680293BDF80E20214913469B0013440F
:10B190009B000B4404331B681E4A1360BDF80E204D
:10B1A0001B4913469B0013449B000B440433029A33
:10B1B0001A60BDF80E20174B9888154913469B005E
:10B1C00013449B000B44083302461A80114B0222A1
:10B1D0009A80BDF80E200E4913469B0013449B0035
:10B1E0000B4400221A7002E000BF00E000BF059B84
:10B1F000002B05D0054B00225A6048F20D6300E099
:10B200000023184607B05DF804FB00BF502C002057
:10B21000102D0020382D002000250020402D00207A
:10B2200000B587B001900091009B9B8A1A46134697
:10B230009B0013449B003B4A13440493019B002B47
:10B2400006D000990498FFF717F84FF4064364E01E
:10B25000049B5A68049B1B899B0013440393009B27
:10B260009B7D062B4DD801A252F823F0B1B202000B
:10B27000D5B20200BDB20200C9B2020089B202001A
:10B28000E1B20200FBB20200274B00225A60009B91
:10B290009B69254A136025492348FFF727F9034690
:10B2A00083F00103DBB2002B02D048F2096334E0E3
:10B2B00003990098FFF7D8FB059026E003990098C2
:10B2C000FFF7F0FB059020E003990098FFF7BAFC28
:10B2D00005901AE003990098FFF70CFC059014E024
:10B2E000009B06229A75104B5B68104A1288114623
:10B2F0001846FFF727FC059007E041F61D5305931C
:10B3000003E048F20E63059300BF059B002B03D0BA
:10B3100000990498FEF7B0FF059B184607B05DF84A
:10B3200004FB00BF102D0020582D0020642D0020AC
:10B3300000B585B001900091019B002B02D04FF425
:10B34000064329E0009B1B79022B1BD0022B1DDC3E
:10B35000002B02D0012B08D018E0009B02221A71AA
:10B360000098FFF71BFC039015E00098FFF746FCE0
:10B370000390039B48F2096293420BD141F61D539F
:10B38000039307E041F61D53039304E048F20E6374
:10B39000039300E000BF039B184605B05DF804FB73
:10B3A00000B585B00190019B002B02D04FF40643FD
:10B3B0003DE0214B1B7B002B03D01F4B00221A7357
:10B3C00001E0FFF719FE1C4B1B78013B062B29D827
:10B3D00001A252F823F000BFF5B30200FDB3020052
:10B3E00005B402000DB4020025B4020015B4020039
:10B3F0001DB40200FFF784FD039017E0FFF73CFD4A
:10B40000039013E0FFF70EFD03900FE0FFF7D4FC6D
:10B4100003900BE0FFF74CFD039007E0FFF762FDA0
:10B42000039003E048F20E63039300BF039B1846AA
:10B4300005B05DF804FB00BF402D002000B589B0C9
:10B440000190404B1B68002B05D13F48FFF7B0F936
:10B4500003463C4A13603B4B1B68002B04D13B491D
:10B4600040F29E50FDF723FD364B1B681B78013BD5
:10B47000052B2CD801A252F823F000BF95B402008E
:10B48000A5B40200A5B40200B5B40200B5B4020030
:10B49000C5B402002B4B1B6819460198FFF7E4FD69
:10B4A000019018E0274B1B6819460198FFF7B8FE7A
:10B4B000019010E0234B1B6819460198FFF738FFF5
:10B4C000019008E00198FFF76BFF019003E048F25C
:10B4D0000E63019300BF019B002B2BD003AB002216
:10B4E0001A605A609A60DA601A61019B41F61D5237
:10B4F000934201D0019B00E000230493114B1B6891
:10B5000003AA11461846FEF7D1FC03AB1846FEF716
:10B51000ADFC0C4B00221A60002301930A48FFF790
:10B5200057F9FFF763F9034683F00103DBB2002B01
:10B5300002D186E700BF00E000BF00BF09B05DF8A0
:10B5400004FB00BF682D00206C2D0020A4680400BF
:10B5500008B501210548FDF737FD0346002B02D150
:10B560000020FFF76BFF00BF08BD00BF582C002074
:10B5700000B583B00190019B5B681846FFF75EFF42
:10B5800000BF03B05DF804FB00B58BB003900291DF
:10B5900001928DF803300023ADF824300023ADF87C
:10B5A0002630534B1B78DBB283F00103DBB2002B58
:10B5B00002D048F2016397E0029B002B02D148F2CF
:10B5C000046391E0029B1B884FF6FF72934203D005
:10B5D000029B5B88002B02D148F2036384E0029B4C
:10B5E0005B681846FEF734FC034683F00103DBB2C8
:10B5F000002B02D048F2026376E0019B002B11D1B0
:10B60000029B9B68ADF826300DF11A02BDF826307A
:10B6100011461846FEF77AFE0890089B002B09D0C9
:10B62000089B61E0019B1B88ADF81A30019B5B8889
:10B63000ADF8263005AB1846FFF796F80790079B44
:10B64000002B0AD1BDF81A20BDF826301146184645
:10B65000FEF7C6FE48F2076346E0079B9DF803200D
:10B660001A70079B00229A75BDF81A20079B9A82D0
:10B67000029B5A68079B1A61FEF7DAFE0246079B97
:10B68000DA60029B1A88079B1A81029B5A88079BE3
:10B690009A80079BBDF82620DA809DF80330032BA3
:10B6A00006D1079B04229A75039B1A68079B9A612F
:10B6B000079BBDF824205A8105AB1846FFF76AF8AE
:10B6C000039B002B0DD0039B00225A60079BDA6876
:10B6D000039B1A60039B00229A72064B1A89039BF4
:10B6E0001A81FFF735FF002318460BB05DF804FB05
:10B6F000502C0020402D002000B585B001900C4B4F
:10B700001B68042B03D148F20B6303930BE0084B37
:10B710001B680849019A41F8232001210448FDF7DC
:10B720006BFC00230393039B184605B05DF804FBF4
:10B730005C2C0020602C002084B040F6F8731B685D
:10B74000B3F1FF3F02D10F4B1B6802E040F6F873E4
:10B750001B6803934FF080531B6902934FF0805393
:10B760005B690193039BB3F1FF3F04D1019B029AF4
:10B7700002FB03F300E0039B0093009B184604B018
:10B78000704700BF1410001000B583B04FF4405351
:10B790000193FFF7D1FF0346054A1361044B1A6971
:10B7A000019BD31A024AD36000BF03B05DF804FBCB
:10B7B0000025002008B5FFF7E7FF002203490448F1
:10B7C00001F0CAFD0346184608BD00BFC46C040062
:10B7D0000025002008B504481C238C22034901F0F1
:10B7E0001EFB00BF08BD00BF002D0020742C0020F0
:10B7F00000B58BB002AB00221A605A609A60DA6022
:10B800001A61424B1B78DBB2002B05D002AB184605
:10B81000FEF72CFB002375E03D48FDF71DFC0346B9
:10B82000002B01D000236DE0FFF7C4FF0990099BB6
:10B83000002B01D0099B65E0FFF7CCFFFEF7F0FF7E
:10B8400003468DF823309DF82330062B08D0062BB5
:10B8500012DC002B01D0022B0ED148F20A6351E01A
:10B860002A4B01221A70294B00225A6002AB18465B
:10B87000FEF7FCFA002345E000BF01AB1846FEF7D7
:10B8800073FF0790079B002B02D148F2076339E052
:10B89000079B01221A709DF82330013B0A2B29D8FF
:10B8A00001A252F823F000BFD5B80200F5B802009B
:10B8B000D5B80200F5B80200EDB80200F5B80200F4
:10B8C000EDB80200F5B80200DDB80200E5B80200EC
:10B8D000DDB80200079B00221A710CE0079B0322CF
:10B8E0001A7108E0079B02221A7104E0079B0122EB
:10B8F0001A7100E000BF01AB1846FEF74BFFFFF7DF
:10B9000027FE002318460BB05DF804FB502C0020E6
:10B91000542C002000B585B001900091019B002BB4
:10B9200002D0009B002B02D148F204632AE00DF103
:10B930000A0319460198FEF7D9FD0346002B1FD0D4
:10B94000019B5B680393BDF80A301A4613469B00BF
:10B9500013449B0008330D4A134404330121184655
:10B96000FDF74AFB009B039A1A60019B5B6803F199
:10B970000C02009B5A60019B01229A72002301E095
:10B9800048F20963184605B05DF804FB102D00204D
:10B9900000B585B00190019B002B02D148F20463F1
:10B9A0003BE00DF10A0319460198FEF79FFD03469F
:10B9B000002B2ED0BDF80A3019461A4A0B469B00C0
:10B9C0000B449B0013440C331B68002B1DD0019BC0
:10B9D0009B7A002B19D0BDF80A301A46114913463C
:10B9E0009B0013449B000B440C331B68591E0D48ED
:10B9F00013469B0013449B0003440C331960019BC6
:10BA000000229A720023039306E048F20563039331
:10BA100002E048F209630393039B184605B05DF802
:10BA200004FB00BF102D002000B583B001900091F1
:10BA30000223002200990198FFF7A6FD034618464D
:10BA400003B05DF804FB00B583B001900091019B49
:10BA5000002B02D148F2046306E003230022009980
:10BA60000198FFF791FD0346184603B05DF804FB0B
:10BA700000B585B00346ADF806301A4B1B78DBB233
:10BA800083F00103DBB2002B02D048F2016324E013
:10BA9000BDF806304FF6FF72934202D148F20363BD
:10BAA0001BE002AB1846FEF75FFE0390039B002BE2
:10BAB00002D148F2076310E0039B05221A70039B32
:10BAC00001221A71039BBDF80620DA8002AB1846EA
:10BAD000FEF760FEFFF73CFD0023184605B05DF859
:10BAE00004FB00BF502C002000B583B0154B1B7821
:10BAF000DBB283F00103DBB2002B02D048F201631A
:10BB00001BE06B461846FEF72FFE0190019B002BB1
:10BB100002D148F2076310E0019B06221A706B46BF
:10BB20001846FEF737FE084B1B78002B02D0064B59
:10BB300001221A73FFF70CFD0023184603B05DF8CD
:10BB400004FB00BF502C0020402D002000B585B024
:10BB5000029201930346ADF80E300B46ADF80C305F
:10BB600003A90DF10E00019B029AFEF719FD034691
:10BB7000184605B05DF804FB00B585B00346029198
:10BB80000192ADF80E300DF10E01019B029A0020DA
:10BB9000FEF706FD0346184605B05DF804FB00B548
:10BBA00085B0034602910192ADF80E300DF10E0002
:10BBB000019B029A0021FEF7F3FC0346184605B0EC
:10BBC0005DF804FB82B001900091019B002B02D034
:10BBD000009B002B02D148F2046304E0019B1A6829
:10BBE000009B1A600023184602B0704710B586B05B
:10BBF00003904FF48063ADF814300023ADF8123099
:10BC00004F4B1B78DBB283F00103DBB2002B02D079
:10BC100048F2016391E0039B002B02D148F20463D8
:10BC20008BE012220021039819F0BCFC039B032235
:10BC30001A800023ADF816307AE0BDF8162041498D
:10BC400013469B0013449B000B4408331988BDF82E
:10BC500016203C4813469B0013449B0003440A33C0
:10BC60001B880B44ADF81030BDF81620354913463B
:10BC70009B0013449B000B4404331B681846FEF7DB
:10BC8000EDF90346032B05D1039B1B88013B9AB2B8
:10BC9000039B1A80BDF816202A4913469B001344C3
:10BCA0009B000B440C331968039B5A888BB21344D6
:10BCB0009AB2039B5A80039B1989BDF8162021482C
:10BCC00013469B0013449B0003440A331B880B4418
:10BCD0009AB2039B1A81039B5A89BDF81030134412
:10BCE0009AB2039B5A81BDF81420BDF81030D31AC4
:10BCF000ADF81230039B9B89BDF812209A4203D9FC
:10BD0000039BBDF812209A81039B191D039B9A1D6A
:10BD1000039B03F10E04039B1033BDF81600009340
:10BD20002346FEF7AFFCBDF816300133ADF81630F0
:10BD3000BDF81630012B80D90023184606B010BD7F
:10BD4000502C0020102D002000B583B001900091F0
:10BD5000019B002B03D110495020FDF7A8F8009B50
:10BD6000002B03D10C495120FDF7A1F8019B009A4B
:10BD70001A60019B1B681A68019B5A60019B5A68F4
:10BD8000019B1B685B689A4202D1019B00225A60AA
:10BD900000BF03B05DF804FB0469040000B583B084
:10BDA0000190019B002B03D114496320FDF77FF81C
:10BDB000019B1B68002B03D110496420FDF777F825
:10BDC000019B5B68002B14D0019B5B681A46019BAA
:10BDD0001B689B6813441A46019B5A60019B5A6872
:10BDE000019B1B685B689A4204D1019B00225A6048
:10BDF00000E000BF03B05DF804FB00BF046904006D
:10BE00002DE9F04383B0144800F047FF03460022B9
:10BE10001C461546114BD3E9002314EB020845EBF1
:10BE20000309CDE900890E4BD3E90023DDE90001C8
:10BE3000904271EB030307D2DDE9002312F1807613
:10BE400043F10007CDE90067DDE9002310461946FC
:10BE500003B0BDE8F08300BF74250020782D0020DA
:10BE6000802D002088B001900091019B0793009BDA
:10BE70000693079BD3E90223CDE90423069BD3E96C
:10BE80000223CDE90223DDE90423DDE9020190422A
:10BE900071EB03032CBF01230023DBB2184608B06B
:10BEA00070470000F0B585B00190019B5B69002BE5
:10BEB00003D12B49A220FCF7FAFF00238DF80F30A5
:10BEC000284B1B78002B45D0019B002B42D0019BB7
:10BED0001B7FDBB2002B3DD0FFF792FF019BD3E924
:10BEE0000223904271EB03032CD3019B1B69002BAF
:10BEF00002D1019B00221A77019B5B69019A92692A
:10BF000010469847019B1B69002B23D0019B1B7F88
:10BF1000DBB2002B1ED0019BD3E9022301990969F2
:10BF200000200C460546161943EB0507019BC3E9A3
:10BF30000267019B19460C4801F0E8FE01238DF8C9
:10BF40000F3007E0019B1946074801F0DFFE01238F
:10BF50008DF80F309DF80F30184605B0F0BD00BFCA
:10BF60006C690400742D0020C4690400F0B589B028
:10BF7000019000910D230793009B00221A70019BF2
:10BF8000D3E90245FFF73CFF02460B46A61A65EBD4
:10BF90000307CDE90467DDE90423012A73F10003F7
:10BFA0001BDB049BB3F5350F05D300F0A9FA02465D
:10BFB000154B134403E0019BD3E90223134603937B
:10BFC0004FF49603039A0021104800F059FD0790A2
:10BFD000079B002B05D1012313E000210B4800F043
:10BFE00027FE079B0D2B07D10198FFF75BFF034648
:10BFF0001A46009B1A7003E00549F520FCF757FF2D
:10C000000023184609B0F0BDFFFFB40074250020DE
:10C010006C69040000B583B0044801F0B1FE0190E2
:10C02000019B184603B05DF804FB00BFC46904001F
:10C0300000B583B0044801F0C5FE0190019B18468D
:10C0400003B05DF804FB00BFC469040000B583B011
:10C05000FFF7E0FF0190019B002B02D0019B002223
:10C060001A77019B002BF3D100BF00BF03B05DF82E
:10C0700004FB0000054BD3E9002312F1807043F16B
:10C080000001024BC3E9000100BF7047782D00207A
:10C0900010B582B00190124B1B68002B1DD0019887
:10C0A00000F0FBFD04460021019800F0E7FD034687
:10C0B0001946204600F018FA0346B3F5960F04D34C
:10C0C00008494FF49570FCF7F2FE054B1B681846C3
:10C0D000FFF7E8FE024B00221A6000BF02B010BD5D
:10C0E000702D00206C69040000B583B00190FFF74B
:10C0F00087FE02460B460349C1E9002300BF03B097
:10C100005DF804FB802D002000B585B00190FFF79D
:10C110008FFF039000238DF80B30039B002B48D03A
:10C120002B4B1B68002B03D101238DF80B3019E03A
:10C13000039BD3E90201264B1B68D3E902239042FB
:10C1400071EB03030ED201238DF80B30204B1B68DB
:10C150001B7FDBB2002B05D01D4B1B6819461D4809
:10C1600001F0D4FD9DF80B30002B2AD0FFF752FFD1
:10C1700003900DF10A0319460398FFF7F7FE0346F3
:10C18000002B12D0124B1B68002B02D1019800F03B
:10C1900083FB0F4A039B13609DF80A3083F0010371
:10C1A000DBB2002BB3D000BF0EE0094B00221A60B7
:10C1B000ADE7074B1B68002B05D1019800F082FB0F
:10C1C00001E000BF00E000BF00BF05B05DF804FB68
:10C1D000702D0020C469040000B587B001902C4A7E
:10C1E00003AB1946104600F08EFE059048E0059B13
:10C1F0001B78022B2ED0022B32DC002B02D0012B1D
:10C2000014D02DE0059B5B681B7FDBB283F001033C
:10C21000DBB2002B26D0059B5B6801221A77059BB9
:10C220005B6819461B4801F071FD1BE0059B5A68CD
:10C23000194B1B689A4203D1174B00221A6012E077
:10C24000059B5B681946134801F0D0FD03468DF845
:10C25000133008E0FFF7FAFE104B01221A7002E0DB
:10C2600000BF00E000BF0A4A03AB1946104600F0C9
:10C2700063FE074A03AB1946104600F044FE0590E2
:10C28000059B002BB3D100BF00BF07B05DF804FBD6
:10C29000E02D0020C4690400702D0020742D0020C2
:10C2A00000B583B00190019800F0B5FC0346002B67
:10C2B00001D0FFF7DFFE0021019800F0CAFC034621
:10C2C000002B02D00198FFF7E3FE0121019800F056
:10C2D000C0FC0346002B02D00198FFF705FF019830
:10C2E000FFF77AFF0198FFF70FFF00BF03B05DF87B
:10C2F00004FB000008B5024800F0DCFC00BF08BDEC
:10C300007425002000B585B0034600918DF80730F4
:10C31000114A02AB1946104600F0C8FD0390039B7A
:10C32000002B13D0039B9DF807201A70039B009AE3
:10C330005A60094A02AB1946104600F0D0FD034688
:10C34000002B01D0FFF7D6FF002300E0042318469E
:10C3500005B05DF804FB00BFE02D002000B583B000
:10C36000164B1B680093164808235822154900F005
:10C3700056FD0190019B002B01D0019B19E06B46FB
:10C38000114A1946114800F009FA0190019B002B4F
:10C3900001D0019B0DE001210C4800F02BFC012392
:10C3A0000B4A0121094800F0A3FA0A4B01221A7036
:10C3B000019B184603B05DF804FB00BFC069040090
:10C3C000E02D0020882D0020A1C20200742500204D
:10C3D000FFFF7F00742D002000B587B003900B464F
:10C3E00001928DF80B30039B002B04D1134940F2CE
:10C3F0002E20FCF75CFD019B002B04D10F4940F27D
:10C400002F20FCF754FD019B002B01D1072310E0E6
:10C41000039B1B680593059B019A5A619DF80B309D
:10C42000012B0CBF01230023DBB21A46059B1A61C6
:10C430000023184607B05DF804FB00BF6C690400D8
:10C44000F0B587B0039002910192039B002B04D1B9
:10C45000164940F23E20FCF72AFD039B0593059BFD
:10C460001B7FDBB2002B01D000231CE0059B019A4F
:10C470009A61FFF7C5FC02460B46029900200C4664
:10C480000546161943EB0507059BC3E90267059BA3
:10C490001B69002B02D0059B029A1A6105990020A6
:10C4A000FFF730FF0346184607B0F0BD6C69040083
:10C4B00000B585B00190019B002B04D109494FF4D0
:10C4C0001570FCF7F4FC019B0393039B00221A7781
:10C4D00003990120FFF716FF0346184605B05DF8E3
:10C4E00004FB00BF6C69040082B001900091019AC6
:10C4F000009BD31A23F07F43184602B07047000018
:10C5000008B5034800F0C9FB0346184608BD00BF44
:10C510007425002082B003468DF807309DF907305E
:10C52000002B0CDB9DF8073003F01F0205499DF935
:10C5300007305B09012000FA02F241F8232000BF16
:10C5400002B0704700E100E082B003468DF807308A
:10C550009DF90730002B0DDB9DF8073003F01F021B
:10C5600006499DF907305B09012000FA02F24033C9
:10C5700041F8232000BF02B0704700BF00E100E097
:10C5800082B0034600918DF807309DF90730002BEB
:10C590000ADB009BDAB20C499DF907305201D2B296
:10C5A0000B4483F800230BE0009BDAB207499DF8A7
:10C5B000073003F00F03043B5201D2B20B441A764A
:10C5C00000BF02B0704700BF00E100E000ED00E0F6
:10C5D00000B583B003460A468DF8073013468DF840
:10C5E00006309DF80630012B03D99DF80630032B49
:10C5F0000BD99DF80630042B03D99DF80630072B84
:10C6000003D908496B20FCF752FC9DF806209DF9E0
:10C61000073011461846FFF7B3FF00BF03B05DF8BF
:10C6200004FB00BFD069040000B583B003468DF859
:10C6300007309DF907301846FFF76CFF00BF03B0C5
:10C640005DF804FB00B585B00190019B002B0AD07A
:10C65000074B43F001030393019B9B010293039B50
:10C660000298984700E000BF05B05DF804FB00BFEA
:10C67000C06A040084B0039002910192039B029A65
:10C6800002F5A872019943F8221000BF04B0704768
:10C6900082B001900091019B009A02F5A87253F8B4
:10C6A0002230184602B0704782B001900091019B81
:10C6B000009AC3F8042300BF02B0704782B0019013
:10C6C0000091019B009AC3F8082300BF02B0704795
:10C6D00082B001900B46ADF80230BDF80230019AED
:10C6E00013441B68184602B0704784B001900B4693
:10C6F000ADF80230BDF80230019A134400221A60EE
:10C70000BDF80230019A13441B680393039B00BFDA
:10C7100004B0704782B00190019BD3F804351846ED
:10C7200002B0704700B583B001900091009BB3F553
:10C73000805F04D306494FF4BE70FCF7B8FB019B41
:10C74000009AC3F8082500BF03B05DF804FB00BFE2
:10C75000F869040082B001900B468DF803309DF813
:10C760000320019B13441A460123136000BF02B04B
:10C77000704782B001900091019B009AC3F8442356
:10C7800000BF02B0704782B001900091019B009AF7
:10C79000C3F8482300BF02B07047000000B587B05F
:10C7A000039002910192039B002B03D13349552042
:10C7B000FCF77DFB029B002B03D130495620FCF790
:10C7C00076FB019B002B03D12C495720FCF76FFB14
:10C7D000039B5B7919462A4A019B42F82130039B4F
:10C7E0005B79284ADB0013441B79002B0ED0082309
:10C7F0000593254A254BD31ADB081B0443F002039B
:10C8000023491846FBF776FB059B32E0039B1A6829
:10C81000029B1B8819461046FFF784FF039B93F980
:10C820000420029B9B7819461046FFF7D1FE039B1C
:10C8300093F904301846FFF7F7FE039B5B79114A22
:10C84000DB00134401221A71039B5B7919460D4AE0
:10C85000039B42F83130002305930B4A0B4BD31A4C
:10C86000DB081B0443F003030A491846FBF742FBAD
:10C87000059B184607B05DF804FB00BF206A040062
:10C88000F42D0020F82D0020DC5C0400A45C0400E2
:10C89000706A0400946A040000B583B00190019BA3
:10C8A000002B03D106498720FCF701FB019B1B6885
:10C8B00000211846FFF74EFF00BF03B05DF804FBF0
:10C8C000206A040000B583B00190019B002B03D1C6
:10C8D00006498D20FCF7EBFA019B1B6804211846E2
:10C8E000FFF738FF00BF03B05DF804FB206A0400C7
:10C8F00000B587B00390029101928DF80330039B3D
:10C90000002B03D121499620FCF7D1FA4FF4803255
:10C91000029B02FA03F30593029B50339BB29B00E8
:10C92000ADF81230019B23F07F430193039B1B68FA
:10C9300005991846FFF7C2FE039B1B680599184628
:10C94000FFF721FF039B1B68BDF812201146184614
:10C95000FFF7CBFE039B1B68019A02991846FFF76D
:10C9600089FE039B1B6805991846FFF702FF9DF897
:10C970000330002B05D0039B1B6805991846FFF771
:10C9800093FE00BF07B05DF804FB00BF206A0400FF
:10C9900000B585B00390029113468DF80730039BD4
:10C9A000002B03D10B49A920FCF781FA039B1B68DC
:10C9B00002991846FFF7DDFE9DF80730002B05D0E1
:10C9C000039B1B6802991846FFF76EFE00BF05B077
:10C9D0005DF804FB206A040000B583B0019000916B
:10C9E000019B002B03D10A49B320FCF760FA019B9D
:10C9F0001B6800991846FFF7C6FE019B1B6800994B
:10CA00001846FFF75BFE00BF03B05DF804FB00BFF4
:10CA1000206A040000B583B001900B46ADF80230E7
:10CA2000019B002B03D10F49BA20FCF740FA019B70
:10CA30001B68BDF8022011461846FFF749FE034661
:10CA4000002B09D0019B1B68BDF802201146184637
:10CA5000FFF74BFE012300E00023184603B05DF80A
:10CA600004FB00BF206A040082B001900091019A8B
:10CA7000009BD31A23F07F43184602B07047000092
:10CA800000B58BB00390029101920093039B002BA1
:10CA900003D15749CD20FCF70AFA4FF48032029BAC
:10CAA00002FA03F30993029B50339BB29B00ADF84B
:10CAB0002230019B23F07F43019309990398FFF7EC
:10CAC0008BFF039B1B681846FFF724FE0790039B10
:10CAD0001B6802991846FFF7DBFD0690039B1B6855
