:1000000000000420750300005D0300005F03000092
:1000100061030000630300006503000000000000AE
:100020000000000000000000000000006703000066
:1000300069030000000000006B0300006D03000076
:100040006F0300006F030000111700005519000036
:10005000651900006F0300006F0300006F030000CC
:100060006F0300006F0300006F0300006F030000C8
:100070006F0300006F0300006F0300006F030000B8
:100080006F0300006F0300006F0300006F030000A8
:100090006F0300006F0300006F0300006F03000098
:1000A0006F0300006F0300006F0300006F03000088
:1000B0006F0300006F03000000000000000000005C
:1000C0006F0300006F0300006F0300006F03000068
:1000D0006F0300006F0300006F0300006F03000058
:1000E0006F0300006F0300006F03000000000000BA
:1000F000000000006F030000000000006F0300001C
:1001000000000000000000000000000000000000EF
:1001100000000000000000000000000000000000DF
:1001200000000000000000000000000000000000CF
:1001300000000000000000000000000000000000BF
:1001400000000000000000000000000000000000AF
:10015000000000000000000000000000000000009F
:10016000000000000000000000000000000000008F
:10017000000000000000000000000000000000007F
:10018000000000000000000000000000000000006F
:10019000000000000000000000000000000000005F
:1001A000000000000000000000000000000000004F
:1001B000000000000000000000000000000000003F
:1001C000000000000000000000000000000000002F
:1001D000000000000000000000000000000000001F
:1001E000000000000000000000000000000000000F
:1001F00000000000000000000000000000000000FF
:10020000354936480A1A02D0072291438D463449AF
:1002100034480A1A06D00722914381F30988022242
:1002200082F3148830483149314A00F044F83148AB
:100230003149324A00F03FF831483249324A00F041
:100240003AF832483249334A00F035F832483349F7
:10025000334A00F030F833483349344A00F02BF881
:1002600033483449344A00F026F8344834490022EF
:1002700000F02CF833483449002200F027F83348C6
:100280003349091A082902DB002202604160314A21
:1002900090471F481F49884205D00268043003B4C4
:1002A000904703BCF7E700208646EC46002000217B
:1002B000294A9047FEE7884207D0521A05D00378B2
:1002C00001300B700131013AF9D17047884202D0F8
:1002D00002700130FAE770470000042000E00320BC
:1002E0000000042000000420483D00000000002021
:1002F00034000020D0030000D0030000903600003E
:10030000483D00000000002000000020DC36000016
:10031000DC360000DC360000DC360000DC36000095
:10032000DC360000DC360000DC360000473D000013
:100330007C3D000034000020340000203400002008
:100340007C0900207C0900207C0900207C09002019
:100350007C2900209D03000075290000FEE7FEE7D0
:10036000FEE7FEE7FEE7FEE7FEE7FEE7FEE7FEE765
:1003700000F002B8FFF7FCBF0F484FF007018843B9
:1003800085460E4880470E48016841F470010160BF
:10039000BFF34F8FBFF36F8FFFF732BF09480A4992
:1003A0000A4A884207D0521A05D0037801300B70F0
:1003B0000131013AF9D1704700000420292C0000D6
:1003C00088ED00E0DC360000000000200000002086
:1003D000F0B595B01D46164608460C4601F03EF8AD
:1003E0001A9B0D93CDE9086500252B460C2205A923
:1003F00020460A958DF82C500C9501F04BF8079B80
:100400000293069B03939DF814308DF8115003F06E
:100410000302012A1DD1BDF81420059DC3F3C203B8
:10042000C2F383168DF81030B2000C230EA92046BB
:1004300001F030F8C5F3952508AB0093324602ABC6
:100440000EA9284600F0E8FB204601F00BF815B095
:10045000F0BD022AF8D1BDF81650C3F3C203C5F3AC
:1004600089158DF810300C27082D2E4628BF082638
:100470003B4632460EA9204601F00CF8AD1B08ABF6
:1004800002AA31460EA8374400F02AFC002DEBD119
:10049000DAE70000014B01221A7070477500002056
:1004A0007047000070B50E4D06460FCD88B06C4603
:1004B0000FC495E80F00002E84E80F00094A0A488F
:1004C0004FF0060308BF00226946009301F0E2F8EE
:1004D00008B100F07DFC054B1E7008B070BD00BF78
:1004E000DC360000950400000000002034000020ED
:1004F00007B5044B0093044A4023FFF769FF03B09C
:100500005DF804FB0D0500003500002038B50D48EE
:100510000D4C0E4D002323700378EB5CD2B263B117
:10052000043002F0E1F808B100F052FC084B1A78F0
:1005300012B12378002BFBD038BD0C3001F064FEE3
:10054000F1E700BF00000020750000202C0600200D
:100550003400002008B50848084A0378D35C3BB152
:10056000043002F031F8BDE808400020FFF79ABFE0
:100570000C3001F0E1FDF6E7000000202C06002021
:100580000120FFF78FBF000008B5FFF7F9FF04480F
:10059000042100F07BFA034B01225A7108BD00BF11
:1005A000B836000014000020037813F0040216D0BF
:1005B00003F00303012B03D0022B09D00120704765
:1005C0000A6800880332C0F3831002440A60F5E72A
:1005D0000B684288033303EB92130B60EEE710467F
:1005E000704700002DE9F04FDFF810A10F4685B0ED
:1005F0000446C61C0020154600F040FCDAF8042032
:100600003A60DAF8083003F580739B1A0AF21C4747
:100610000AF583690AF21448B34219D30020002D69
:1006200067D004F00F039B0143F0050363F30F0051
:10063000DAF80430DAB2033233444AF822000020F8
:10064000CAF8043000F01CFC012005B0BDE8F08FB2
:100650000121384600F039FC484600F04EFC404687
:1006600000F04BFCDAF808000090C0B203300AEB4F
:1006700080006946FFF798FF009B08B1D8B2F5E704
:10068000DAB20AEB8202591CD2680192C9B20AEBB3
:10069000810102F003020333012AC96800931ED0CE
:1006A000022A24D1BDF80620C2F3891203324FEA90
:1006B000114B03EB92030093404600F021FC10B174
:1006C000009BCAF808305946384600F0FEFBDAF8BD
:1006D0000830DAF8042003F580739B1A9CE7BDF814
:1006E0000420C2F383124FEA114B1344E3E783461D
:1006F000E2E7A40544F006009AE700BF48010020A5
:1007000038B50446084684B1094D00232B7000F02B
:1007100047FB0848C5F80C4400F059FE044610B9E0
:10072000054800F0C1FE204638BD0724FBE700BFA6
:1007300048010020C83600003037000030B50A4CB0
:1007400071B10A4A0A49121BD20800239A4201D108
:10075000002030BD31F82350854202D00133F5E747
:10076000034654F83300F4E790360000B836000032
:1007700000000020094B013903EBC000032909D810
:10078000DFE801F00A020406042070470079704790
:100790004079704700207047022070479036000073
:1007A000034BD3E90130C31A58425841704700BF88
:1007B000480100202DE9FF41FFF7F2FF0546002820
:1007C00040F0EE80774CC4F81804BFF34F8FA36855
:1007D0000093DBB2033304EB83006946FFF7E4FECA
:1007E000009B50B1D4F818243AB962689A42F0D804
:1007F000A260284604B0BDE8F081591CC9B204EBE0
:100800008101DAB2C968029104EB8202991CD268B4
:100810000192C9B2033304EB8101009302F0030398
:10082000C9680391022B4CD1BDF806305E48C3F372
:100830008917502F3E4628BF502606F10C0166F35B
:100840008F13C1F30901ADF8063000F0D8FD05465D
:10085000002800F0908000F001FE0C2201A928463B
:10086000002300F00DFE0099C843C0B20130C9B2A8
:100870000331B6EB800F4FEA800204EB81011DD9F2
:100880005FFA82F80C23A6EB0806284600F0F8FD74
:10089000F6B208F10C03454903F0FC033246284642
:1008A00000F0EEFD009B033703EB97070097D4F8A9
:1008B0001834002B3BD1D4F810644BE00C233246A3
:1008C000EDE7012B57D1BDF804303748C3F383114E
:1008D000062928BF062161F38913033101F00F01B6
:1008E0008900ADF8043000F08AFD0546002842D0AA
:1008F00000F0B4FD00230C2201A9284600F0C0FD41
:100900000026BDF80420C2F38312B300964203F11F
:100910000C03CCD200994A1CC9B20331009204EBFB
:1009200081010422284600F0ABFD0136E9E72846A4
:1009300000F098FDFFF734FF80F00100C5B258E7E2
:10094000F3685B7923B1336829461B6830469847C2
:10095000F3681E68002EF3D1284600F083FD304670
:1009600000F08CFAD4F818340BB9009BA360002077
:1009700000F086FADEE7D4F8104454B90C4B0D4869
:100980000D49C01AC008000440F0020000F064F8ED
:10099000D0E7236820469B689847E3681C68ECE72B
:1009A000002526E748010020C83600005401002039
:1009B00090360000B0360000193700002DE9F347EB
:1009C00004460E46924601A9012218469946FFF7B1
:1009D00009FE1F4F50B3019D4FF00008EA1CC845A7
:1009E00008EB02012BD100211A4800F04BFA80F3EA
:1009F00010006B1CDBB207EB8303000440EA1440D9
:100A0000D860E400D7F80C34984704F03804AB1CE5
:100A1000DBB2EDB244F0010407EB8303033544EA93
:100A2000881444EA8624D86047F825403B781BB1F7
:100A3000FFF7C0FE0028FBD102B0BDE8F087C9B2C5
:100A400007EB81015AF82830CB6008F10108C6E7AE
:100A5000480100206405002000231A46FFF7AEBFBE
:100A600007B50123019201AAFFF7A8FF03B05DF8C3
:100A700004FB1FB5CDE90123069B039301AA0323C1
:100A8000FFF79CFF05B05DF804FB000030B50F4C8C
:100A9000D4F8102403460020114631B9D9680871F2
:100AA0004AB9C4F810340A6030BDC9680D7985426E
:100AB00006D00968F1E7D26814680C601360F3E7A8
:100AC00001300A28E8D14FF0FF30EDE7480100205F
:100AD00038B5084B0125D3F810441D7004B938BD52
:100AE000E3685D71236820465B689847E3681C688B
:100AF000F4E700BF48010020F0B5C38887B0054681
:100B00000E4633B1294A009229492A4A304600F05C
:100B100051FA297A052946D06B7A4BB1A888FFF79C
:100B200029FE254B254953F82020304600F042FA93
:100B3000234B2C681B68B4FBF3F4224B1868B4FBFE
:100B4000F0F34FF47A7E00FB13444FF461610EFB27
:100B500004F4B3FBF1F23C2701FB1231B4FBF0FCCF
:100B6000B1FBF7F300FB1C4407FB13110EFB04F46D
:100B70000091B4FBF0F41449CDE901C4304600F013
:100B800019FA2A7A114BA88853F8222005920021DD
:100B9000FFF7D4FD059A0E490346304607B0BDE87D
:100BA000F04000F007BA07B0F0BD00BF5C370000AE
:100BB000443700003C370000E43700006137000094
:100BC00004060020000600206437000008380000FA
:100BD0008037000007B503460846197A052911D069
:100BE0005B7A2BB1094A0A49019000F0E3F90198B8
:100BF0000849019000F0DEF9019803B05DF804EBBC
:100C000000F0CDB9002AF8D0F2E700BF5C37000051
:100C100061370000593700002DE9F04385B01F46C9
:100C20000C9D002395F80C902B7306460C469046BD
:100C300029463846FFF760FFB8F1060F09D8DFE80C
:100C400008F00412181F283340003146284600F0EF
:100C5000B1F9002229463846FFF7BCFF85F80C9011
:100C600005B0BDE8F08322683146284600F0A2F9BD
:100C7000EFE7D4E900233146284600F09BF9E8E786
:100C8000A36800933146D4E90023284600F092F986
:100C9000DFE7E3680193A36800933146D4E90023BA
:100CA000284600F087F9D4E723690293E3680193AB
:100CB000A36800933146D4E90023284600F07AF96E
:100CC000C7E76369039323690293E3680193A36809
:100CD00000933146D4E90023284600F06BF9B8E7C9
:100CE00008292DE9F74F80460E4617461C463DD889
:100CF00000251B7B2573214610460193FFF7FCFE60
:100D0000DFF88CA0DFF88CB0AE4232D918F805209D
:100D10005946204600F04EF90135082DF4D11B4903
:100D2000DFF874A0DFF874B0204600F043F94FF00C
:100D300000094E4524D918F809507E2D1ED82846A2
:100D400002F0EAF8002814BF2A462E22594620460F
:100D500000F030F909F10109B9F1080FE9D10122D8
:100D600021463846FFF736FF019B237303B0BDE8E9
:100D7000F08F5146204600F01DF9CDE72E22E5E721
:100D80005146204600F016F9E4E700BF9437000012
:100D9000903700008A370000923700009637000035
:100DA000084A10B50123084C13600021A04204D862
:100DB00001B11360054B186010BD40085B000121B4
:100DC000F4E700BF0406002040420F0000060020A8
:100DD0001FB50021039001AA44F20100CDE90111E1
:100DE00000F004F805B05DF804FB000038B572B6F9
:100DF000FFF76EFEFFF7DEFC0028FBD1104B114C15
:100E0000114D1249E41AE408240444F00100FFF7EC
:100E100023FED5F8F030DB0700D500BE0C4944F0C6
:100E20000200FFF719FEBFF34F8FEA68094B02F487
:100E3000E0621343EB60BFF34F8F00BFFDE700BFDD
:100E400090360000B036000000ED00E01C380000D5
:100E5000283800000400FA0572B6024A136801330C
:100E60001360704708060020034A1368013B1360B3
:100E700003B962B6704700BF08060020FFF7ECBF59
:100E8000FFF7F2BF10B5034653E8000F0A4643E8E8
:100E9000002494F0000FF7D110BD10B5034653E8BD
:100EA000002F42EA010043E8000494F0000FF6D15D
:100EB00010BD10B5034653E8000F00EA010243E8F5
:100EC000002494F0000FF6D110BD10B5034653E88E
:100ED000002F02EB010043E8000494F0000FF6D16C
:100EE00010BD10B5034653E8002FA2EB010043E804
:100EF000000494F0000FF6D110BD0121FFF7CDBF23
:100F00000021FFF7D6BF10B590B1D0E901230168E9
:100F10009B1ADBB20A60013BDBB2FF2B026802D1F5
:100F20000020107110BD11684C1C14600B70F2E7AA
:100F30000E20F7E738B504460020FFF79FFF226830
:100F400063681168994213D9481E106011F8013C7A
:100F5000E568218A01FB0355A36811791B1ADBB2EE
:100F6000994200D213710020FFF78AFF284638BD4E
:100F70000025F8E738B5054600200C46FFF77EFF50
:100F80002A681368591C1160E968641A298AB4FB3D
:100F9000F1F41C70BDE838400020FFF771BF826893
:100FA00010B504462AB143690168006998470023D7
:100FB000A36010BD0EB403B5039921B104AB01AA1F
:100FC000019300F077F802B05DF804EB03B07047CE
:100FD0000A2938B504460D4602D10D21FFF7F8FF66
:100FE000A3682268591CA160D554D4E901329A4201
:100FF00004D32046BDE83840FFF7D1BF38BD00001C
:101000002DE9F84F9846DDE90A43154682460F461A
:101010000A464FF00109AA420FD2C14538BFC14666
:1010200013F0010B01D16CB900240126B8F1010FB6
:101030001BD908F1FF386E43F8E709F10109B2FB4B
:10104000F5F2E8E79B070ED5B8F1000F0CBF30268C
:101050002026A145E9D2013C31465046FFF7B8FFB2
:10106000002CF6D1E0E72026F3E7B7FBF6F39D422C
:10107000E1D9DFF83C80B7FBF6F3504618F80310CF
:1010800006FB1377FFF7A4FF3346AB42B6FBF5F63A
:10109000F1D2BBF1000F02D00CB1A14501D3BDE8E4
:1010A000F88F20215046013CFFF792FFF4E700BF84
:1010B000353800002DE9F74F0546174688460029C8
:1010C00000F03E8118F8011B49B92B7B002B00F082
:1010D0003781284603B0BDE8F04FFFF760BF2529F0
:1010E00040F0B780002698F800302D2B424608F1DA
:1010F000010823D0302B24D02B2B25D000242A2BE1
:1011000002F1010123D13B681A1D1B683A601C449F
:101110000A4613782E2B26D101324FF0000A1046D2
:1011200010F8011BA1F1300CBCF1090F1DD80A23E6
:1011300003FB0A13A3F1300A0246F0E746F001066A
:10114000D1E746F00206CEE746F00406CBE711F8F9
:10115000013CA3F130000928DBD80A2202FB043449
:10116000303C0A46CBE74FF0000A12F8011B01F0B1
:10117000FB0068289046F8D0782909D86F290CD848
:10118000632962D022D8252963D0582900F08880AD
:1011900098F80030002B95D197E770390829F7D8D7
:1011A00001A353F821F000BF1B13000091110000B0
:1011B00091110000B1120000911100008F12000087
:1011C0009111000091110000A1120000642901D0CA
:1011D0006929DDD13A68D2F80090111D89EAE972D7
:1011E0003960A2EBE9724FF0010B092A35DCD345D7
:1011F00038BFD3462CB1B9F1000F01DB720700D51F
:10120000013CB30702D5BAF1000F03D0F00701D4B7
:101210004CBB0024B9F1000F2DDAC9F100092D21D2
:101220002846FFF7D5FE06F00302022A04D1BAF1E0
:10123000000F01D11CBB0024CDE9004653460A2211
:1012400049462846FFF7DCFEA2E73B681A1D1978DD
:101250003A602846FFF7BCFE9AE70A230BF1010B20
:10126000B2FBF3F2C1E7A345D4D220212846013CCA
:10127000FFF7AEFECCE77107D5D52B21D0E7A3450C
:10128000DAD230212846013CFFF7A2FED2E73968C6
:10129000CDE900460A1D3A6053460A220968D0E7A4
:1012A00039680A1D3A60CDE9004653461022F5E739
:1012B0003B681A1D3A6016F00106D3F8009024D15D
:1012C000B9F1000F03D0484601F095FE0646B4423E
:1012D0001DD809F1FF3919F8011F00293FF458AF53
:1012E0002846FFF775FEF6E728460136FFF770FE41
:1012F00019F806100029F7D1A642BFF449AF202102
:101300002846013CFFF764FEF6E70026F0E72021BF
:101310002846013CFFF75CFED9E73B681A1D3A609E
:10132000302128461C68FFF753FE78212846FFF736
:101330004FFE00220823CDE900322146102280E72B
:1013400003B0BDE8F08F00BF2DE9F84FB0F806A05C
:101350004579D2F800B09DF828900AFB05F5043DC8
:1013600088460BEB0301A94203F1040488BFA5EBF7
:10137000030BB4FBFAF607460AFB1644C2F800B0AA
:101380004EB9AAEB04055D4528BF5D46BBF1000FD1
:1013900004D1BDE8F88F3F68013EF1E7043408EB63
:1013A00006003C442A46B9F1000F0DD02146ABEBB4
:1013B000050B01F0D5FDDA452E443F6855464FF048
:1013C000000428BF5D46E1E701462046EFE7FFF74E
:1013D0009ABDF8B546790146721E05460023934230
:1013E0002D6803D30024A64202D8F8BD0133F6E7E6
:1013F0000F682846FFF7BEFD01343946F3E72DE9B3
:10140000F843068ACD1C0746FFF794FD043E354499
:101410000446B5FBF6F5F0B14FF48073EDB283806E
:10142000C680013D076081464FF00008A84512D2F2
:101430003846FFF77FFD064648B163790133637193
:1014400008F10108C9F8000007608146EEE7204670
:10145000FFF7BFFF34462046BDE8F8830121043082
:10146000FFF733BD10B5012104460430FFF739FD05
:10147000C0B220B92046BDE81040FFF7AABF10BD9A
:101480001FB503920022009203AAFFF75DFF05B08B
:101490005DF804FB1FB503920122009203AAFFF737
:1014A00053FF05B05DF804FB836800225A60C3E96E
:1014B00004229A60DA601A60704700001FB5037852
:1014C0008DF800308388ADF8043083688DF80630DD
:1014D000C3688DF80730036902934369054A039393
:1014E000054B684653F8213052F82110984705B053
:1014F0005DF804FB0C06002014060020024B4FF49C
:10150000807043F001031847503800001F2886BF41
:10151000054A00F01F004FF0A042012303FA00F03B
:10152000C2F80805704700BF000300502DE9F047DE
:10153000154690F80080394A42F82850384A42F857
:1015400028304B7B06460C46A3B30868DFF8D890DA
:101550004FF0A04100F5E07340F20C6241F8232007
:10156000636803F5E073002741F82320FFF7CEFFFF
:101570006068FFF7CBFF236803F5E07340F20D626C
:1015800041F82320636803F5E0734FF0010A41F846
:101590002320FFF7B3FF63681F2B8ABF4A464FF033
:1015A000A04203F01F03D2F8102522FA03F3DB0751
:1015B0000BD507BB002D1B4A434608BF2A462146D0
:1015C000301DBDE8F04700F0D5B923681F2B86BF5A
:1015D00003F01F034A464FF0A0420AFA03F3C2F891
:1015E0000C35FFF78BFF01372068FFF78FFFFFF700
:1015F00085FF092FCFD163681F2B86BF0A4903F0EF
:101600001F034FF0A041012202FA03F3C1F80C3589
:10161000FFF774FF6068FFF779FFCBE7140600203F
:101620000C060020BD140000000300501FB5037815
:101630008DF800304368019383688DF80830C368E3
:10164000054A0393054B684653F8213052F82110A0
:10165000984705B05DF804FB1C0600202406002016
:101660001FB503788DF800304368019383688DF8C7
:101670000830C368054A0393054B684653F8213088
:1016800052F82110984705B05DF804FB1C060020B5
:1016900024060020F0B5194B90F800C0DFF86CE08C
:1016A00043F82C20164B16460A6943F82C204B7F32
:1016B0000EF80C300C4607460FCC89B06D460FC5AE
:1016C00094E80F0085E80F003B78CDF810C01EF8B5
:1016D00003304BB1002E0B4A694608BF3246381D15
:1016E00000F096FE09B0F0BD002E074A694608BF1B
:1016F000324607F10C0000F04FFCF3E7240600200F
:101700001C0600202D160000611600002C0600208B
:10171000014B1B68184700BF3006002038B50B4B43
:1017200098420C4601D0002038BD0020FFF7A6FBF0
:10173000074B1D7915B901221C601A710020FFF7B3
:101740009FFB002DEFD01120EEE700BF00200040EE
:1017500030060020034B984201BF034B00221A6061
:101760001A717047002000403006002000234350CB
:1017700082B043580193019B02B070470B7B032B4F
:101780002AD8DFE803F022261A028B685A0304D510
:10179000D0F84C350A699A4207D18B685B031BD499
:1017A000D0F84C354A699A4216D000230622C0F878
:1017B0000035C0F8002518467047D0F84C350A6946
:1017C0009A42F2D1D0F83C35ECE7D0F84C350A69B2
:1017D000E9E7D0F83C35FAE701207047F0B5D0F8DA
:1017E000243187B004460D46EBB14FF49271FFF7F8
:1017F000BDFFD0F80431B3B9AB68C0F80833022399
:10180000AB60AB68C0F80433D0F860311BB1D0F8DE
:1018100000329B0502D4012323626361012385F812
:101820002E3007B0F0BDD4F80431002B41D04FF476
:1018300082712046FFF79AFF2B6A5F0609D495F85C
:101840002E3033B92946FFF799FF80F0010085F863
:101850002E002B6A5E073ED405F10C070FCF01AEB8
:101860000FC63B6833604FF4B0712046FFF77EFF30
:101870004FF4AE71FFF77AFF95F8303013B195F859
:101880002E3043B30023C4F80032AB602F4BC4F8B2
:10189000083344F30733002B4FEA14321BDB02F00A
:1018A0001F015B0901228A406033294941F8232046
:1018B00011E04FF4A4712046FFF758FF2B7B23BBA8
:1018C00005F10C070FCF01AE0FC63B68336095F8EA
:1018D0003030002BD7D0D4F8C434C4F8C4349807BF
:1018E00025D501238DF8003095F830300BB985F8F7
:1018F0002F302B6A5B0703D595F82E30002B90D044
:10190000D5E90031684698478BE74FF40073C4F877
:10191000003240F20223AB6003F1CE73C4F8083307
:10192000AB68C4F804330123A360236279E7590745
:1019300001D50223D6E7DA0701D50323D2E795F8CC
:101940002E30002BCED00423CCE700BF02029C0136
:1019500000E100E001490248FFF740BF38060020DF
:101960000030004002494FF04020FFF737BF00BF72
:101970006C0600202DE9F84F06793A4D4FF0340AF5
:101980000AFB06FA05EB0A079B4697F82D308046BE
:101990000C469146002B61D1334B006853F826105A
:1019A000FFF7BCFE00285BD12168637B87F83230EB
:1019B0001F298CBF01F01F030B4603F5E07388BF9E
:1019C0002A4AB86098BF4FF0A04240F20C6C87F8EA
:1019D0002F0042F823C06268C7F804B01F2A8CBFEA
:1019E00002F01F03134687F8300003F5E07388BF49
:1019F0001E4F45F80A9098BF4FF0A04747F823C004
:101A0000D8F80030C3F80815C3F80C25A268C3F84D
:101A10002425B9F1000F14D0227B43F30731520182
:101A20000029C3F30733D2B213DB114C671887F8D0
:101A300000230122490903F01F0302FA03F344F8CB
:101A40002130342303FB0655012385F82D30BDE8F2
:101A5000F88F084903F00F03CA54F2E70820F6E7AD
:101A60001120F4E738060020603800000003005021
:101A700000E100E014ED00E0036802790621C3F8FC
:101A80000015044B342101FB0233022283F82D2080
:101A9000704700BF380600202DE9F843DFF8C88200
:101AA00090F804900468342606FB0986002386F823
:101AB0002E30CB6803F06043B3F1005F0D4617464C
:101AC00003D010263046BDE8F883A64BC4F808338F
:101AD00096F82F3023B1B368C4F804331126F1E728
:101AE00012F0140F0CBF0123002386F82F308E460E
:101AF000BEE80F0006F10C0CACE80F00DEF8003079
:101B0000CCF80030C7F3001386F8303037626B78BA
:101B1000C4F8883520464FF48271FFF727FE4FF452
:101B20009271FFF723FE4FF4B071FFF71FFE4FF4E1
:101B3000A471FFF71BFE17F0010318BF0123C4F8BF
:101B4000503517F0020318BF0123C4F840352B7835
:101B5000032B00F2B580DFE803F084A069022B6953
:101B600003F06043B3F1005FABD14FF48073C4F86E
:101B70000032EA686B68C4F844254FF4A871C4F8D1
:101B80004835FFF7F3FD01232362A360D4F85031F9
:101B9000002BFBD04FF4A8712046FFF7E7FDAB68A0
:101BA0002A69C4F84425C4F84835342303FB098363
:101BB0004FF480229A60082300263A0704D42A783A
:101BC000032A1CBF0122E250342303FB09F308EB74
:101BD000030258F80330002B75D10125D4F84821B1
:101BE000D4F80431002B40F08980003A18BF01225C
:101BF000D4F82431002B00F088804FF492712046F5
:101C0000FFF7B4FDD4F86011D4F8003209B198059B
:101C100004D4256265610029E0D00022D90574D57D
:101C20004FF4A4712046FFF7A1FDD7E76B68EA687F
:101C3000C4F84425C4F848352B6903F06042B2F17A
:101C4000005F7FF43EAFAA68C4F834354FF4845384
:101C5000C4F83825C4F80032342303FB0983022278
:101C600012E06B68EA68C4F8442517F0200FC4F846
:101C700048354FF034030BD04FF48072C4F8002283
:101C800003FB09834FF480229A600123236292E7C9
:101C90004FF40072C4F80022DFE76B68EA68C4F80A
:101CA0003425C4F838354FF48053C4F80032342357
:101CB00003FB098302229A600123236200237BE74E
:101CC0000823072679E77B0744BF002393607D063E
:101CD00006D4342303FB09839A6842F002029A6017
:101CE000342303FB0988D8F8083043F40073C8F89C
:101CF0000830D8F80830C4F80433E3E64FF48271B2
:101D00002046FFF733FD012272E7002A3FF466AF59
:101D10003421D4F8C434C4F8C43401FB098200204F
:101D200082F82F0093B113F0010F14BF4FF4024655
:101D3000032648F2012213F0020F18BF164613F0D3
:101D4000040F48F2022318BF1E46BBE67B063FF590
:101D5000B9AE09FB01812046FFF710FD002808BF3E
:101D60000326AFE602029C013806002010B586B0BB
:101D70000024CDE902349DF820308DF80510A342EF
:101D8000CDE9042401A914BF202222468DF8044085
:101D9000FFF782FE06B010BD10B586B00124029395
:101DA0000023CDE903328DF805101A4601A98DF8FC
:101DB00004400593FFF770FE06B010BD00234350AA
:101DC00082B043580193019B02B070470A4610B598
:101DD0004FF48E71FFF7F2FF136A9168C95C136AC2
:101DE00001331362C0F81C1510BD8B690A4610B58B
:101DF0004FF4847123B9FFF7E1FFD0F8183510BD17
:101E0000FFF7DCFF536AD168D0F81805C854536A4D
:101E100001335362F3E700001FB501238DF8003052
:101E2000044BCDE90110D3E900126846904705B094
:101E30005DF804FBA006002030B54D4DD5F8043305
:101E40009A0585B051D5D5F82431002B4DD04FF4EB
:101E500092712846FFF7B2FF4FF40173C5F80833BB
:101E6000444B93F829200AB901226A6040490222B2
:101E70008DF80020D1F88024C1F8802403929A695B
:101E80000292DA6801920022C3E906226846D3E989
:101E9000001290473648D0F81C315BB1354A516981
:101EA000136A99424DD992F82830002B49D1114636
:101EB000FFF78CFF2E48D0F84431002B56D04FF45A
:101EC000A271FFF77BFF2B4B93F829200AB1012267
:101ED00002609A69002A49D0586AD96800229A613A
:101EE00005B0BDE83040FFF797BFD5F804335B0776
:101EF000D0D5D5F80831002BCCD01E4C1C4821463B
:101F0000FFF773FF636AA2699A42C3D1E369E1688C
:101F10004BB1A3612369E3600023606AE3616362FC
:101F2000FFF77AFFB6E794F829300BB901236B600D
:101F30000F4B4FF40172C3F808230023606AA361BA
:101F4000EEE70B484FF48E71FFF738FF5369002B13
:101F5000B0D051690291002391688DF80030019151
:101F600053616846D2E900139847A3E705B030BD36
:101F700000200040A00600201F2886BF00F01F00A0
:101F8000044B4FF0A04300F5E070022243F82020FC
:101F9000704700BF000300502DE9F843604D90F8F2
:101FA00004802C2303FB0853064693F82A300C4682
:101FB0009146002B40F0AF805A490068FFF7AEFB16
:101FC0000746002840F0A9802268531C10D01F2A21
:101FD00087BF554902F01F0313464FF0A04101206F
:101FE000984003F5E073C1F80805032041F8230089
:101FF0006168481C0DD01F298BBF01F01F030B46E1
:1020000049484FF0A04003F5E0734FF0000C40F852
:1020100023C03068A369C0F8243594F814C0637DE8
:10202000BCF1010F4CEA0303C0F86C35C0F814157D
:10203000C0F80C252BD1A368591C0DD01F2B8BBFCA
:1020400003F01F021A4638494FF0A04102F5E07232
:102050004FF0000C41F822C0E1684A1C13D01F2940
:1020600087BF314A01F01F0C8C464FF0A0424FF061
:10207000010E0EFA0CFE0CF5E07CC2F808E54FF0FC
:10208000030E42F82CE0C0F80815C0F810352C22D9
:1020900002FB08F2AB18C3F804902369AB50B9F106
:1020A000000F20D04FF48E71247FFFF787FE4FF48E
:1020B000A2713068FFF782FE32681C4BC2F804330D
:1020C000130B42F307326101002AC9B21EDB184824
:1020D000841884F800130121520903F01F0301FA48
:1020E00003F340F8223033680422C3F800252C2380
:1020F00003FB08530022C3E9062283F829205A6112
:10210000012283F82A203846BDE8F883094A03F003
:102110000F03D154E7E70827F5E71127F3E700BFDE
:10212000A0060020391E00000003005080000200BD
:1021300000E100E014ED00E02DE9F04103680579CD
:10214000284C0022C3F800252C2202FB0542014640
:102150005268A2B1244AC3F808231A0B43F3073389
:10216000002B0CDB02F01F005B09012282402033B0
:102170001E4840F82320BFF34F8FBFF36F8F0B68CB
:10218000D3F80C05D3F81485D3F80865D3F8107587
:102190004FF0FF329042C3F81425C3F80C25C3F862
:1021A0000825C3F8102501D0FFF7E6FEB8F1FF3F80
:1021B00002D04046FFF7E0FE7A1C02D03846FFF717
:1021C000DBFE731C02D03046FFF7D6FE0868FFF72F
:1021D000C1FA2C2303FB0544002384F82A306360F2
:1021E000BDE8F081A00600208402020000E100E0CA
:1021F0000279044B2C2101FB02335869003818BFC7
:1022000001207047A00600202DE9F84F064690F8FF
:10221000048089469246FFF7EBFF044600283CD134
:10222000204F2C2508FB057B4FF48E71CBF814A0B2
:10223000CBF80890CBF820008BF828003068FFF727
:10224000BDFD3068012383605946FFF7BFFDDBF811
:1022500004305D461BBB3068DBF814402B6A9C429F
:1022600011D83368D3F81C21002AFBD00122DA6090
:1022700000202C2303FB087700237B61BDE8F88F47
:1022800095F828303BB9D0F81C31002BF8D05946CE
:10229000FFF79CFDE2E70F20EBE71120EEE7204679
:1022A000ECE700BFA00600200023435082B0435853
:1022B0000193019B02B070471FB501238DF80030D8
:1022C000044BCDE90110D3E900126846904705B0F0
:1022D0005DF804FBCC0600207FB5434AD2F82461A8
:1022E000002E60D010464FF49271FFF7DDFF0223FD
:1022F0008DF80030D2F88034C2F880340393D2F8DD
:102300003C350293394BDA6801920022C3E9062278
:102310006846D3E9001290473348D0F8443173B18E
:102320004FF4A271FFF7C0FF304B9A693AB1002217
:10233000C3E90622D968D0F83C05FFF7BDFF2A485B
:10234000D0F82031ABB14FF49071FFF7ADFF01230E
:10235000C360264B5A6962B1D0F84C150291002235
:1023600099688DF8002001915A616846D3E90012FE
:1023700090471D48D0F858319BB14FF4AC71FFF72E
:1023800093FF1A4B5A6962B1D0F84C1502910022A2
:1023900099688DF8002001915A616846D3E90012CE
:1023A000904704B070BDD2F81031002BB4D04FF478
:1023B00088711046FFF778FF0C4BD2F83C059969FD
:1023C0008842A9D1DC69D96864B1D2F8005225F0FD
:1023D0002005C2F800521A699C61DA60DE61FFF7DD
:1023E0006BFF99E79C61FAE700200040CC060020D3
:1023F0001F2886BF00F01F00044B4FF0A04300F5DC
:10240000E070022243F82020704700BF0003005014
:102410002DE9F843664E90F80480242303FB0863FB
:10242000044693F820300D469146002B40F0BC80C6
:1024300060490068FFF772F90746002840F0B6804F
:1024400029684B1C10D01F2987BF5B4A01F01F036E
:102450000B464FF0A0420120984003F5E073C2F80C
:102460000805032042F823006A68501C0DD01F2A7B
:102470008BBF02F01F0313464F484FF0A04003F5F7
:10248000E0734FF0000C40F823C02068AB69C0F83F
:10249000243595F814C06B7DBCF1010F4CEA0303A1
:1024A000C0F86C35C0F80C15C0F814252BD1AB68FA
:1024B000591C0DD01F2B8BBF03F01F021A463E493B
:1024C0004FF0A04102F5E0724FF0000C41F822C03D
:1024D000E9684A1C13D01F2987BF374A01F01F0C37
:1024E0008C464FF0A0424FF0010E0EFA0CFE0CF598
:1024F000E07CC2F808E54FF0030E42F82CE0C0F88B
:102500000815C0F81035242202FB08F2B318C3F8EE
:1025100004902B69B350B9F1000F2FD04FF488719C
:102520002A7FFFF7C1FE20684FF49071FFF7BCFED1
:1025300020684FF49271FFF7B7FE20684FF4A27144
:10254000FFF7B2FE4FF4AC712068FFF7ADFE2368D1
:102550001A49C3F80413190B43F307335201002B34
:10256000D2B21CDB1648C51885F8002301225B098E
:1025700001F01F0102FA01F140F82310236808223C
:10258000C3F80025242303FB08660023C6E90633AD
:102590007361012386F820303846BDE8F883094B83
:1025A00001F00F015A54E9E70827F5E71127F3E78F
:1025B000CC060020D9220000000300501003420086
:1025C00000E100E014ED00E02DE9F0413D4D067919
:1025D0000468242303FB065302465B68ABB13A4B05
:1025E000C4F8083344F30733002B4FEA14310CDBF3
:1025F00001F01F005B09012181402033334840F87E
:102600002310BFF34F8FBFF36F8FD4F8003223F046
:102610002003C4F80032242303FB06539B6933B123
:102620004FF4A2712046FFF73FFE012363604FF491
:10263000AC712046FFF738FE0123E360242303FB3F
:102640000653D4F858110029FBD0996919B1D4F870
:1026500044110029F5D00023C4F800351368D3F8DD
:102660000C05D3F81485D3F80815D3F810754FF07E
:10267000FF329042C3F80C25C3F81425C3F808258F
:10268000C3F8102501D0FFF7B3FEB8F1FF3F02D029
:102690004046FFF7ADFE7A1C02D03846FFF7A8FE91
:1026A0004B1C02D00846FFF7A3FE2046FFF752F866
:1026B000242303FB0655002385F820306B60BDE81A
:1026C000F08100BFCC0600201003420000E100E0D2
:1026D0000279044B242101FB02335869003818BFEA
:1026E00001207047CC06002001F06043B3F1005F89
:1026F0002DE9F0470646884692463BD190F8049073
:10270000FFF7E6FF0446002836D11D4F3068242528
:1027100005FB09754FF49071C5F814A0C5F8088041
:10272000FFF7C2FD4FF4AC713068FFF7BDFD3368B1
:102730006A69A968C3F84415C3F8482501229A605C
:102740006A68DAB9D3F82021D3F858011AB90028F9
:10275000F8D00F2007E00028FBD10122DA60D3F87F
:102760005821002AFBD0242303FB097700237B6137
:10277000BDE8F0871020FBE71120F9E72046F7E7D6
:10278000CC060020014BD3F804057047001001402F
:1027900038B5054D044645F001054FF47A40A84789
:1027A000013CFAD138BD00BFB03A00001FB50A0C99
:1027B00000238DF809200A0A8DF80C308DF80800E6
:1027C0008DF80A208DF80B10009302AA05235821DA
:1027D0000248FFF7CBFA05B05DF804FBBC3A0000F5
:1027E00010B586B001238DF80F0000930D480DF150
:1027F0000F025821FFF7BAFA044688B909480323A3
:1028000005AA5821FFF7C8FA38B9BDF8144064BAD0
:10281000A0B29DF8164044EA0024204606B010BD40
:102820000024FAE7BC3A00002A20FFF7D9BF2B208A
:10283000FFF7D6BF2C20FFF7D3BF2D20FFF7D0BF67
:102840002E20FFF7CDBF2F20FFF7CABF2DE9F041A3
:10285000E6B00E49DFF838804FF4CC72684600F0DD
:102860007FFB6C460025D4E9006740463A46314676
:1028700000F0A2F901353946F0B2FFF797FF332D8A
:1028800004F10804EFD166B0BDE8F081143900000E
:10289000733800001FB51B221A23CDE900234FF027
:1028A000CC710223CDE9021300230C481A46694675
:1028B000FEF73CFE044608B1FEF78AFA0848094BC9
:1028C00009491B1ADB081B0443F003002246FEF7EC
:1028D000C7F80648FFF7D0F804B010BDB83A0000BA
:1028E00090360000B036000094380000BC3A00007A
:1028F00000B52DED048B83B0FFF796FF08EE900A2C
:10290000FFF795FF09EE100AFFF794FF08EE100A93
:10291000FFF793FFFFF794FFFFF795FFB8EE499A93
:10292000114B12481249FCEEC97AF8EE688AB8EEEB
:10293000488AC01ABCEEC88A17EE903AC008FCEE6E
:10294000E87A000417EE902A8DED008A40F003002B
:10295000FEF78FF8FDF72EFF0028FBD103B0BDEC8A
:10296000048B5DF804FB00BF90360000B036000019
:102970009A38000037B524480021FDF7C1FE08B1A0
:10298000FEF726FAFDF700FE4FF0A0430322C3F83E
:1029900050271E4CC3F83C271D4B1E49E41AD44057
:1029A000240414432046FEF757F8FDF703FF0028E0
:1029B000FBD1FFF76FFF0DF10702582116480123E5
:1029C000FFF7EAF91549054658222046FEF748F870
:1029D00065B9134958222046FEF742F8FFF736FF43
:1029E000FFF786FF6420FFF7D3FEF9E7FDF7E2FE6D
:1029F0000028FBD10B492046FEF72EF8FDF7DAFE42
:102A00000028FBD1FEE700BF85270000B03600009C
:102A100090360000AA380000BC3A0000BF38000021
:102A2000CD380000FA3800000369C26893429CBFA9
:102A300080681B18013B981A70472DE9F843D0E9CC
:102A400002940546A9EB04084068904520440F46CF
:102A5000144404D900F084FAEC60BDE8F8834246DF
:102A6000A4EB090400F07CFA6868224607EB080131
:102A7000F0E72DE9F843C5680646894617464FF04A
:102A800000083469B3687068A54228BFE418013CA7
:102A9000621B5C1BBC4228BF3C46944228BF1446C4
:102AA00049462844224600F05BFAB3682544AB420D
:102AB00008BF00253F1BA044A144F560E1D140467A
:102AC000BDE8F88310B5114C114AA2610223C4E994
:102AD0000433104BE361A2644FF400730E4A0F49B4
:102AE0002362E26400231022E01DA3626362E362BA
:102AF000A3656365E365226500F05BFA084920463B
:102B000000F057FA2023A37110BD00BFF00600208B
:102B1000C83A00007807002068070020D13A00007A
:102B2000D53A000070B5164B182400FB04451D442F
:102B300004FB00331646DC6A012C0ED0022C18D0A0
:102B4000E4B92846FFF770FF864204D8324628468B
:102B5000FFF773FF3446204670BD2846FFF764FF39
:102B60008642344628BF044622462846FFF765FFC2
:102B7000F1E72846BDE87040FFF77BBF0024EAE795
:102B8000F006002070B50B4B1B7804460D46164628
:102B90000BB9FFF797FF0020FEF770F93246294680
:102BA0002046FFF7BFFF04460020FEF769F92046E4
:102BB00070BD00BFF00600200FB410B5A2B024AB6A
:102BC000802153F8042B019302A800F0BBF9802860
:102BD00004460ADD802202A90020FFF7D3FF204629
:102BE00022B0BDE8104004B070470028F7DD02466F
:102BF000F1E74FF08053D3F83001A0F108035842B9
:102C0000584170474FF08053D3F83021082A06D13D
:102C1000D3F83431032B02D8024AD05C704700202D
:102C2000704700BFDC3A000008B5FFF7E2FF40B193
:102C30004FF080430022C3F80C21C3F81021C3F8E1
:102C40003825FFF7D6FF002846D04FF08052614B61
:102C5000D2F80414C3F82015D2F80814C3F82415C8
:102C6000D2F80C14C3F82815D2F81014C3F82C1598
:102C7000D2F81414C3F83015D2F81814C3F8341568
:102C8000D2F81C14C3F84015D2F82014C3F8441528
:102C9000D2F82414C3F84815D2F82814C3F84C15F8
:102CA000D2F82C14C3F85015D2F83014C3F85415C8
:102CB000D2F83414C3F86015D2F83814C3F8641588
:102CC000D2F83C14C3F86815D2F84014C3F86C1558
:102CD000D2F84424C3F87025FFF794FF18B13E4B97
:102CE0003E4AC3F88C26FFF78DFF18B13C4BFB2200
:102CF000C3F81825FFF786FF70B14FF080414FF001
:102D00008053D1F8E42ED3F8583222F00F0203F0AA
:102D10000F031343C1F8E43EFFF774FF20B1314BBA
:102D20004FF40072C3F84026FFF763FF48B14FF03D
:102D30008043D3F80024D20744BF6FF00102C3F8E8
:102D40000024294AD2F8883043F47003C2F888304E
:102D5000BFF34F8FBFF36F8F4FF01023D3F80022D4
:102D6000002A03DBD3F80432002B2EDA1F4B01229A
:102D7000C3F80425D3F80024002AFBD04FF010221A
:102D80001221C2F80012D3F80024002AFBD04FF021
:102D900010231222C3F80422144BD3F80024002A73
:102DA000FBD00022C3F80425D3F80024002AFBD06E
:102DB000BFF34F8F0C490E4BCA6802F4E062134315
:102DC000CB60BFF34F8F00BFFDE70A4B0A4A1A6082
:102DD00008BD00BF00C00040005000404881030013
:102DE00000F000400090024000ED00E000E00140F3
:102DF0000400FA051C0000200090D0037F2805D8AD
:102E0000034B185C034B5B5C184070470020704715
:102E1000EC3A00006C3B0000A0F16103192B98BF55
:102E200020387047A0F14103192B98BF203070471C
:102E30007F2805D8034B185C034B5B5C1840704738
:102E400000207047EC3A00006C3B0000A0F16103E9
:102E5000192B98BF20387047A0F14103192B98BF58
:102E6000203070477F299ABF017001206FF02E003B
:102E700070475AB10A787F2A0AD800B1026000214F
:102E800019605960501A18BF012070470020704720
:102E90006FF02E00704710B504460846A2684AB18C
:102EA0002368616803F1010C8C4508BF00208B4248
:102EB00008D2D054E3682BB121686268914201D2F4
:102EC0002146984723680133236010BD70B54C1E1E
:102ED00009D41646C5B229463046FFF7DCFF013C4F
:102EE000B4F1FF3FF7D170BD10F0100F08D108B555
:102EF00010F4007F14BF30202020FFF7E7FF08BD4B
:102F00007047000008B5034B5B689B681B689847D7
:102F100008BD00BF2000002008B50921FFF7F2FF1F
:102F200008BD037853B159B10144034613F8012F8A
:102F300012B18B42FAD10B46181A70470346FBE7D1
:102F40000346F9E710B584B00C4611460290002202
:102F5000039201941A46684600F07EF804B010BD52
:102F6000844640EA010313F0030F18D18446202A57
:102F70000BD32DE9F007B1E8F807A0E8F807A2F1B4
:102F80002002202AF7D2BDE8F007042A07D351F81F
:102F9000043B40F8043BA2F10402042AF7D2002AC1
:102FA00005D011F8013B00F8013B013AF9D1604628
:102FB0007047024610F0030F16D111F0030F13D122
:102FC0002DE9F0004FF001374FF0803351F8044BFA
:102FD000A4EB070525EA04051D4002D142F8044B85
:102FE000F4E7A1F10401F0BC11F8013B02F8013B48
:102FF000002BF9D1704700F1010110F0030F11D03F
:1030000010F8012B002A23D010F0030F0AD010F87B
:10301000012B002A1CD010F0030F03D010F8012B55
:10302000002A15D02DE970004FF001324FF08033A7
:1030300050F8044BA4EB020525EA04051D4000D11D
:10304000F6E7A0F1040070BC10F8012B002AFBD1B8
:10305000A0EB0100704700002DE9F04F89B0074652
:103060000392002303600C4614F8011B002900F0B2
:10307000FC82DFF818B5EBE2002507E05E2868D196
:1030800045F4805501E045F040051C46234613F801
:10309000010B3028F2D81F2837D9A0F12002102ABE
:1030A00033D801A151F822F0873000000B31000025
:1030B0000B310000ED3000000B3100000B3100003F
:1030C0000B310000F33000000B3100000B31000029
:1030D0000B310000F93000000B310000FF30000020
:1030E0000B3100000B3100000531000045F0800578
:1030F000CBE745F40045C8E745F02005C5E745F0B6
:103100001005C2E745F40075BFE72A2821D1039ACC
:10311000111D0391D2F800A0BAF1000FBCBFCAF193
:10312000000A45F010051878A31C2AEAEA7A2E282E
:1031300026D00021742847D07A2845D06C2800F08A
:10314000A8804C2800F0AB80682800F0B8801C46AE
:103150003DE0A0F13002D2B2092A88BF4FF0000A48
:10316000E3D84FF0000A0AEB8A0A303800EB4A0A2B
:1031700013F8010BA0F13002D2B2092AF3D9D4E737
:1031800018782A280AD1039A111D039111685878DA
:1031900002330029CEDB45F48075CBE70133A0F183
:1031A0003002D2B2092A88BF0021F4D8002101EBF5
:1031B0008101303800EB410113F8010BA0F130021E
:1031C000D2B2092AF3D9E4E71C4614F8010B00280F
:1031D00000F05782A0F12503DBB2532B62D8A0F197
:1031E0002503532B5ED8DFE813F076005D005D0009
:1031F0005D005D005D005D005D005D005D005D00E7
:103200005D005D005D005D005D005D005D005D00D6
:103210005D005D005D005D005D005D005D005D00C6
:103220005D005D005D005D005D005D005D005D00B6
:103230005D005D005D005D005D005D005D005D00A6
:103240005D005D005D005D005D005D005D005D0096
:10325000EC005D005D005D005D005D005D005D00F7
:103260005D005D005D007B0021015D005D005D0093
:103270005D0021015D005D005D005D0095000F01B6
:10328000D2005D005D00A6005D001A015D005D00DA
:10329000EE001C4614F8010B45F0010597E745F0D8
:1032A00001051C46B54B1E68002E00F0CE8103AB15
:1032B0000193009153462A463946B047C5E1187834
:1032C000682803D05C1C45F0040580E745F008053C
:1032D0009C1C58787BE725213846FFF7DCFDB4E1DC
:1032E000039B1A1D03921E780AF1FF3A3A46514693
:1032F0002846FFF7F9FD31463846FFF7CCFDA946D1
:1033000019F0100F00F0A1813A4651462020FFF736
:10331000DDFD9AE115F0080F06D03A68039B191DF0
:1033200003911B681A7090E1039B1A1D03921B689E
:103330003A681A6089E1039B1A1D0392D3F8008052
:103340008F4BB8F1000F08BF9846464625F4007928
:1033500015F4807F16D04046FFF7E3FD0546AAEB43
:10336000050A3A4651464846FFF7BEFD002DC7D034
:1033700016F8011B3846FFF78EFDA8EB0603EB425B
:10338000F6D1BDE74046FFF736FE0546E7E7039B6B
:103390001A1D03921B6815F0800F0CBF0026232610
:1033A00045F4807508211A46002B00F02A8105ABF0
:1033B0004FF0000805F4005CA64660468C460146C6
:1033C000D2E045F4005515F0800F1BD043F278068B
:1033D00043F25803782818BF1E4615F4807F01D0A9
:1033E00025F4007515F4804F32D0039B1A1D03920B
:1033F0001B6815F0040F1FD01BB2002B20DA5B42B4
:103400002D262DE00026E8E715F0800F0CBF0026E2
:10341000302615F4807FE5D025F40075E2E715F439
:10342000807F07D025F400750026DBE745F4804552
:103430000026D7E70026D5E715F0080FDDD0DBB270
:1034400015F0200F61D115F0400F18BF202607E0BE
:10345000039B1A1D03921B6815F0040F50D09BB2FA
:1034600015F4807F14BF25F40075012158382028F9
:1034700000F2AF8001A252F820F000BFA733000095
:10348000D3350000D3350000D3350000D33500001C
:10349000D3350000D3350000D3350000D33500000C
:1034A000D3350000D3350000D33500003735000098
:1034B000D3350000D3350000D3350000D3350000EC
:1034C00037350000D3350000D3350000D335000078
:1034D000D3350000D33500000F350000A7330000BE
:1034E000D3350000D3350000D3350000D3350000BC
:1034F00037350000D3350000D3350000A733000076
:1035000015F0080FACD0DBB2AAE72B26A8E71A46C5
:103510004FF00008002B5ED005A84FF0000803F024
:103520000703303300F8013B08F10108D2081346C5
:10353000002AF4D14FE018464FF00008002B4AD083
:103540004FF0000805F4004E4FF02C0973468E46EC
:1035500019462FE002F00F000A4C205C03F8010B23
:1035600008F10108120906D00029F3D002F00F007B
:10357000054C205CF2E7744661462CE07809002097
:10358000403D0000203D0000303D0000CDCCCCCCC3
:1035900008AB03EB080CABFB0032D20802EB820352
:1035A000A0EB430330330CF80C3C08F10108092868
:1035B0000DD910460029EBD008F00303032BE7D107
:1035C00008AB434403F80C9C08F10108E0E771469E
:1035D00001E04FF00008A1EB080121EAE179AAEB34
:1035E000090AAAEB080AFF2E0ED9AAF1020AC6F3AD
:1035F00007213846FFF74FFCF1B23846FFF74BFC86
:1036000004E04FF00008E6E7002E3DD13A4651466F
:103610002846FFF769FC3A4649463020FFF756FC3A
:10362000B8F1000F0EDD0DF1140908F1FF38C844A0
:1036300098F8001046463846FFF72DFCC14508F1C2
:10364000FF38F5D115F0100F09D114F8011B61B145
:1036500025293FF411AD3846FFF71DFCF5E73A4642
:1036600051462020FFF732FCEFE7BB682BB13A68E8
:1036700079688A423CBF00219954386809B0BDE896
:10368000F08F4FF0FF30F9E70AF1FF3AB4E700BFDF
:1036900056380000000000005A380000000000000A
:1036A00068380000000000006D38000000000000D5
:0836B0002A37000000000303AB
:1036B800FC3600000000000008370000140000205D
:1036C80078000020400100204801002080000020F0
:0436D80018000000D6
:1036DC00FFFFFFFFFFFFFFFFFFFFFFFFFFFFFFFFEE
:1036EC0000000000000000000000D60106010000F0
:1036FC00F104000055050000A1040000756172740E
:10370C005F6C6F675F6261636B656E6400426163DF
:10371C006B656E647320666C7573686564006170AC
:10372C0070000000680500207F000000E805002004
:10373C001B5B313B33316D0025734C6F6773206419
:10374C00726F70706564202825642925730D0A003A
:10375C001B5B306D002573005B253032643A2530DD
:10376C0032643A253032642E253033642C253033C4
:10377C00645D20003C25733E2025733A20002025F3
:10378C0030327800202020007C002563001B5B3148
:10379C003B33306D001B5B313B33326D001B5B31B7
:1037AC003B33336D001B5B313B33346D001B5B31A2
:1037BC003B33356D001B5B313B33366D001B5B318E
:1037CC003B33376D007761726E696E6700696E66A8
:1037DC006F006465627567005C3700009937000004
:1037EC003C370000A1370000A9370000B1370000BA
:1037FC00B9370000C1370000C937000000000000D5
:10380C0022380000D1370000D9370000DE37000025
:10381C00466174616C206572726F720053797374B7
:10382C00656D207265736574003031323334353612
:10383C00373839414243444546000000000000003F
:10384C00000000000338FDD8704750525300545705
:10385C00494D00005519000065190000554152549E
:10386C000055415254450044656275673A205265D3
:10387C006769737465723A203078256C78202D2036
:10388C003078256C780D0A0076616C2578002575EA
:10389C003B25753B25753B25753B25753B005457E2
:1038AC0049207363616E6E65722073746172746506
:1038BC00642E00536561726368696E672025782EEB
:1038CC000048656172742052617465203520436C28
:1038DC0069636B206465746563746564206174202E
:1038EC006164647265737320307825782E004E6F96
:1038FC00206465766963652077617320666F756EE9
:10390C00642E000000000000000000000000000019
:10391C000100000050000000020000008F01200098
:10392C00030000002203000004000000B1040000AA
:10393C0005000000E101000006000000200300006B
:10394C00070000007203000008000000B104000032
:10395C0009000000000000000A0000008F010000B8
:10396C000B000000030500000C00000042060000E4
:10397C000D000000950100000E0000002303000064
:10398C000F0000002903000010000000B704000025
:10399C0011000000BD040000120000004B060000E6
:1039AC00130000005106000014000000DF070000A7
:1039BC0015000000910100001600000093010000AA
:1039CC00170000002503000018000000270300006A
:1039DC0019000000B90400001A000000BB0400002C
:1039EC001B0000004D0600001C0000004F060000EC
:1039FC001D0000003F9C00001E00000003010000A1
:103A0C0020000000058000002100000005000000DF
:103A1C002200000080420000230000001842120027
:103A2C0029000000000000002A0000000000000037
:103A3C002B000000000000002C0000000000000023
:103A4C002D000000000000002E000000000000000F
:103A5C002F000000000000003100000020000000DA
:103A6C0032000000A708000033000000779B000024
:103A7C0034000000000000003500000000000000D1
:103A8C003600000091010000370000002003000008
:103A9C0039000000050000003A00000000000000A2
:103AAC00000000000338FDD8704700000100000042
:103ABC000040004001000000010000005465726DE0
:103ACC00696E616C0052545400534547474552008F
:103ADC000100000043000000504F53495800000003
:103AEC002020202020202020206828282828202062
:103AFC0020202020202020202020202020202020BA
:103B0C004810101010101010101010101010101071
:103B1C008484848484848484848410101010101011
:103B2C00108181818181810101010101010101016A
:103B3C00010101010101010101010110101010101E
:103B4C00108282828282820202020202020202023B
:103B5C0002020202020202020202021010101020E3
:103B6C0000070320041702010857104080000000D2
:103B7C00E03A0000E43B0000F83C000053756E0096
:103B8C004D6F6E0054756500576564005468750080
:103B9C004672690053617400000000004A616E00B7
:103BAC00466562004D617200417072004D61790092
:103BBC004A756E004A756C0041756700536570005C
:103BCC004F6374004E6F7600446563000000000084
:103BDC00414D00504D0000001C3D0000183D000000
:103BEC00183D0000183D0000183D0000183D000075
:103BFC00183D0000183D0000183D0000183D000065
:103C0C00FFFFFFFFFFFFFFFFFFFFFFFFFFFF0000B6
:103C1C00583C0000883B0000943C0000A83B00008E
:103C2C00DC3B00003C3C0000EC3C0000483C00004D
:103C3C00256D2F25642F2579000000002561202596
:103C4C0062202565202554202559000053756E648B
:103C5C006179004D6F6E64617900547565736461B0
:103C6C0079005765646E6573646179005468757288
:103C7C00736461790046726964617900536174758B
:103C8C0072646179000000004A616E75617279009E
:103C9C004665627275617279004D617263680041AC
:103CAC007072696C004D6179004A756E65004A75D9
:103CBC006C79004175677573740053657074656D2C
:103CCC00626572004F63746F626572004E6F766549
:103CDC006D62657200446563656D6265720000001B
:103CEC0025483A254D3A255300000000FD2D0000D3
:103CFC00192E0000252E0000312E00004D2E000044
:103D0C00592E0000652E0000732E000000000000EC
:103D1C002E00000030313233343536373839616299
:103D2C006364656630313233343536373839414265
:0B3D3C0043444546286E756C6C29005E
:103D480000000000002000400000000000200040AB
:103D58000000000000000000FF0000000090D003F9
:103D68007C3B00007C3B00007C3B00007C3B00006F
:043D78007C3B000090
:040000030000037581
:00000001FF
