:1000000000000420750300005D0300005F03000092
:1000100061030000630300006503000000000000AE
:100020000000000000000000000000006703000066
:1000300069030000000000006B0300006D03000076
:100040006F0300006F0300001D170000611900001E
:10005000711900006F0300006F0300006F030000C0
:100060006F0300006F0300006F0300006F030000C8
:100070006F0300006F0300006F0300006F030000B8
:100080006F0300006F0300006F0300006F030000A8
:100090006F0300006F0300006F0300006F03000098
:1000A0006F0300006F0300006F0300006F03000088
:1000B0006F0300006F03000000000000000000005C
:1000C0006F0300006F0300006F0300006F03000068
:1000D0006F0300006F0300006F0300006F03000058
:1000E0006F0300006F0300006F03000000000000BA
:1000F000000000006F030000000000006F0300001C
:1001000000000000000000000000000000000000EF
:1001100000000000000000000000000000000000DF
:1001200000000000000000000000000000000000CF
:1001300000000000000000000000000000000000BF
:1001400000000000000000000000000000000000AF
:10015000000000000000000000000000000000009F
:10016000000000000000000000000000000000008F
:10017000000000000000000000000000000000007F
:10018000000000000000000000000000000000006F
:10019000000000000000000000000000000000005F
:1001A000000000000000000000000000000000004F
:1001B000000000000000000000000000000000003F
:1001C000000000000000000000000000000000002F
:1001D000000000000000000000000000000000001F
:1001E000000000000000000000000000000000000F
:1001F00000000000000000000000000000000000FF
:10020000354936480A1A02D0072291438D463449AF
:1002100034480A1A06D00722914381F30988022242
:1002200082F3148830483149314A00F044F83148AB
:100230003149324A00F03FF831483249324A00F041
:100240003AF832483249334A00F035F832483349F7
:10025000334A00F030F833483349344A00F02BF881
:1002600033483449344A00F026F8344834490022EF
:1002700000F02CF833483449002200F027F83348C6
:100280003349091A082902DB002202604160314A21
:1002900090471F481F49884205D00268043003B4C4
:1002A000904703BCF7E700208646EC46002000217B
:1002B000294A9047FEE7884207D0521A05D00378B2
:1002C00001300B700131013AF9D17047884202D0F8
:1002D00002700130FAE770470000042000E00320BC
:1002E0000000042000000420AC34000000000020C6
:1002F00034000020D0030000D0030000D82F0000FD
:10030000AC34000000000020000000202430000079
:10031000243000002430000024300000243000008D
:10032000243000002430000024300000AA340000F3
:10033000E0340000340000203400002034000020AD
:10034000F0060020F0060020F0060020F006002055
:10035000F02600209D030000A12B0000FEE7FEE731
:10036000FEE7FEE7FEE7FEE7FEE7FEE7FEE7FEE765
:1003700000F002B8FFF7FCBF0F484FF007018843B9
:1003800085460E4880470E48016841F470010160BF
:10039000BFF34F8FBFF36F8FFFF732BF09480A4992
:1003A0000A4A884207D0521A05D0037801300B70F0
:1003B0000131013AF9D1704700000420992C000066
:1003C00088ED00E024300000000000200000002044
:1003D000F0B595B01D46164608460C4601F044F8A7
:1003E0001A9B0D93CDE9086500252B460C2205A923
:1003F00020460A958DF82C500C9501F051F8079B7A
:100400000293069B03939DF814308DF8115003F06E
:100410000302012A1DD1BDF81420059DC3F3C203B8
:10042000C2F383168DF81030B2000C230EA92046BB
:1004300001F036F8C5F3952508AB0093324602ABC0
:100440000EA9284600F0EEFB204601F011F815B089
:10045000F0BD022AF8D1BDF81650C3F3C203C5F3AC
:1004600089158DF810300C27082D2E4628BF082638
:100470003B4632460EA9204601F012F8AD1B08ABF0
:1004800002AA31460EA8374400F030FC002DEBD113
:10049000DAE70000014B01221A7070477500002056
:1004A0007047000070B50E4D06460FCD88B06C4603
:1004B0000FC495E80F00002E84E80F00094A0A488F
:1004C0004FF0060308BF00226946009301F0E8F8E8
:1004D00008B100F083FC054B1E7008B070BD00BF72
:1004E00024300000950400000000002034000020AB
:1004F00007B5044B0093044A4023FFF769FF03B09C
:100500005DF804FB0D0500003500002038B50D48EE
:100510000D4C0E4D002323700378EB5CD2B263B117
:10052000043002F0E7F808B100F058FC084B1A78E4
:1005300012B12378002BFBD038BD0C3001F06AFEDD
:10054000F1E700BF00000020750000202C0600200D
:100550003400002008B50848084A0378D35C3BB152
:10056000043002F037F8BDE808400020FFF79ABFDA
:100570000C3001F0E7FDF6E7000000202C0600201B
:100580000120FFF78FBF000008B5FFF7F9FF04480F
:10059000042100F081FA034B01225A7108BD00BF0B
:1005A0000030000014000020037813F0040216D07D
:1005B00003F00303012B03D0022B09D00120704765
:1005C0000A6800880332C0F3831002440A60F5E72A
:1005D0000B684288033303EB92130B60EEE710467F
:1005E000704700002DE9F04FDFF810A10F4685B0ED
:1005F0000446C61C0020154600F046FCDAF804202C
:100600003A60DAF8083003F580739B1A0AF21C4747
:100610000AF583690AF21448B34219D30020002D69
:1006200067D004F00F039B0143F0050363F30F0051
:10063000DAF80430DAB2033233444AF822000020F8
:10064000CAF8043000F022FC012005B0BDE8F08FAC
:100650000121384600F03FFC484600F054FC40467B
:1006600000F051FCDAF808000090C0B203300AEB49
:1006700080006946FFF798FF009B08B1D8B2F5E704
:10068000DAB20AEB8202591CD2680192C9B20AEBB3
:10069000810102F003020333012AC96800931ED0CE
:1006A000022A24D1BDF80620C2F3891203324FEA90
:1006B000114B03EB92030093404600F027FC10B16E
:1006C000009BCAF808305946384600F004FCDAF8B6
:1006D0000830DAF8042003F580739B1A9CE7BDF814
:1006E0000420C2F383124FEA114B1344E3E783461D
:1006F000E2E7A40544F006009AE700BF48010020A5
:1007000038B50446084684B1094D00232B7000F02B
:100710004DFB0848C5F80C4400F05FFE044610B9D4
:10072000054800F0C7FE204638BD0724FBE700BFA0
:1007300048010020103000007830000030B50A4C2D
:1007400071B10A4A0A49121BD20800239A4201D108
:10075000002030BD31F82350854202D00133F5E747
:10076000034654F83300F4E7D82F000000300000AF
:1007700000000020094B013903EBC000032909D810
:10078000DFE801F00A020406042070470079704790
:10079000407970470020704702207047D82F000032
:1007A000034BD3E90130C31A58425841704700BF88
:1007B000480100202DE9FF41FFF7F2FF0546002820
:1007C00040F0EE80774CC4F81804BFF34F8FA36855
:1007D0000093DBB2033304EB83006946FFF7E4FECA
:1007E000009B50B1D4F818243AB962689A42F0D804
:1007F000A260284604B0BDE8F081591CC9B204EBE0
:100800008101DAB2C968029104EB8202991CD268B4
:100810000192C9B2033304EB8101009302F0030398
:10082000C9680391022B4CD1BDF806305E48C3F372
:100830008917502F3E4628BF502606F10C0166F35B
:100840008F13C1F30901ADF8063000F0DEFD054657
:10085000002800F0908000F007FE0C2201A9284635
:10086000002300F013FE0099C843C0B20130C9B2A2
:100870000331B6EB800F4FEA800204EB81011DD9F2
:100880005FFA82F80C23A6EB0806284600F0FEFD6E
:10089000F6B208F10C03454903F0FC033246284642
:1008A00000F0F4FD009B033703EB97070097D4F8A3
:1008B0001834002B3BD1D4F810644BE00C233246A3
:1008C000EDE7012B57D1BDF804303748C3F383114E
:1008D000062928BF062161F38913033101F00F01B6
:1008E0008900ADF8043000F090FD0546002842D0A4
:1008F00000F0BAFD00230C2201A9284600F0C6FD35
:100900000026BDF80420C2F38312B300964203F11F
:100910000C03CCD200994A1CC9B20331009204EBFB
:1009200081010422284600F0B1FD0136E9E728469E
:1009300000F09EFDFFF734FF80F00100C5B258E7DC
:10094000F3685B7923B1336829461B6830469847C2
:10095000F3681E68002EF3D1284600F089FD30466A
:1009600000F092FAD4F818340BB9009BA360002071
:1009700000F08CFADEE7D4F8104454B90C4B0D4863
:100980000D49C01AC008000440F0020000F064F8ED
:10099000D0E7236820469B689847E3681C68ECE72B
:1009A000002526E7480100201030000054010020F7
:1009B000D82F0000F82F0000613000002DE9F34728
:1009C00004460E46924601A9012218469946FFF7B1
:1009D00009FE1F4F50B3019D4FF00008EA1CC845A7
:1009E00008EB02012BD100211A4800F051FA80F3E4
:1009F00010006B1CDBB207EB8303000440EA1440D9
:100A0000D860E400D7F80C34984704F03804AB1CE5
:100A1000DBB2EDB244F0010407EB8303033544EA93
:100A2000881444EA8624D86047F825403B781BB1F7
:100A3000FFF7C0FE0028FBD102B0BDE8F087C9B2C5
:100A400007EB81015AF82830CB6008F10108C6E7AE
:100A5000480100206405002000231A46FFF7AEBFBE
:100A600007B50123019201AAFFF7A8FF03B05DF8C3
:100A700004FB7FB5CDE90023089B0293099B0393F8
:100A80000A9B04930B9B05936A460623FFF796FF88
:100A900007B05DF804FB000030B50F4CD4F810240B
:100AA00003460020114631B9D96808714AB9C4F823
:100AB00010340A6030BDC9680D79854206D00968D6
:100AC000F1E7D26814680C601360F3E701300A287C
:100AD000E8D14FF0FF30EDE74801002038B5084B72
:100AE0000125D3F810441D7004B938BDE3685D7169
:100AF000236820465B689847E3681C68F4E700BFFA
:100B000048010020F0B5C38887B005460E4633B1D2
:100B1000294A009229492A4A304600F051FA297A96
:100B2000052946D06B7A4BB1A888FFF723FE254BE9
:100B3000254953F82020304600F042FA234B2C6818
:100B40001B68B4FBF3F4224B1868B4FBF0F34FF4CA
:100B50007A7E00FB13444FF461610EFB04F4B3FB97
:100B6000F1F23C2701FB1231B4FBF0FCB1FBF7F3CF
:100B700000FB1C4407FB13110EFB04F40091B4FBB3
:100B8000F0F41449CDE901C4304600F019FA2A7A8C
:100B9000114BA88853F8222005920021FFF7CEFDC3
:100BA000059A0E490346304607B0BDE8F04000F014
:100BB00007BA07B0F0BD00BFA43000008C300000C1
:100BC000843000002C310000A93000000406002011
:100BD00000060020AC30000050310000C83000009A
:100BE00007B503460846197A052911D05B7A2BB15F
:100BF000094A0A49019000F0E3F901980849019077
:100C000000F0DEF9019803B05DF804EB00F0CDB917
:100C1000002AF8D0F2E700BFA4300000A93000009D
:100C2000A13000002DE9F04385B01F460C9D002344
:100C300095F80C902B7306460C469046294638468C
:100C4000FFF760FFB8F1060F09D8DFE808F00412DB
:100C5000181F283340003146284600F0B1F9002221
:100C600029463846FFF7BCFF85F80C9005B0BDE873
:100C7000F08322683146284600F0A2F9EFE7D4E974
:100C800000233146284600F09BF9E8E7A36800936B
:100C90003146D4E90023284600F092F9DFE7E36803
:100CA0000193A36800933146D4E90023284600F05D
:100CB00087F9D4E723690293E3680193A36800935B
:100CC0003146D4E90023284600F07AF9C7E7636982
:100CD000039323690293E3680193A3680093314669
:100CE000D4E90023284600F06BF9B8E708292DE97C
:100CF000F74F80460E4617461C463DD800251B7B05
:100D00002573214610460193FFF7FCFEDFF88CA007
:100D1000DFF88CB0AE4232D918F80520594620468B
:100D200000F04EF90135082DF4D11B49DFF874A00D
:100D3000DFF874B0204600F043F94FF000094E454B
:100D400024D918F809507E2D1ED8284602F0E6F85E
:100D5000002814BF2A462E225946204600F030F9BA
:100D600009F10109B9F1080FE9D1012221463846FC
:100D7000FFF736FF019B237303B0BDE8F08F5146A8
:100D8000204600F01DF9CDE72E22E5E7514620462A
:100D900000F016F9E4E700BFDC300000D8300000B6
:100DA000D2300000DA300000DE300000084A10B512
:100DB0000123084C13600021A04204D801B1136044
:100DC000054B186010BD40085B000121F4E700BF2F
:100DD0000406002040420F00000600201FB500213D
:100DE000039001AA44F20100CDE9011100F004F8DA
:100DF00005B05DF804FB000038B572B6FFF76EFE73
:100E0000FFF7D8FC0028FBD1104B114C114D1249B3
:100E1000E41AE408240444F00100FFF71DFED5F8AD
:100E2000F030DB0700D500BE0C4944F00200FFF7AC
:100E300013FEBFF34F8FEA68094B02F4E0621343DD
:100E4000EB60BFF34F8F00BFFDE700BFD82F00005E
:100E5000F82F000000ED00E0643100007031000068
:100E60000400FA0572B6024A136801331360704732
:100E700008060020034A1368013B136003B962B6F9
:100E8000704700BF08060020FFF7ECBFFFF7F2BF76
:100E900010B5034653E8000F0A4643E8002494F0D7
:100EA000000FF7D110BD10B5034653E8002F42EAFA
:100EB000010043E8000494F0000FF6D110BD10B516
:100EC000034653E8000F00EA010243E8002494F0CF
:100ED000000FF6D110BD10B5034653E8002F02EB0A
:100EE000010043E8000494F0000FF6D110BD10B5E6
:100EF000034653E8002FA2EB010043E8000494F0FE
:100F0000000FF6D110BD0121FFF7CDBF0021FFF783
:100F1000D6BF10B590B1D0E9012301689B1ADBB2AE
:100F20000A60013BDBB2FF2B026802D10020107186
:100F300010BD11684C1C14600B70F2E70E20F7E72F
:100F400038B504460020FFF79FFF226863681168E8
:100F5000994213D9481E106011F8013CE568218AB6
:100F600001FB0355A36811791B1ADBB2994200D229
:100F700013710020FFF78AFF284638BD0025F8E7E7
:100F800038B5054600200C46FFF77EFF2A68136837
:100F9000591C1160E968641A298AB4FBF1F41C70C9
:100FA000BDE838400020FFF771BF826810B50446E5
:100FB0002AB143690168006998470023A36010BD06
:100FC0000EB403B5039921B104AB01AA019300F05B
:100FD00077F802B05DF804EB03B070470A2938B522
:100FE00004460D4602D10D21FFF7F8FFA3682268E1
:100FF000591CA160D554D4E901329A4204D3204649
:10100000BDE83840FFF7D1BF38BD00002DE9F84FEB
:101010009846DDE90A43154682460F460A464FF0D8
:101020000109AA420FD2C14538BFC14613F0010BD6
:1010300001D16CB900240126B8F1010F1BD908F1C8
:10104000FF386E43F8E709F10109B2FBF5F2E8E772
:101050009B070ED5B8F1000F0CBF30262026A14506
:10106000E9D2013C31465046FFF7B8FF002CF6D1DB
:10107000E0E72026F3E7B7FBF6F39D42E1D9DFF87E
:101080003C80B7FBF6F3504618F8031006FB1377C5
:10109000FFF7A4FF3346AB42B6FBF5F6F1D2BBF146
:1010A000000F02D00CB1A14501D3BDE8F88F20217B
:1010B0005046013CFFF792FFF4E700BF7D3100008E
:1010C0002DE9F74F054617468846002900F03E8176
:1010D00018F8011B49B92B7B002B00F037812846FB
:1010E00003B0BDE8F04FFFF760BF252940F0B7809F
:1010F000002698F800302D2B424608F1010823D035
:10110000302B24D02B2B25D000242A2B02F10101D7
:1011100023D13B681A1D1B683A601C440A461378A9
:101120002E2B26D101324FF0000A104610F8011B79
:10113000A1F1300CBCF1090F1DD80A2303FB0A13DF
:10114000A3F1300A0246F0E746F00106D1E746F087
:101150000206CEE746F00406CBE711F8013CA3F106
:1011600030000928DBD80A2202FB0434303C0A464E
:10117000CBE74FF0000A12F8011B01F0FB006828D2
:101180009046F8D0782909D86F290CD8632962D005
:1011900022D8252963D0582900F0888098F800309B
:1011A000002B95D197E770390829F7D801A353F898
:1011B00021F000BF271300009D1100009D110000C9
:1011C000BD1200009D1100009B1200009D11000047
:1011D0009D110000AD120000642901D06929DDD104
:1011E0003A68D2F80090111D89EAE9723960A2EBE1
:1011F000E9724FF0010B092A35DCD34538BFD346DD
:101200002CB1B9F1000F01DB720700D5013CB30727
:1012100002D5BAF1000F03D0F00701D44CBB002473
:10122000B9F1000F2DDAC9F100092D212846FFF789
:10123000D5FE06F00302022A04D1BAF1000F01D153
:101240001CBB0024CDE9004653460A2249462846E5
:10125000FFF7DCFEA2E73B681A1D19783A602846C2
:10126000FFF7BCFE9AE70A230BF1010BB2FBF3F286
:10127000C1E7A345D4D220212846013CFFF7AEFEAA
:10128000CCE77107D5D52B21D0E7A345DAD23021A1
:101290002846013CFFF7A2FED2E73968CDE90046B7
:1012A0000A1D3A6053460A220968D0E739680A1DC8
:1012B0003A60CDE9004653461022F5E73B681A1D17
:1012C0003A6016F00106D3F8009024D1B9F1000F6E
:1012D00003D0484601F050FE0646B4421DD809F13D
:1012E000FF3919F8011F00293FF458AF2846FFF7CE
:1012F00075FEF6E728460136FFF770FE19F806106E
:101300000029F7D1A642BFF449AF20212846013C6D
:10131000FFF764FEF6E70026F0E720212846013CAF
:10132000FFF75CFED9E73B681A1D3A60302128467A
:101330001C68FFF753FE78212846FFF74FFE002276
:101340000823CDE900322146102280E703B0BDE832
:10135000F08F00BF2DE9F84FB0F806A04579D2F81C
:1013600000B09DF828900AFB05F5043D88460BEB7C
:101370000301A94203F1040488BFA5EB030BB4FBEE
:10138000FAF607460AFB1644C2F800B04EB9AAEBBB
:1013900004055D4528BF5D46BBF1000F04D1BDE8E3
:1013A000F88F3F68013EF1E7043408EB06003C4447
:1013B0002A46B9F1000F0DD02146ABEB050B01F029
:1013C000B2FDDA452E443F6855464FF0000428BF71
:1013D0005D46E1E701462046EFE7FFF79ABDF8B525
:1013E00046790146721E0546002393422D6803D3B9
:1013F0000024A64202D8F8BD0133F6E70F6828465C
:10140000FFF7BEFD01343946F3E72DE9F843068ABC
:10141000CD1C0746FFF794FD043E35440446B5FB5A
:10142000F6F5F0B14FF48073EDB28380C680013DD4
:10143000076081464FF00008A84512D23846FFF7F2
:101440007FFD064648B163790133637108F10108F5
:10145000C9F8000007608146EEE72046FFF7BFFFAE
:1014600034462046BDE8F88301210430FFF733BD40
:1014700010B5012104460430FFF739FDC0B220B990
:101480002046BDE81040FFF7AABF10BD1FB503926C
:101490000022009203AAFFF75DFF05B05DF804FB90
:1014A0001FB503920122009203AAFFF753FF05B074
:1014B0005DF804FB836800225A60C3E904229A6045
:1014C000DA601A60704700001FB503788DF80030AD
:1014D0008388ADF8043083688DF80630C3688DF8D2
:1014E0000730036902934369054A0393054B684635
:1014F00053F8213052F82110984705B05DF804FBED
:101500000C06002014060020024B4FF4807043F0BC
:1015100001031847903100001F2886BF054A00F0DC
:101520001F004FF0A042012303FA00F0C2F80805A3
:10153000704700BF000300502DE9F047154690F8B2
:101540000080394A42F82850384A42F828304B7B0C
:1015500006460C46A3B30868DFF8D8904FF0A041C8
:1015600000F5E07340F20C6241F82320636803F554
:10157000E073002741F82320FFF7CEFF6068FFF7F4
:10158000CBFF236803F5E07340F20D6241F823209E
:10159000636803F5E0734FF0010A41F82320FFF779
:1015A000B3FF63681F2B8ABF4A464FF0A04203F087
:1015B0001F03D2F8102522FA03F3DB070BD507BB74
:1015C000002D1B4A434608BF2A462146301DBDE870
:1015D000F04700F0D5B923681F2B86BF03F01F0327
:1015E0004A464FF0A0420AFA03F3C2F80C35FFF75F
:1015F0008BFF01372068FFF78FFFFFF785FF092F6B
:10160000CFD163681F2B86BF0A4903F01F034FF039
:10161000A041012202FA03F3C1F80C35FFF774FF71
:101620006068FFF779FFCBE7140600200C06002066
:10163000C9140000000300501FB503788DF8003076
:101640004368019383688DF80830C368054A0393A3
:10165000054B684653F8213052F82110984705B0E1
:101660005DF804FB1C060020240600201FB503784B
:101670008DF800304368019383688DF80830C368A3
:10168000054A0393054B684653F8213052F8211060
:10169000984705B05DF804FB1C06002024060020D6
:1016A000F0B5194B90F800C0DFF86CE043F82C203F
:1016B000164B16460A6943F82C204B7F0EF80C3067
:1016C0000C4607460FCC89B06D460FC594E80F0055
:1016D00085E80F003B78CDF810C01EF803304BB101
:1016E000002E0B4A694608BF3246381D00F096FEB0
:1016F00009B0F0BD002E074A694608BF324607F11F
:101700000C0000F04FFCF3E7240600201C0600202C
:10171000391600006D1600002C060020014B1B68D6
:10172000184700BF3006002038B50B4B98420C46D6
:1017300001D0002038BD0020FFF7A6FB074B1D7924
:1017400015B901221C601A710020FFF79FFB002DC4
:10175000EFD01120EEE700BF00200040300600204F
:10176000034B984201BF034B00221A601A71704765
:1017700000200040300600200023435082B0435830
:101780000193019B02B070470B7B032B2AD8DFE843
:1017900003F022261A028B685A0304D5D0F84C3580
:1017A0000A699A4207D18B685B031BD4D0F84C3589
:1017B0004A699A4216D000230622C0F80035C0F8C4
:1017C000002518467047D0F84C350A699A42F2D184
:1017D000D0F83C35ECE7D0F84C350A69E9E7D0F8A9
:1017E0003C35FAE701207047F0B5D0F8243187B0D6
:1017F00004460D46EBB14FF49271FFF7BDFFD0F8F0
:101800000431B3B9AB68C0F808330223AB60AB68EE
:10181000C0F80433D0F860311BB1D0F800329B051A
:1018200002D4012323626361012385F82E3007B0BF
:10183000F0BDD4F80431002B41D04FF48271204622
:10184000FFF79AFF2B6A5F0609D495F82E3033B95B
:101850002946FFF799FF80F0010085F82E002B6ADA
:101860005E073ED405F10C070FCF01AE0FC63B68F3
:1018700033604FF4B0712046FFF77EFF4FF4AE7136
:10188000FFF77AFF95F8303013B195F82E3043B357
:101890000023C4F80032AB602F4BC4F8083344F384
:1018A0000733002B4FEA14321BDB02F01F015B09E8
:1018B00001228A406033294941F8232011E04FF486
:1018C000A4712046FFF758FF2B7B23BB05F10C07C3
:1018D0000FCF01AE0FC63B68336095F83030002B58
:1018E000D7D0D4F8C434C4F8C434980725D501231C
:1018F0008DF8003095F830300BB985F82F302B6A11
:101900005B0703D595F82E30002B90D0D5E9003138
:10191000684698478BE74FF40073C4F8003240F2F2
:101920000223AB6003F1CE73C4F80833AB68C4F88C
:1019300004330123A360236279E7590701D5022309
:10194000D6E7DA0701D50323D2E795F82E30002B2E
:10195000CED00423CCE700BF02029C0100E100E0EE
:1019600001490248FFF740BF380600200030004020
:1019700002494FF04020FFF737BF00BF6C06002040
:101980002DE9F84F06793A4D4FF0340A0AFB06FA72
:1019900005EB0A079B4697F82D3080460C4691468A
:1019A000002B61D1334B006853F82610FFF7BCFEC3
:1019B00000285BD12168637B87F832301F298CBFF8
:1019C00001F01F030B4603F5E07388BF2A4AB86095
:1019D00098BF4FF0A04240F20C6C87F82F0042F8FD
:1019E00023C06268C7F804B01F2A8CBF02F01F032F
:1019F000134687F8300003F5E07388BF1E4F45F8A3
:101A00000A9098BF4FF0A04747F823C0D8F800309D
:101A1000C3F80815C3F80C25A268C3F82425B9F14A
:101A2000000F14D0227B43F3073152010029C3F386
:101A30000733D2B213DB114C671887F80023012259
:101A4000490903F01F0302FA03F344F82130342359
:101A500003FB0655012385F82D30BDE8F88F0849B2
:101A600003F00F03CA54F2E70820F6E71120F4E769
:101A700038060020A03100000003005000E100E023
:101A800014ED00E0036802790621C3F80015044B49
:101A9000342101FB0233022283F82D20704700BF5E
:101AA000380600202DE9F843DFF8C88290F804904A
:101AB0000468342606FB0986002386F82E30CB689E
:101AC00003F06043B3F1005F0D46174603D01026C4
:101AD0003046BDE8F883A64BC4F8083396F82F309B
:101AE00023B1B368C4F804331126F1E712F0140FE0
:101AF0000CBF0123002386F82F308E46BEE80F006E
:101B000006F10C0CACE80F00DEF80030CCF8003029
:101B1000C7F3001386F8303037626B78C4F8883525
:101B200020464FF48271FFF727FE4FF49271FFF7C2
:101B300023FE4FF4B071FFF71FFE4FF4A471FFF7BF
:101B40001BFE17F0010318BF0123C4F8503517F02E
:101B5000020318BF0123C4F840352B78032B00F291
:101B6000B580DFE803F084A069022B6903F06043CD
:101B7000B3F1005FABD14FF48073C4F80032EA6870
:101B80006B68C4F844254FF4A871C4F84835FFF7D2
:101B9000F3FD01232362A360D4F85031002BFBD066
:101BA0004FF4A8712046FFF7E7FDAB682A69C4F837
:101BB0004425C4F84835342303FB09834FF48022BD
:101BC0009A60082300263A0704D42A78032A1CBF07
:101BD0000122E250342303FB09F308EB030258F817
:101BE0000330002B75D10125D4F84821D4F80431F5
:101BF000002B40F08980003A18BF0122D4F824312C
:101C0000002B00F088804FF492712046FFF7B4FD5E
:101C1000D4F86011D4F8003209B1980504D42562D3
:101C200065610029E0D00022D90574D54FF4A47174
:101C30002046FFF7A1FDD7E76B68EA68C4F84425A2
:101C4000C4F848352B6903F06042B2F1005F7FF4BD
:101C50003EAFAA68C4F834354FF48453C4F838252D
:101C6000C4F80032342303FB0983022212E06B68BC
:101C7000EA68C4F8442517F0200FC4F848354FF03F
:101C800034030BD04FF48072C4F8002203FB0983A5
:101C90004FF480229A600123236292E74FF400728E
:101CA000C4F80022DFE76B68EA68C4F83425C4F89A
:101CB00038354FF48053C4F80032342303FB0983D2
:101CC00002229A600123236200237BE70823072670
:101CD00079E77B0744BF002393607D0606D4342355
:101CE00003FB09839A6842F002029A60342303FBE3
:101CF0000988D8F8083043F40073C8F80830D8F8D9
:101D00000830C4F80433E3E64FF482712046FFF74D
:101D100033FD012272E7002A3FF466AF3421D4F884
:101D2000C434C4F8C43401FB0982002082F82F00B7
:101D300093B113F0010F14BF4FF40246032648F28B
:101D4000012213F0020F18BF164613F0040F48F2D9
:101D5000022318BF1E46BBE67B063FF5B9AE09FB62
:101D600001812046FFF710FD002808BF0326AFE6DB
:101D700002029C013806002010B586B00024CDE98F
:101D800002349DF820308DF80510A342CDE90424DB
:101D900001A914BF202222468DF80440FFF782FEDD
:101DA00006B010BD10B586B0012402930023CDE922
:101DB00003328DF805101A4601A98DF804400593E9
:101DC000FFF770FE06B010BD0023435082B04358A9
:101DD0000193019B02B070470A4610B54FF48E7113
:101DE000FFF7F2FF136A9168C95C136A013313624B
:101DF000C0F81C1510BD8B690A4610B54FF48471EC
:101E000023B9FFF7E1FFD0F8183510BDFFF7DCFF6D
:101E1000536AD168D0F81805C854536A0133536225
:101E2000F3E700001FB501238DF80030044BCDE926
:101E30000110D3E900126846904705B05DF804FB35
:101E4000A006002030B54D4DD5F804339A0585B075
:101E500051D5D5F82431002B4DD04FF4927128463E
:101E6000FFF7B2FF4FF40173C5F80833444B93F802
:101E700029200AB901226A60404902228DF8002017
:101E8000D1F88024C1F8802403929A690292DA681A
:101E900001920022C3E906226846D3E90012904766
:101EA0003648D0F81C315BB1354A5169136A994202
:101EB0004DD992F82830002B49D11146FFF78CFFFD
:101EC0002E48D0F84431002B56D04FF4A271FFF7C2
:101ED0007BFF2B4B93F829200AB1012202609A69FB
:101EE000002A49D0586AD96800229A6105B0BDE835
:101EF0003040FFF797BFD5F804335B07D0D5D5F84E
:101F00000831002BCCD01E4C1C482146FFF773FF34
:101F1000636AA2699A42C3D1E369E1684BB1A361E4
:101F20002369E3600023606AE3616362FFF77AFF7D
:101F3000B6E794F829300BB901236B600F4B4FF4CF
:101F40000172C3F808230023606AA361EEE70B481F
:101F50004FF48E71FFF738FF5369002BB0D05169F1
:101F60000291002391688DF8003001915361684619
:101F7000D2E900139847A3E705B030BD0020004028
:101F8000A00600201F2886BF00F01F00044B4FF062
:101F9000A04300F5E070022243F82020704700BF04
:101FA000000300502DE9F843604D90F804802C2385
:101FB00003FB0853064693F82A300C469146002B43
:101FC00040F0AF805A490068FFF7AEFB0746002893
:101FD00040F0A9802268531C10D01F2A87BF5549A2
:101FE00002F01F0313464FF0A0410120984003F573
:101FF000E073C1F80805032041F823006168481C1C
:102000000DD01F298BBF01F01F030B4649484FF02D
:10201000A04003F5E0734FF0000C40F823C0306897
:10202000A369C0F8243594F814C0637DBCF1010F96
:102030004CEA0303C0F86C35C0F81415C0F80C2541
:102040002BD1A368591C0DD01F2B8BBF03F01F028F
:102050001A4638494FF0A04102F5E0724FF0000CEB
:1020600041F822C0E1684A1C13D01F2987BF314ABA
:1020700001F01F0C8C464FF0A0424FF0010E0EFAFB
:102080000CFE0CF5E07CC2F808E54FF0030E42F8B8
:102090002CE0C0F80815C0F810352C2202FB08F21D
:1020A000AB18C3F804902369AB50B9F1000F20D0EE
:1020B0004FF48E71247FFFF787FE4FF4A2713068D2
:1020C000FFF782FE32681C4BC2F80433130B42F355
:1020D00007326101002AC9B21EDB1848841884F84F
:1020E00000130121520903F01F0301FA03F340F822
:1020F000223033680422C3F800252C2303FB085345
:102100000022C3E9062283F829205A61012283F8BC
:102110002A203846BDE8F883094A03F00F03D1545A
:10212000E7E70827F5E71127F3E700BFA00600203F
:10213000451E0000000300508000020000E100E0A6
:1021400014ED00E02DE9F04103680579284C0022E8
:10215000C3F800252C2202FB054201465268A2B1B9
:10216000244AC3F808231A0B43F30733002B0CDB74
:1021700002F01F005B090122824020331E4840F814
:102180002320BFF34F8FBFF36F8F0B68D3F80C057D
:10219000D3F81485D3F80865D3F810754FF0FF32E3
:1021A0009042C3F81425C3F80C25C3F80825C3F8DA
:1021B000102501D0FFF7E6FEB8F1FF3F02D0404600
:1021C000FFF7E0FE7A1C02D03846FFF7DBFE731CF7
:1021D00002D03046FFF7D6FE0868FFF7C1FA2C237D
:1021E00003FB0544002384F82A306360BDE8F081D6
:1021F000A00600208402020000E100E00279044B06
:102200002C2101FB02335869003818BF01207047A8
:10221000A00600202DE9F84F064690F80480894674
:102220009246FFF7EBFF044600283CD1204F2C25B7
:1022300008FB057B4FF48E71CBF814A0CBF8089007
:10224000CBF820008BF828003068FFF7BDFD306820
:10225000012383605946FFF7BFFDDBF804305D467C
:102260001BBB3068DBF814402B6A9C4211D83368E2
:10227000D3F81C21002AFBD00122DA6000202C2395
:1022800003FB087700237B61BDE8F88F95F82830C1
:102290003BB9D0F81C31002BF8D05946FFF79CFD14
:1022A000E2E70F20EBE71120EEE72046ECE700BF66
:1022B000A00600200023435082B043580193019BA5
:1022C00002B070471FB501238DF80030044BCDE9F3
:1022D0000110D3E900126846904705B05DF804FB91
:1022E000CC0600207FB5434AD2F82461002E60D08E
:1022F00010464FF49271FFF7DDFF02238DF8003096
:10230000D2F88034C2F880340393D2F83C3502937B
:10231000394BDA6801920022C3E906226846D3E904
:10232000001290473348D0F8443173B14FF4A27192
:10233000FFF7C0FF304B9A693AB10022C3E9062289
:10234000D968D0F83C05FFF7BDFF2A48D0F8203106
:10235000ABB14FF49071FFF7ADFF0123C360264B83
:102360005A6962B1D0F84C150291002299688DF833
:10237000002001915A616846D3E9001290471D4838
:10238000D0F858319BB14FF4AC71FFF793FF1A4B63
:102390005A6962B1D0F84C150291002299688DF803
:1023A000002001915A616846D3E90012904704B0B9
:1023B00070BDD2F81031002BB4D04FF488711046A4
:1023C000FFF778FF0C4BD2F83C0599698842A9D1F8
:1023D000DC69D96864B1D2F8005225F02005C2F852
:1023E00000521A699C61DA60DE61FFF76BFF99E7C2
:1023F0009C61FAE700200040CC0600201F2886BF21
:1024000000F01F00044B4FF0A04300F5E0700222E3
:1024100043F82020704700BF000300502DE9F84327
:10242000664E90F80480242303FB0863044693F867
:1024300020300D469146002B40F0BC80604900687A
:10244000FFF772F90746002840F0B68029684B1C58
:1024500010D01F2987BF5B4A01F01F030B464FF0C6
:10246000A0420120984003F5E073C2F8080503205C
:1024700042F823006A68501C0DD01F2A8BBF02F05F
:102480001F0313464F484FF0A04003F5E0734FF091
:10249000000C40F823C02068AB69C0F8243595F8DB
:1024A00014C06B7DBCF1010F4CEA0303C0F86C351E
:1024B000C0F80C15C0F814252BD1AB68591C0DD0F1
:1024C0001F2B8BBF03F01F021A463E494FF0A0415D
:1024D00002F5E0724FF0000C41F822C0E9684A1C96
:1024E00013D01F2987BF374A01F01F0C8C464FF0CD
:1024F000A0424FF0010E0EFA0CFE0CF5E07CC2F883
:1025000008E54FF0030E42F82CE0C0F80815C0F8BB
:102510001035242202FB08F2B318C3F804902B698B
:10252000B350B9F1000F2FD04FF488712A7FFFF715
:10253000C1FE20684FF49071FFF7BCFE20684FF495
:102540009271FFF7B7FE20684FF4A271FFF7B2FE59
:102550004FF4AC712068FFF7ADFE23681A49C3F849
:102560000413190B43F307335201002BD2B21CDBC7
:102570001648C51885F8002301225B0901F01F01E8
:1025800002FA01F140F8231023680822C3F800255D
:10259000242303FB08660023C6E906337361012385
:1025A00086F820303846BDE8F883094B01F00F016A
:1025B0005A54E9E70827F5E71127F3E7CC0600208E
:1025C000E5220000000300501003420000E100E09B
:1025D00014ED00E02DE9F0413D4D06790468242317
:1025E00003FB065302465B68ABB13A4BC4F80833B1
:1025F00044F30733002B4FEA14310CDB01F01F00CA
:102600005B09012181402033334840F82310BFF398
:102610004F8FBFF36F8FD4F8003223F02003C4F83C
:102620000032242303FB06539B6933B14FF4A2719C
:102630002046FFF73FFE012363604FF4AC71204654
:10264000FFF738FE0123E360242303FB0653D4F88D
:1026500058110029FBD0996919B1D4F84411002907
:10266000F5D00023C4F800351368D3F80C05D3F86F
:102670001485D3F80815D3F810754FF0FF32904247
:10268000C3F80C25C3F81425C3F80825C3F8102592
:1026900001D0FFF7B3FEB8F1FF3F02D04046FFF78D
:1026A000ADFE7A1C02D03846FFF7A8FE4B1C02D0C4
:1026B0000846FFF7A3FE2046FFF752F8242303FB4A
:1026C0000655002385F820306B60BDE8F08100BF1F
:1026D000CC0600201003420000E100E00279044B28
:1026E000242101FB02335869003818BF01207047CC
:1026F000CC06002001F06043B3F1005F2DE9F04704
:102700000646884692463BD190F80490FFF7E6FFD4
:102710000446002836D11D4F3068242505FB097575
:102720004FF49071C5F814A0C5F80880FFF7C2FDFA
:102730004FF4AC713068FFF7BDFD33686A69A96872
:10274000C3F84415C3F8482501229A606A68DAB9CB
:10275000D3F82021D3F858011AB90028F8D00F2057
:1027600007E00028FBD10122DA60D3F85821002AC3
:10277000FBD0242303FB097700237B61BDE8F087AE
:102780001020FBE71120F9E72046F7E7CC060020F0
:10279000014BD3F8040570470010014038B5054DD2
:1027A000044645F001054FF47A40A847013CFAD1B0
:1027B00038BD00BF503200001FB50B0C8DF809303A
:1027C0000B0A8DF808008DF80A300D480D4B8DF876
:1027D0000B10C01AC00800040A4640F003000A4962
:1027E000FEF73EF9FDF7E6FF0028FBD10090052338
:1027F00002AA58210548FFF7BFFA05B05DF804FBAF
:10280000F82F0000D82F0000B33100005C32000028
:1028100010B586B001238DF80F0000930D480DF11F
:102820000F025821FFF7A8FA044688B90948032384
:1028300005AA5821FFF7B6FA38B9BDF8144064BAB2
:10284000A0B29DF8164044EA0024204606B010BD10
:102850000024FAE75C32000038B54FF0A0444FF492
:102860008015C4F80C553220FFF798FFC4F80855BE
:1028700038BD0A20FFF792BF2DE9F3411D46234BD7
:10288000234C16461A88ADF8002000238DF802303C
:102890008DF806301F4BADF80420E41AE408240438
:1028A00044F0030480460F466A461B492046FEF763
:1028B000D7F8FDF77FFF0028FBD1330A17498DF8C1
:1028C00001306A4620468DF80260FEF7C9F8FDF730
:1028D00071FF0028FBD169464046FFF76DFF2B0AC8
:1028E0000F498DF8053001AA20468DF80650FEF7F5
:1028F000B7F8FDF75FFF04460028FAD1384601A972
:10290000FFF75AFF204602B0BDE8F08148320000D0
:10291000F82F0000D82F0000BA310000C3310000AA
:10292000C83100002A20FFF773BF2B20FFF770BFCC
:102930002C20FFF76DBF2D20FFF76ABF2E20FFF779
:1029400067BF2F20FFF764BF07B5084B8DF806005F
:102950001B88ADF8043001A9030A1D208DF805304D
:10296000FFF72AFF002003B05DF804FB48320000A7
:1029700008B5002240F28F130A210920FFF77CFFDF
:1029800040F28F13502202210120FFF775FF40F221
:10299000971340F2911216211520FFF76DFF40F2B8
:1029A000BB534FF4CC720E210D20FFF765FF40F2B0
:1029B0001F334FF4C87237213620FFF75DFF40F216
:1029C0001F334FF4F07206210520FFF755FF40F248
:1029D000C35340F2BD5218211720FFF74DFF40F6B8
:1029E000E71340F2C45210210F20FFF745FF40F2D9
:1029F000AF434FF4487204210320FFF73DFF40F23C
:102A0000AF434FF45C7208210720FFF735FF40F613
:102A1000EF1340F6E9121A211920FFF72DFF40F6B7
:102A200013634FF41F6212211120FFF725FF40F2BC
:102A30003E6340F2FF420C210B20FFF71DFF40F6E2
:102A40001B6340F615621C211B20FFF715FF41F2A6
:102A50003F2340F61C6214211320FFF70DFF49F6B7
:102A60001F1341F25F5233213220FFF705FFBDE80B
:102A7000084049F63F40FFF767BF00001FB51B2223
:102A80001A23CDE900234FF0CC710223CDE90213C4
:102A900000230C481A466946FEF74EFD044608B16D
:102AA000FEF79CF90848094B09491B1ADB081B046F
:102AB00043F003002246FDF7D3FF0648FEF7E2FF8E
:102AC00004B010BD58320000D82F0000F82F0000CD
:102AD000CD3100005C32000010B52DED068B84B0C6
:102AE000FFF7C7FEFFF71EFF09EE900AFFF7C1FED2
:102AF000FFF71BFF0AEE100AFFF7BBFEFFF718FFF8
:102B000008EE100AFFF7B5FEFFF715FF08EE900A72
:102B1000FFF7AFFEFFF712FF09EE100AFFF7A9FE5D
:102B2000FFF70FFF07EE900AF8EE677AB8EE4AAAB1
:102B3000FCEEE77A174B184CCDED037AF8EE699A64
:102B4000FCEECA7AB8EE499AF8EE688AB8EE488A7E
:102B5000E41ABCEEC99AFCEEE88ABCEEC88A17EE0D
:102B6000903AE408FCEEE97A240417EE902A0B4927
:102B70008DED029ACDED018A8DED008A44F00300BF
:102B8000FDF777FFFDF716FE0028FBD104B0BDEC82
:102B9000068B10BDD82F0000F82F0000D3310000A5
:102BA00037B527480021FDF7ABFD08B1FEF716F950
:102BB000FDF7EAFC4FF0A0430322224CC3F8502754
:102BC000214B2249E41AD440240414432046FDF743
:102BD00043FFFDF7EFFD0028FBD1FFF74FFF0DF19D
:102BE000070258211A480123FFF7DCF81949054666
:102BF00058222046FDF734FFADB917495822204628
:102C0000FDF72EFFFFF728FE6420FFF7C7FD4FF406
:102C1000FA70FFF7C3FDFFF7ABFEFFF75DFF64201F
:102C2000FFF7BCFDF9E7FDF7C5FD0028FBD10B4917
:102C30002046FDF711FFFDF7BDFD0028FBD1FEE7A3
:102C400091270000F82F0000D82F0000E33100008A
:102C50005C320000F8310000063200003332000020
:102C60004FF08053D3F83001A0F108035842584187
:102C7000704700004FF08053D3F83021082A06D166
:102C8000D3F83431032B02D8024AD05C70470020BD
:102C9000704700BF6832000008B5FFF7E1FF40B1A0
:102CA0004FF080430022C3F80C21C3F81021C3F871
:102CB0003825FFF7D5FF002846D04FF08052614BF2
:102CC000D2F80414C3F82015D2F80814C3F8241558
:102CD000D2F80C14C3F82815D2F81014C3F82C1528
:102CE000D2F81414C3F83015D2F81814C3F83415F8
:102CF000D2F81C14C3F84015D2F82014C3F84415B8
:102D0000D2F82414C3F84815D2F82814C3F84C1587
:102D1000D2F82C14C3F85015D2F83014C3F8541557
:102D2000D2F83414C3F86015D2F83814C3F8641517
:102D3000D2F83C14C3F86815D2F84014C3F86C15E7
:102D4000D2F84424C3F87025FFF794FF18B13E4B26
:102D50003E4AC3F88C26FFF78DFF18B13C4BFB228F
:102D6000C3F81825FFF786FF70B14FF080414FF090
:102D70008053D1F8E42ED3F8583222F00F0203F03A
:102D80000F031343C1F8E43EFFF774FF20B1314B4A
:102D90004FF40072C3F84026FFF762FF48B14FF0CE
:102DA0008043D3F80024D20744BF6FF00102C3F878
:102DB0000024294AD2F8883043F47003C2F88830DE
:102DC000BFF34F8FBFF36F8F4FF01023D3F8002264
:102DD000002A03DBD3F80432002B2EDA1F4B01222A
:102DE000C3F80425D3F80024002AFBD04FF01022AA
:102DF0001221C2F80012D3F80024002AFBD04FF0B1
:102E000010231222C3F80422144BD3F80024002A02
:102E1000FBD00022C3F80425D3F80024002AFBD0FD
:102E2000BFF34F8F0C490E4BCA6802F4E0621343A4
:102E3000CB60BFF34F8F00BFFDE70A4B0A4A1A6011
:102E400008BD00BF00C000400050004048810300A2
:102E500000F000400090024000ED00E000E0014082
:102E60000400FA051C0000200090D0037F2805D83C
:102E7000034B185C034B5B5C1840704700207047A5
:102E800078320000F8320000A0F16103192B98BFDE
:102E900020387047A0F14103192B98BF20307047AC
:102EA0007F2805D8034B185C034B5B5C18407047C8
:102EB0000020704778320000F8320000A0F1610372
:102EC000192B98BF20387047A0F14103192B98BFE8
:102ED000203070477F299ABF017001206FF02E00CB
:102EE00070475AB10A787F2A0AD800B102600021DF
:102EF00019605960501A18BF0120704700207047B0
:102F00006FF02E007047000008B5034B5B689B68AC
:102F10001B68984708BD00BF2000002008B50921A4
:102F2000FFF7F2FF08BD844640EA010313F0030FE8
:102F300018D18446202A0BD32DE9F007B1E8F80711
:102F4000A0E8F807A2F12002202AF7D2BDE8F00796
:102F5000042A07D351F8043B40F8043BA2F10402D1
:102F6000042AF7D2002A05D011F8013B00F8013BF2
:102F7000013AF9D16046704700F1010110F0030FEA
:102F800011D010F8012B002A23D010F0030F0AD023
:102F900010F8012B002A1CD010F0030F03D010F8FA
:102FA000012B002A15D02DE970004FF001324FF0AF
:102FB000803350F8044BA4EB020525EA04051D40BC
:102FC00000D1F6E7A0F1040070BC10F8012B002A34
:082FD000FBD1A0EB01007047EA
:102FD80096310000000000009A3100000000000057
:102FE800A831000000000000AD3100000000000022
:082FF800723000000000030329
:103000004430000000000000503000001400002098
:1030100078000020400100204801002080000020AE
:043020001800000094
:10302400FFFFFFFFFFFFFFFFFFFFFFFFFFFFFFFFAC
:1030340000000000000000000000D60106010000AE
:10304400F104000055050000A104000075617274CC
:103054005F6C6F675F6261636B656E64004261639E
:103064006B656E647320666C75736865640061706B
:1030740070000000680500207F000000E8050020C3
:103084001B5B313B33316D0025734C6F67732064D8
:10309400726F70706564202825642925730D0A00F9
:1030A4001B5B306D002573005B253032643A25309C
:1030B40032643A253032642E253033642C25303383
:1030C400645D20003C25733E2025733A20002025B2
:1030D40030327800202020007C002563001B5B3107
:1030E4003B33306D001B5B313B33326D001B5B3176
:1030F4003B33336D001B5B313B33346D001B5B3161
:103104003B33356D001B5B313B33366D001B5B314C
:103114003B33376D007761726E696E6700696E6666
:103124006F00646562756700A4300000E130000040
:1031340084300000E9300000F1300000F930000074
:1031440001310000093100001131000000000000CD
:103154006A310000193100002131000026310000DD
:10316400466174616C206572726F72005379737476
:10317400656D2072657365740030313233343536D1
:103184003738394142434445460000000338FDD8EE
:103194007047505253005457494D000061190000C4
:1031A4007119000055415254005541525445006470
:1031B4006174612578006265666F726525750058D3
:1031C40044257500584425780076616C25780025DF
:1031D400753B25753B25753B25753B25753B005493
:1031E4005749207363616E6E6572207374617274E3
:1031F40065642E00536561726368696E6720257883
:103204002E00486561727420526174652035204334
:103214006C69636B206465746563746564206174B0
:10322400206164647265737320307825782E004EB3
:103234006F206465766963652077617320666F75B6
:103244006E642E0000000000000000000338FDD86A
:103254007047000000000000003000400000000043
:10326400010000000100000043000000504F5349DA
:10327400580000002020202020202020206828281A
:10328400282820202020202020202020202020202A
:1032940020202020481010101010101010101010B2
:1032A4001010101084848484848484848484101092
:1032B40010101010108181818181810101010101AF
:1032C40001010101010101010101010101010110DB
:1032D4001010101010828282828282020202020284
:1032E40002020202020202020202020202020210AC
:1032F4001010102000070320041702010857104083
:10330400800000006C320000703300008434000040
:1033140053756E004D6F6E005475650057656400FB
:10332400546875004672690053617400000000001F
:103334004A616E00466562004D6172004170720020
:103344004D6179004A756E004A756C0041756700DD
:10335400536570004F6374004E6F760044656300DC
:1033640000000000414D00504D000000A834000052
:10337400A4340000A4340000A4340000A4340000E9
:10338400A4340000A4340000A4340000A4340000D9
:10339400A4340000FFFFFFFFFFFFFFFFFFFFFFFF5D
:1033A400FFFF0000E4330000143300002034000069
:1033B4003433000068330000C83300007834000060
:1033C400D4330000256D2F25642F257900000000DB
:1033D40025612025622025652025542025590000DB
:1033E40053756E646179004D6F6E64617900547534
:1033F4006573646179005765646E6573646179000F
:103404005468757273646179004672696461790005
:103414005361747572646179000000004A616E75CD
:10342400617279004665627275617279004D6172EC
:10343400636800417072696C004D6179004A756E71
:1034440065004A756C79004175677573740053653E
:103454007074656D626572004F63746F62657200AB
:103464004E6F76656D62657200446563656D626575
:103474007200000025483A254D3A2553000000000B
:103484006D2E0000892E0000952E0000A12E000054
:10349400BD2E0000C92E0000D52E0000E32E000032
:0634A400000000002E00F4
:1034AC000000000000200040000000000020004050
:1034BC000000000000000000FF0000000090D0039E
:1034CC000833000008330000083300000833000004
:0434DC0008330000B1
:040000030000037581
:00000001FF
