:1000000000000420750300005D0300005F03000092
:1000100061030000630300006503000000000000AE
:100020000000000000000000000000006703000066
:1000300069030000000000006B0300006D03000076
:100040006F0300006F0300005116000095180000B8
:10005000A51800006F0300008D2900006F03000049
:10006000F12A00006F0300006F0300006F0300001F
:100070006F0300006F0300006F0300006F030000B8
:100080006F0300006F0300006F0300006F030000A8
:100090006F0300006F0300006F0300006F03000098
:1000A0006F0300006F0300006F0300006F03000088
:1000B0006F0300006F03000000000000000000005C
:1000C0006F0300006F0300006F0300006F03000068
:1000D0006F0300006F0300006F0300006F03000058
:1000E0006F0300006F0300006F03000000000000BA
:1000F000000000006F030000000000006F0300001C
:1001000000000000000000000000000000000000EF
:1001100000000000000000000000000000000000DF
:1001200000000000000000000000000000000000CF
:1001300000000000000000000000000000000000BF
:1001400000000000000000000000000000000000AF
:10015000000000000000000000000000000000009F
:10016000000000000000000000000000000000008F
:10017000000000000000000000000000000000007F
:10018000000000000000000000000000000000006F
:10019000000000000000000000000000000000005F
:1001A000000000000000000000000000000000004F
:1001B000000000000000000000000000000000003F
:1001C000000000000000000000000000000000002F
:1001D000000000000000000000000000000000001F
:1001E000000000000000000000000000000000000F
:1001F00000000000000000000000000000000000FF
:10020000354936480A1A02D0072291438D463449AF
:1002100034480A1A06D00722914381F30988022242
:1002200082F3148830483149314A00F044F83148AB
:100230003149324A00F03FF831483249324A00F041
:100240003AF832483249334A00F035F832483349F7
:10025000334A00F030F833483349344A00F02BF881
:1002600033483449344A00F026F8344834490022EF
:1002700000F02CF833483449002200F027F83348C6
:100280003349091A082902DB002202604160314A21
:1002900090471F481F49884205D00268043003B4C4
:1002A000904703BCF7E700208646EC46002000217B
:1002B000294A9047FEE7884207D0521A05D00378B2
:1002C00001300B700131013AF9D17047884202D0F8
:1002D00002700130FAE770470000042000E00320BC
:1002E00000000420000004207843000000000020EB
:1002F00034000020D0030000D0030000143E0000B2
:10030000784300000000002000000020703E000044
:10031000703E0000703E0000703E0000703E000025
:10032000703E0000703E0000703E00007743000009
:10033000AC430000340000203400002034000020D2
:10034000F4100020F4100020F4100020F41000201D
:10035000F43000209D030000AD2E0000FEE7FEE714
:10036000FEE7FEE7FEE7FEE7FEE7FEE7FEE7FEE765
:1003700000F002B8FFF7FCBF0F484FF007018843B9
:1003800085460E4880470E48016841F470010160BF
:10039000BFF34F8FBFF36F8FFFF732BF09480A4992
:1003A0000A4A884207D0521A05D0037801300B70F0
:1003B0000131013AF9D170470000042049330000AF
:1003C00088ED00E0703E00000000002000000020EA
:1003D000F0B595B01D46164608460C4600F0DEFF07
:1003E0001A9B0D93CDE9086500252B46082205A927
:1003F00020460A958DF82C500C9500F0EBFF079BDA
:100400000293069B03939DF814308DF8115003F06E
:100410000302012A1DD1BDF81420059DC3F3C203B8
:10042000C2F383168DF81030B20008230EA92046BF
:1004300000F0D0FFC5F3952508AB0093324602AB20
:100440000EA9284600F0A0FB204600F0ABFF15B037
:10045000F0BD022AF8D1BDF81650C3F3C203C5F3AC
:1004600089158DF810300827082D2E4628BF08263C
:100470003B4632460EA9204600F0ACFFAD1B08AB50
:1004800002AA31460EA8374400F0E2FB002DEBD162
:10049000DAE70000014B01221A7070477500002056
:1004A0007047000070B50E4D06460FCD88B06C4603
:1004B0000FC495E80F00002E84E80F00094A0A488F
:1004C0004FF0060308BF00226946009301F082F84E
:1004D00008B100F01DFC054B1E7008B070BD00BFD8
:1004E000703E000095040000000000203400002051
:1004F00007B5044B0093044A4023FFF769FF03B09C
:100500005DF804FB0D0500003500002038B50D48EE
:100510000D4C0E4D002323700378EB5CD2B263B117
:10052000043002F081F808B100F0F2FB084B1A78B1
:1005300012B12378002BFBD038BD0C3001F004FE43
:10054000F1E700BF00000020750000202406002015
:100550003400002008B50848084A0378D35C3BB152
:10056000043001F0D1FFBDE808400020FFF79ABF3A
:100570000C3001F081FDF6E7000000202406002089
:100580000120FFF78FBF000008B5FFF7F9FF04480F
:10059000042100F063FA034B01225A7108BD00BF29
:1005A0004C3E000014000020037813F0040216D023
:1005B00003F00303012B03D0022B09D00120704765
:1005C0000A6800880232C0F3831002440A60F5E72B
:1005D0000B684288023303EB92130B60EEE7104680
:1005E000704700002DE9F04FDFF810A10F4685B0ED
:1005F0000446861C0020154600F0E0FBDAF80420D3
:100600003A60DAF8083003F580739B1A0AF21C4747
:100610000AF583690AF21448B34219D30020002D69
:1006200068D004F00F039B0143F0050363F30F0050
:10063000DAF80430DAB2033233444AF822000020F8
:10064000CAF8043000F0BCFB012005B0BDE8F08F13
:100650000121384600F0D9FB484600F0EEFB404649
:1006600000F0EBFBDAF808000090C0B203300AEBB0
:1006700080006946FFF798FF009B30BBDAB20AEBB7
:100680008202D16801919A1C0133DBB20AEB830329
:100690000092D3F80CB001F00303012B22D0022BFF
:1006A00015D08346404600F0CBFB10B1009BCAF842
:1006B00008305946384600F0A8FBDAF80830DAF876
:1006C000042003F580739B1AA6E7D8B2CEE7BDF8E5
:1006D0000630C3F3891303334FEA1B4B02EB93033A
:1006E0000093DFE7BDF80430C3F383134FEA1B4BDD
:1006F0001344F5E7A40544F0060099E748010020FB
:10070000064B074810B500221A7000F000FE0446A0
:1007100010B9044800F068FE204610BD48010020D2
:100720005C3E0000C43E000030B50A4C71B10A4A7C
:100730000A49121BD20800239A4201D1002030BD81
:1007400031F82350854202D00133F5E7034654F8CF
:100750003300F4E7143E00004C3E0000000000208F
:10076000094B013903EBC000032909D8DFE801F088
:100770000A020406042070470079704740797047E8
:100780000020704702207047143E0000034BD3E95D
:100790000130C31A58425841704700BF4801002039
:1007A0002DE9FF41FFF7F2FF0546002840F0E98000
:1007B000754CC4F81804BFF34F8FA3680093DBB2E5
:1007C000033304EB83006946FFF7EEFE009B18B18C
:1007D000D4F81824002A5AD0DAB2991C013304EB59
:1007E0008202DBB204EB8303D268DB68029302F07F
:1007F0000303022B0192009154D1BDF806306348E7
:10080000C3F38917502F3E4628BF502606F1080132
:1008100066F38F13C1F30901ADF8063000F08FFDC8
:100820000546002800F0988000F0B8FD002308225B
:1008300001A9284600F0C4FD0099CB43DBB2013387
:10084000C9B20331B6EB830F4FEA830204EB810197
:1008500025D95FFA82F80823A6EB0806284600F09F
:10086000AFFDF6B208F10803494903F0FC03324634
:10087000284600F0A5FD009B033703EB9707009780
:10088000D4F81834002B43D1D4F8106453E06268D4
:100890009A4294D8A260284604B0BDE8F0810823AB
:1008A0003246E5E7012B57D1BDF804303748C3F392
:1008B0008311062928BF062161F38913023101F053
:1008C0000F018900ADF8043000F039FD054600281D
:1008D00042D000F063FD0023082201A9284600F061
:1008E0006FFD0026BDF80420C2F38312B3009642C8
:1008F00003F10803C4D200994A1CC9B20331009223
:1009000004EB81010422284600F05AFD0136E9E794
:10091000284600F047FDFFF739FF80F00100C5B21F
:10092000B9E7F3685B7923B1336829461B68304621
:100930009847F3681E68002EF3D1284600F032FD78
:10094000304600F03BFAD4F818340BB9009BA36092
:10095000002000F035FADEE7D4F8104454B90D4B0E
:100960000D480E49C01AC008000440F0020000F013
:100970005DF8D0E7236820469B689847E3681C68C9
:10098000ECE7002587E700BF480100205C3E00003F
:1009900054010020143E0000443E0000AD3E000023
:1009A0002DE9F34704460E46924601A90122184656
:1009B0009946FFF717FE1B4F10B3019D4FF000083B
:1009C000AA1CC84508EB020123D11748002100F0FA
:1009D000F9F980F31000000440EA1440E4006B1CB5
:1009E00004F03804DBB2EDB244F0010407EB8303FA
:1009F000033544EA881444EA8624D86047F8254041
:100A00003B781BB1FFF7CCFE0028FBD102B0BDE85C
:100A1000F087C9B207EB81015AF82830CB6008F1A2
:100A20000108CEE7480100206405002000231A4693
:100A3000FFF7B6BF07B50123019201AAFFF7B0FF88
:100A400003B05DF804FB07B5CDE9002302236A4635
:100A5000FFF7A6FF03B05DF804FB000030B50F4CB4
:100A6000D4F8102403460020114631B9D968087122
:100A70004AB9C4F810340A6030BDC9680D7985429E
:100A800006D00968F1E7D26814680C601360F3E7D8
:100A900001300A28E8D14FF0FF30EDE7480100208F
:100AA00038B5084B0125D3F810441D7004B938BD82
:100AB000E3685D71236820465B689847E3681C68BB
:100AC000F4E700BF4801002030B5C38885B0044674
:100AD0000D4633B1144A00921449154A284600F0D5
:100AE00009FA217A05291DD0637A4BB1A088FFF756
:100AF00037FE104B104953F82020284600F0FAF931
:100B0000227A0E4BA08853F8222003920021FFF78F
:100B10000BFE039A0A490346284605B0BDE830405B
:100B200000F0E8B905B030BDF03E0000D83E00004E
:100B3000D03E00005C3F0000F53E0000803F00001A
:100B4000F83E000007B503460846197A052911D07A
:100B50005B7A2BB1094A0A49019000F0CBF9019860
:100B60000849019000F0C6F9019803B05DF804EB64
:100B700000F0B5B9002AF8D0F2E700BFF03E00005F
:100B8000F53E0000ED3E00002DE9F04385B01F4624
:100B90000C9D002395F80C902B7306460C4690464E
:100BA00029463846FFF790FFB8F1060F09D8DFE86D
:100BB00008F00412181F283340003146284600F080
:100BC00099F9002229463846FFF7BCFF85F80C90BA
:100BD00005B0BDE8F08322683146284600F08AF966
:100BE000EFE7D4E900233146284600F083F9E8E72F
:100BF000A36800933146D4E90023284600F07AF92F
:100C0000DFE7E3680193A36800933146D4E900234A
:100C1000284600F06FF9D4E723690293E368019353
:100C2000A36800933146D4E90023284600F062F916
:100C3000C7E76369039323690293E3680193A36899
:100C400000933146D4E90023284600F053F9B8E771
:100C500008292DE9F74F80460E4617461C463DD819
:100C600000251B7B2573214610460193FFF72CFFBF
:100C7000DFF88CA0DFF88CB0AE4232D918F805202E
:100C80005946204600F036F90135082DF4D11B49AC
:100C9000DFF874A0DFF874B0204600F02BF94FF0B5
:100CA00000094E4524D918F809507E2D1ED8284633
:100CB00002F0C2FC002814BF2A462E2259462046C4
:100CC00000F018F909F10109B9F1080FE9D1012281
:100CD00021463846FFF736FF019B237303B0BDE87A
:100CE000F08F5146204600F005F9CDE72E22E5E7CA
:100CF0005146204600F0FEF8E4E700BF0C3F00003C
:100D0000083F0000023F00000A3F00000E3F0000C5
:100D10001FB50021039001AA44F20100CDE90111A1
:100D200000F004F805B05DF804FB000038B572B6B9
:100D3000FFF7B6FEFFF734FD0028FBD1104B114C36
:100D4000114D1249E41AE408240444F00100FFF7AD
:100D50006DFED5F8F030DB0700D500BE0C4944F03D
:100D60000200FFF763FEBFF34F8FEA68094B02F4FE
:100D7000E0621343EB60BFF34F8F00BFFDE700BF9E
:100D8000143E0000443E000000ED00E0943F0000EF
:100D9000A03F00000400FA0572B6024A136801334E
:100DA0001360704700060020034A1368013B13607C
:100DB00003B962B6704700BF00060020FFF7ECBF22
:100DC000FFF7F2BF10B5034653E8000F0A4643E8A9
:100DD000002494F0000FF7D110BD10B5034653E87E
:100DE000002F42EA010043E8000494F0000FF6D11E
:100DF00010BD10B5034653E8000F00EA010243E8B6
:100E0000002494F0000FF6D110BD10B5034653E84E
:100E1000002F02EB010043E8000494F0000FF6D12C
:100E200010BD10B5034653E8002FA2EB010043E8C4
:100E3000000494F0000FF6D110BD0121FFF7CDBFE3
:100E40000021FFF7D6BF10B590B1D0E901230168AA
:100E50009B1ADBB20A60013BDBB2FF2B026802D1B6
:100E60000020107110BD11684C1C14600B70F2E76B
:100E70000E20F7E738B504460020FFF79FFF2268F1
:100E800063681168994213D9481E106011F8013C3B
:100E9000E568218A01FB0355A36811791B1ADBB2AF
:100EA000994200D213710020FFF78AFF284638BD0F
:100EB0000025F8E738B5054600200C46FFF77EFF11
:100EC0002A681368591C1160E968641A298AB4FBFE
:100ED000F1F41C70BDE838400020FFF771BF826854
:100EE00010B504462AB14369016800699847002398
:100EF000A36010BD0EB403B5039921B104AB01AAE0
:100F0000019300F077F802B05DF804EB03B070478E
:100F10000A2938B504460D4602D10D21FFF7F8FF26
:100F2000A3682268591CA160D554D4E901329A42C1
:100F300004D32046BDE83840FFF7D1BF38BD0000DC
:100F40002DE9F84F9846DDE90A43154682460F46DB
:100F50000A464FF00109AA420FD2C14538BFC14627
:100F600013F0010B01D16CB900240126B8F1010F77
:100F70001BD908F1FF386E43F8E709F10109B2FB0C
:100F8000F5F2E8E79B070ED5B8F1000F0CBF30264D
:100F90002026A145E9D2013C31465046FFF7B8FF73
:100FA000002CF6D1E0E72026F3E7B7FBF6F39D42ED
:100FB000E1D9DFF83C80B7FBF6F3504618F8031090
:100FC00006FB1377FFF7A4FF3346AB42B6FBF5F6FB
:100FD000F1D2BBF1000F02D00CB1A14501D3BDE8A5
:100FE000F88F20215046013CFFF792FFF4E700BF45
:100FF000AD3F00002DE9F74F05461746884600290A
:1010000000F03E8118F8011B49B92B7B002B00F042
:101010003781284603B0BDE8F04FFFF760BF2529B0
:1010200040F0B780002698F800302D2B424608F19A
:10103000010823D0302B24D02B2B25D000242A2BA1
:1010400002F1010123D13B681A1D1B683A601C4460
:101050000A4613782E2B26D101324FF0000A104693
:1010600010F8011BA1F1300CBCF1090F1DD80A23A7
:1010700003FB0A13A3F1300A0246F0E746F001062B
:10108000D1E746F00206CEE746F00406CBE711F8BA
:10109000013CA3F130000928DBD80A2202FB04340A
:1010A000303C0A46CBE74FF0000A12F8011B01F072
:1010B000FB0068289046F8D0782909D86F290CD809
:1010C000632962D022D8252963D0582900F088806E
:1010D00098F80030002B95D197E770390829F7D898
:1010E00001A353F821F000BF5B120000D1100000F3
:1010F000D1100000F1110000D1100000CF1100004C
:10110000D1100000D1100000E1110000642901D0CD
:101110006929DDD13A68D2F80090111D89EAE97297
:101120003960A2EBE9724FF0010B092A35DCD34597
:1011300038BFD3462CB1B9F1000F01DB720700D5DF
:10114000013CB30702D5BAF1000F03D0F00701D478
:101150004CBB0024B9F1000F2DDAC9F100092D2193
:101160002846FFF7D5FE06F00302022A04D1BAF1A1
:10117000000F01D11CBB0024CDE9004653460A22D2
:1011800049462846FFF7DCFEA2E73B681A1D19789E
:101190003A602846FFF7BCFE9AE70A230BF1010BE1
:1011A000B2FBF3F2C1E7A345D4D220212846013C8B
:1011B000FFF7AEFECCE77107D5D52B21D0E7A345CD
:1011C000DAD230212846013CFFF7A2FED2E7396887
:1011D000CDE900460A1D3A6053460A220968D0E765
:1011E00039680A1D3A60CDE9004653461022F5E7FA
:1011F0003B681A1D3A6016F00106D3F8009024D11E
:10120000B9F1000F03D0484602F0B8FA0646B442DE
:101210001DD809F1FF3919F8011F00293FF458AF13
:101220002846FFF775FEF6E728460136FFF770FE01
:1012300019F806100029F7D1A642BFF449AF2021C2
:101240002846013CFFF764FEF6E70026F0E7202180
:101250002846013CFFF75CFED9E73B681A1D3A605F
:10126000302128461C68FFF753FE78212846FFF7F7
:101270004FFE00220823CDE900322146102280E7EC
:1012800003B0BDE8F08F00BF2DE9F84FB0F806A01D
:101290004579D2F800B09DF828900AFB05F5043D89
:1012A00088460BEB0301A94203F1040488BFA5EBB8
:1012B000030BB4FBFAF607460AFB1644C2F800B06B
:1012C0004EB9AAEB04055D4528BF5D46BBF1000F92
:1012D00004D1BDE8F88F3F68013EF1E7043408EB24
:1012E00006003C442A46B9F1000F0DD02146ABEB75
:1012F000050B02F0C5F9DA452E443F6855464FF01C
:10130000000428BF5D46E1E701462046EFE7FFF70E
:101310009ABDF8B546790146721E054600239342F0
:101320002D6803D30024A64202D8F8BD0133F6E7A6
:101330000F682846FFF7BEFD01343946F3E72DE973
:10134000F843068ACD1C0746FFF794FD043E35445A
:101350000446B5FBF6F5F0B14FF48073EDB283802F
:10136000C680013D076081464FF00008A84512D2B3
:101370003846FFF77FFD064648B163790133637154
:1013800008F10108C9F8000007608146EEE7204631
:10139000FFF7BFFF34462046BDE8F8830121043043
:1013A000FFF733BD10B5012104460430FFF739FDC6
:1013B000C0B220B92046BDE81040FFF7AABF10BD5B
:1013C0001FB503920022009203AAFFF75DFF05B04C
:1013D0005DF804FB1FB503920122009203AAFFF7F8
:1013E00053FF05B05DF804FB836800225A60C3E92F
:1013F00004229A60DA601A60704700001FB5037813
:101400008DF800308388ADF8043083688DF806309D
:10141000C3688DF80730036902934369054A039353
:10142000054B684653F8213052F82110984705B013
:101430005DF804FB040600200C060020024B4FF46C
:10144000807043F001031847C03F00001F2886BF8B
:10145000054A00F01F004FF0A042012303FA00F0FC
:10146000C2F80805704700BF000300502DE9F0479F
:10147000154690F80080394A42F82850384A42F818
:1014800028304B7B06460C46A3B30868DFF8D8909B
:101490004FF0A04100F5E07340F20C6241F82320C8
:1014A000636803F5E073002741F82320FFF7CEFFC0
:1014B0006068FFF7CBFF236803F5E07340F20D622D
:1014C00041F82320636803F5E0734FF0010A41F807
:1014D0002320FFF7B3FF63681F2B8ABF4A464FF0F4
:1014E000A04203F01F03D2F8102522FA03F3DB0712
:1014F0000BD507BB002D1B4A434608BF2A46214691
:10150000301DBDE8F04700F0D5B923681F2B86BF1A
:1015100003F01F034A464FF0A0420AFA03F3C2F851
:101520000C35FFF78BFF01372068FFF78FFFFFF7C0
:1015300085FF092FCFD163681F2B86BF0A4903F0AF
:101540001F034FF0A041012202FA03F3C1F80C354A
:10155000FFF774FF6068FFF779FFCBE70C06002008
:1015600004060020FD130000000300501FB503789F
:101570008DF800304368019383688DF80830C368A4
:10158000054A0393054B684653F8213052F8211061
:10159000984705B05DF804FB140600201C060020E7
:1015A0001FB503788DF800304368019383688DF888
:1015B0000830C368054A0393054B684653F8213049
:1015C00052F82110984705B05DF804FB140600207E
:1015D0001C060020F0B5194B90F800C0DFF86CE055
:1015E00043F82C20164B16460A6943F82C204B7FF3
:1015F0000EF80C300C4607460FCC89B06D460FC56F
:1016000094E80F0085E80F003B78CDF810C01EF875
:1016100003304BB1002E0B4A694608BF3246381DD5
:1016200000F096FE09B0F0BD002E074A694608BFDB
:10163000324607F10C0000F04FFCF3E71C060020D7
:10164000140600206D150000A115000024060020DE
:10165000014B1B68184700BF2806002038B50B4B0C
:1016600098420C4601D0002038BD0020FFF7A6FBB1
:10167000074B1D7915B901221C601A710020FFF774
:101680009FFB002DEFD01120EEE700BF00200040AF
:1016900028060020034B984201BF034B00221A602A
:1016A0001A71704700200040280600200023435094
:1016B00082B043580193019B02B070470B7B032B10
:1016C0002AD8DFE803F022261A028B685A0304D5D1
:1016D000D0F84C350A699A4207D18B685B031BD45A
:1016E000D0F84C354A699A4216D000230622C0F839
:1016F0000035C0F8002518467047D0F84C350A6907
:101700009A42F2D1D0F83C35ECE7D0F84C350A6972
:10171000E9E7D0F83C35FAE701207047F0B5D0F89A
:10172000243187B004460D46EBB14FF49271FFF7B8
:10173000BDFFD0F80431B3B9AB68C0F80833022359
:10174000AB60AB68C0F80433D0F860311BB1D0F89F
:1017500000329B0502D4012323626361012385F8D3
:101760002E3007B0F0BDD4F80431002B41D04FF437
:1017700082712046FFF79AFF2B6A5F0609D495F81D
:101780002E3033B92946FFF799FF80F0010085F824
:101790002E002B6A5E073ED405F10C070FCF01AE79
:1017A0000FC63B6833604FF4B0712046FFF77EFFF1
:1017B0004FF4AE71FFF77AFF95F8303013B195F81A
:1017C0002E3043B30023C4F80032AB602F4BC4F873
:1017D000083344F30733002B4FEA14321BDB02F0CB
:1017E0001F015B0901228A406033294941F8232007
:1017F00011E04FF4A4712046FFF758FF2B7B23BB69
:1018000005F10C070FCF01AE0FC63B68336095F8AA
:101810003030002BD7D0D4F8C434C4F8C43498077F
:1018200025D501238DF8003095F830300BB985F8B7
:101830002F302B6A5B0703D595F82E30002B90D004
:10184000D5E90031684698478BE74FF40073C4F838
:10185000003240F20223AB6003F1CE73C4F80833C8
:10186000AB68C4F804330123A360236279E7590706
:1018700001D50223D6E7DA0701D50323D2E795F88D
:101880002E30002BCED00423CCE700BF02029C01F7
:1018900000E100E001490248FFF740BF30060020A8
:1018A0000030004002494FF04020FFF737BF00BF33
:1018B000640600202DE9F84F06793A4D4FF0340ABE
:1018C0000AFB06FA05EB0A079B4697F82D3080467F
:1018D0000C469146002B61D1334B006853F826101B
:1018E000FFF7BCFE00285BD12168637B87F83230AC
:1018F0001F298CBF01F01F030B4603F5E07388BF5F
:101900002A4AB86098BF4FF0A04240F20C6C87F8AA
:101910002F0042F823C06268C7F804B01F2A8CBFAA
:1019200002F01F03134687F8300003F5E07388BF09
:101930001E4F45F80A9098BF4FF0A04747F823C0C4
:10194000D8F80030C3F80815C3F80C25A268C3F80E
:101950002425B9F1000F14D0227B43F30731520143
:101960000029C3F30733D2B213DB114C671887F891
:1019700000230122490903F01F0302FA03F344F88C
:101980002130342303FB0655012385F82D30BDE8B3
:10199000F88F084903F00F03CA54F2E70820F6E76E
:1019A0001120F4E730060020D03F00000003005073
:1019B00000E100E014ED00E0036802790621C3F8BD
:1019C0000015044B342101FB0233022283F82D2041
:1019D000704700BF300600202DE9F843DFF8C882C9
:1019E00090F804900468342606FB0986002386F8E4
:1019F0002E30CB6803F06043B3F1005F0D4617460D
:101A000003D010263046BDE8F883A64BC4F808334F
:101A100096F82F3023B1B368C4F804331126F1E7E8
:101A200012F0140F0CBF0123002386F82F308E46CE
:101A3000BEE80F0006F10C0CACE80F00DEF8003039
:101A4000CCF80030C7F3001386F8303037626B787B
:101A5000C4F8883520464FF48271FFF727FE4FF413
:101A60009271FFF723FE4FF4B071FFF71FFE4FF4A2
:101A7000A471FFF71BFE17F0010318BF0123C4F880
:101A8000503517F0020318BF0123C4F840352B78F6
:101A9000032B00F2B580DFE803F084A069022B6914
:101AA00003F06043B3F1005FABD14FF48073C4F82F
:101AB0000032EA686B68C4F844254FF4A871C4F892
:101AC0004835FFF7F3FD01232362A360D4F85031BA
:101AD000002BFBD04FF4A8712046FFF7E7FDAB6861
:101AE0002A69C4F84425C4F84835342303FB098324
:101AF0004FF480229A60082300263A0704D42A78FB
:101B0000032A1CBF0122E250342303FB09F308EB34
:101B1000030258F80330002B75D10125D4F8482171
:101B2000D4F80431002B40F08980003A18BF01221C
:101B3000D4F82431002B00F088804FF492712046B5
:101B4000FFF7B4FDD4F86011D4F8003209B198055C
:101B500004D4256265610029E0D00022D90574D53E
:101B60004FF4A4712046FFF7A1FDD7E76B68EA6840
:101B7000C4F84425C4F848352B6903F06042B2F13B
:101B8000005F7FF43EAFAA68C4F834354FF4845345
:101B9000C4F83825C4F80032342303FB0983022239
:101BA00012E06B68EA68C4F8442517F0200FC4F807
:101BB00048354FF034030BD04FF48072C4F8002244
:101BC00003FB09834FF480229A600123236292E78A
:101BD0004FF40072C4F80022DFE76B68EA68C4F8CB
:101BE0003425C4F838354FF48053C4F80032342318
:101BF00003FB098302229A600123236200237BE70F
:101C00000823072679E77B0744BF002393607D06FE
:101C100006D4342303FB09839A6842F002029A60D7
:101C2000342303FB0988D8F8083043F40073C8F85C
:101C30000830D8F80830C4F80433E3E64FF4827172
:101C40002046FFF733FD012272E7002A3FF466AF1A
:101C50003421D4F8C434C4F8C43401FB0982002010
:101C600082F82F0093B113F0010F14BF4FF4024616
:101C7000032648F2012213F0020F18BF164613F094
:101C8000040F48F2022318BF1E46BBE67B063FF551
:101C9000B9AE09FB01812046FFF710FD002808BFFF
:101CA0000326AFE602029C013006002010B586B084
:101CB0000024CDE902349DF820308DF80510A342B0
:101CC000CDE9042401A914BF202222468DF8044046
:101CD000FFF782FE06B010BD10B586B00124029356
:101CE0000023CDE903328DF805101A4601A98DF8BD
:101CF00004400593FFF770FE06B010BD002343506B
:101D000082B043580193019B02B070470A4610B558
:101D10004FF48E71FFF7F2FF136A9168C95C136A82
:101D200001331362C0F81C1510BD8B690A4610B54B
:101D30004FF4847123B9FFF7E1FFD0F8183510BDD7
:101D4000FFF7DCFF536AD168D0F81805C854536A0E
:101D500001335362F3E700001FB501238DF8003013
:101D6000044BCDE90110D3E900126846904705B055
:101D70005DF804FB9806002030B54D4DD5F80433CE
:101D80009A0585B051D5D5F82431002B4DD04FF4AC
:101D900092712846FFF7B2FF4FF40173C5F808337C
:101DA000444B93F829200AB901226A604049022273
:101DB0008DF80020D1F88024C1F8802403929A691C
:101DC0000292DA6801920022C3E906226846D3E94A
:101DD000001290473648D0F81C315BB1354A516942
:101DE000136A99424DD992F82830002B49D11146F7
:101DF000FFF78CFF2E48D0F84431002B56D04FF41B
:101E0000A271FFF77BFF2B4B93F829200AB1012227
:101E100002609A69002A49D0586AD96800229A61FA
:101E200005B0BDE83040FFF797BFD5F804335B0736
:101E3000D0D5D5F80831002BCCD01E4C1C482146FB
:101E4000FFF773FF636AA2699A42C3D1E369E1684D
:101E50004BB1A3612369E3600023606AE3616362BD
:101E6000FFF77AFFB6E794F829300BB901236B60CE
:101E70000F4B4FF40172C3F808230023606AA3617B
:101E8000EEE70B484FF48E71FFF738FF5369002BD4
:101E9000B0D051690291002391688DF80030019112
:101EA00053616846D2E900139847A3E705B030BDF7
:101EB00000200040980600201F2886BF00F01F0069
:101EC000044B4FF0A04300F5E070022243F82020BD
:101ED000704700BF000300502DE9F843604D90F8B3
:101EE00004802C2303FB0853064693F82A300C4643
:101EF0009146002B40F0AF805A490068FFF7AEFBD7
:101F00000746002840F0A9802268531C10D01F2AE1
:101F100087BF554902F01F0313464FF0A04101202F
:101F2000984003F5E073C1F80805032041F8230049
:101F30006168481C0DD01F298BBF01F01F030B46A1
:101F400049484FF0A04003F5E0734FF0000C40F813
:101F500023C03068A369C0F8243594F814C0637DA9
:101F6000BCF1010F4CEA0303C0F86C35C0F814153E
:101F7000C0F80C252BD1A368591C0DD01F2B8BBF8B
:101F800003F01F021A4638494FF0A04102F5E072F3
:101F90004FF0000C41F822C0E1684A1C13D01F2901
:101FA00087BF314A01F01F0C8C464FF0A0424FF022
:101FB000010E0EFA0CFE0CF5E07CC2F808E54FF0BD
:101FC000030E42F82CE0C0F80815C0F810352C229A
:101FD00002FB08F2AB18C3F804902369AB50B9F1C7
:101FE000000F20D04FF48E71247FFFF787FE4FF44F
:101FF000A2713068FFF782FE32681C4BC2F80433CE
:10200000130B42F307326101002AC9B21EDB1848E4
:10201000841884F800130121520903F01F0301FA08
:1020200003F340F8223033680422C3F800252C2340
:1020300003FB08530022C3E9062283F829205A61D2
:10204000012283F82A203846BDE8F883094A03F0C4
:102050000F03D154E7E70827F5E71127F3E700BF9F
:1020600098060020791D0000000300508000020047
:1020700000E100E014ED00E02DE9F041036805798E
:10208000284C0022C3F800252C2202FB0542014601
:102090005268A2B1244AC3F808231A0B43F307334A
:1020A000002B0CDB02F01F005B0901228240203371
:1020B0001E4840F82320BFF34F8FBFF36F8F0B688C
:1020C000D3F80C05D3F81485D3F80865D3F8107548
:1020D0004FF0FF329042C3F81425C3F80C25C3F823
:1020E0000825C3F8102501D0FFF7E6FEB8F1FF3F41
:1020F00002D04046FFF7E0FE7A1C02D03846FFF7D8
:10210000DBFE731C02D03046FFF7D6FE0868FFF7EF
:10211000C1FA2C2303FB0544002384F82A306360B2
:10212000BDE8F081980600208402020000E100E092
:102130000279044B2C2101FB02335869003818BF87
:1021400001207047980600202DE9F84F064690F8C8
:10215000048089469246FFF7EBFF044600283CD1F5
:10216000204F2C2508FB057B4FF48E71CBF814A073
:10217000CBF80890CBF820008BF828003068FFF7E8
:10218000BDFD3068012383605946FFF7BFFDDBF8D2
:1021900004305D461BBB3068DBF814402B6A9C4260
:1021A00011D83368D3F81C21002AFBD00122DA6051
:1021B00000202C2303FB087700237B61BDE8F88F08
:1021C00095F828303BB9D0F81C31002BF8D059468F
:1021D000FFF79CFDE2E70F20EBE71120EEE720463A
:1021E000ECE700BF980600200023435082B043581C
:1021F0000193019B02B070471FB501238DF8003099
:10220000044BCDE90110D3E900126846904705B0B0
:102210005DF804FBC40600207FB5434AD2F8246170
:10222000002E60D010464FF49271FFF7DDFF0223BD
:102230008DF80030D2F88034C2F880340393D2F89D
:102240003C350293394BDA6801920022C3E9062239
:102250006846D3E9001290473348D0F8443173B14F
:102260004FF4A271FFF7C0FF304B9A693AB10022D8
:10227000C3E90622D968D0F83C05FFF7BDFF2A481C
:10228000D0F82031ABB14FF49071FFF7ADFF0123CF
:10229000C360264B5A6962B1D0F84C1502910022F6
:1022A00099688DF8002001915A616846D3E90012BF
:1022B00090471D48D0F858319BB14FF4AC71FFF7EF
:1022C00093FF1A4B5A6962B1D0F84C150291002263
:1022D00099688DF8002001915A616846D3E900128F
:1022E000904704B070BDD2F81031002BB4D04FF439
:1022F00088711046FFF778FF0C4BD2F83C059969BE
:102300008842A9D1DC69D96864B1D2F8005225F0BD
:102310002005C2F800521A699C61DA60DE61FFF79D
:102320006BFF99E79C61FAE700200040C40600209B
:102330001F2886BF00F01F00044B4FF0A04300F59C
:10234000E070022243F82020704700BF00030050D5
:102350002DE9F843664E90F80480242303FB0863BC
:10236000044693F820300D469146002B40F0BC8087
:1023700060490068FFF772F90746002840F0B68010
:1023800029684B1C10D01F2987BF5B4A01F01F032F
:102390000B464FF0A0420120984003F5E073C2F8CD
:1023A0000805032042F823006A68501C0DD01F2A3C
:1023B0008BBF02F01F0313464F484FF0A04003F5B8
:1023C000E0734FF0000C40F823C02068AB69C0F800
:1023D000243595F814C06B7DBCF1010F4CEA030362
:1023E000C0F86C35C0F80C15C0F814252BD1AB68BB
:1023F000591C0DD01F2B8BBF03F01F021A463E49FC
:102400004FF0A04102F5E0724FF0000C41F822C0FD
:10241000E9684A1C13D01F2987BF374A01F01F0CF7
:102420008C464FF0A0424FF0010E0EFA0CFE0CF558
:10243000E07CC2F808E54FF0030E42F82CE0C0F84B
:102440000815C0F81035242202FB08F2B318C3F8AF
:1024500004902B69B350B9F1000F2FD04FF488715D
:102460002A7FFFF7C1FE20684FF49071FFF7BCFE92
:1024700020684FF49271FFF7B7FE20684FF4A27105
:10248000FFF7B2FE4FF4AC712068FFF7ADFE236892
:102490001A49C3F80413190B43F307335201002BF5
:1024A000D2B21CDB1648C51885F8002301225B094F
:1024B00001F01F0102FA01F140F8231023680822FD
:1024C000C3F80025242303FB08660023C6E906336E
:1024D0007361012386F820303846BDE8F883094B44
:1024E00001F00F015A54E9E70827F5E71127F3E750
:1024F000C40600201922000000030050100342000F
:1025000000E100E014ED00E02DE9F0413D4D0679D9
:102510000468242303FB065302465B68ABB13A4BC5
:10252000C4F8083344F30733002B4FEA14310CDBB3
:1025300001F01F005B09012181402033334840F83E
:102540002310BFF34F8FBFF36F8FD4F8003223F007
:102550002003C4F80032242303FB06539B6933B1E4
:102560004FF4A2712046FFF73FFE012363604FF452
:10257000AC712046FFF738FE0123E360242303FB00
:102580000653D4F858110029FBD0996919B1D4F831
:1025900044110029F5D00023C4F800351368D3F89E
:1025A0000C05D3F81485D3F80815D3F810754FF03F
:1025B000FF329042C3F80C25C3F81425C3F8082550
:1025C000C3F8102501D0FFF7B3FEB8F1FF3F02D0EA
:1025D0004046FFF7ADFE7A1C02D03846FFF7A8FE52
:1025E0004B1C02D00846FFF7A3FE2046FFF752F827
:1025F000242303FB0655002385F820306B60BDE8DB
:10260000F08100BFC40600201003420000E100E09A
:102610000279044B242101FB02335869003818BFAA
:1026200001207047C406002001F06043B3F1005F51
:102630002DE9F0470646884692463BD190F8049033
:10264000FFF7E6FF0446002836D11D4F30682425E9
:1026500005FB09754FF49071C5F814A0C5F8088002
:10266000FFF7C2FD4FF4AC713068FFF7BDFD336872
:102670006A69A968C3F84415C3F8482501229A601D
:102680006A68DAB9D3F82021D3F858011AB90028BA
:10269000F8D00F2007E00028FBD10122DA60D3F840
:1026A0005821002AFBD0242303FB097700237B61F8
:1026B000BDE8F0871020FBE71120F9E72046F7E797
:1026C000C406002000F1804000F5C040002382B025
:1026D000036003680193019B02B0704703681F2BDE
:1026E00083BF03F01F03036001484FF0A040704711
:1026F0000003005007B5019001A8FFF7EFFF019B11
:1027000000EB8300D0F8003723F44033C0F80037E3
:10271000D0F8003743EA0141C0F8001703B05DF874
:1027200004FB0000054B4FF0FF32072843F8202040
:1027300084BFC01880F84C20704700BFE806002016
:1027400038B51D4991F85B30A3BB4FF6FF70FF24ED
:102750005A09012A0CBF02464FF0FF3203F01F0551
:10276000EA40D20748BFCA1803F1010348BF82F804
:102770002440302BECD10024E0B20134FFF7D2FF2B
:10278000092CF9D10D4B0022C1F855209A800C4B31
:10279000402083F8060318604FF4BE70FFF792FFE5
:1027A000084B4FF00040C3F80403012381F85B306D
:1027B000104638BD0820FCE7E80600203D07002051
:1027C00000E100E00060004007B5019001A8FFF7BC
:1027D00085FF0199D0F8043501228A4022EA0301DD
:1027E0001340C0F80815C0F80C3503B05DF804FBC1
:1027F000F7B53D4F3B18044693F92430002B71DAAE
:102800008B78C3F34003002B0BBF0825002509205C
:102810000820854202D1042003B0F0BD57F825609E
:10282000013647D138196EB247F8252080F8246068
:1028300013B97B1983F84C408B785A071AD4D80700
:102840003AD501A80194FFF749FF019B00EB8300F3
:10285000D0F8003723F00203C0F800372348E2081D
:1028600004F0070C012303FA0CF310F802C043EA4A
:102870000C03835488780B7810F0020028D0AD0048
:1028800005F1804505F5C0452402D5F8102522F450
:102890004F3222F44072C5F810251B04D5F81025DC
:1028A00004F47C5403F440331C431443C5F810452E
:1028B0000020B1E70135ACE701A84A780194FFF7A1
:1028C0000DFF019B03F5E073920040F82320C5E75C
:1028D000083E47FA86F797F8544044EA831387F88E
:1028E000543099E7082097E7E80600203D070020CC
:1028F00073B5244D2E18044696F92420072A1DDDB1
:10290000083A45FA82F595F854309B09032B10D10B
:10291000019001A8FFF7E2FE019BD0F81015D94005
:1029200001F001010231204602B0BDE87040FFF71E
:10293000E1BE012B0CBF02210321F4E7D3B2072B28
:102940001DD8930003F1804303F5C043D3F810056D
:1029500040F00100C3F8100502F1400040B28000D1
:1029600080B2FFF7AFFE51B196F9243055F823300D
:102970002BB1012303FA02F2034BC3F8042302B084
:1029800070BD00BFE8060020006000402DE9FF4157
:102990000024CDE90244534D4FF48072012102F12D
:1029A000804303F5C04390B21B68012B06D1D5F8D4
:1029B00004330B4202D0FFF785FE0C430432B2F51C
:1029C000907F4FEA4101EAD1464BD3F87C31012B8D
:1029D00011D14FF4BE70FFF775FE4FF0A04344F0E5
:1029E0000044D3F820250292C3F82025D3F82028EC
:1029F0000392C3F82028E3B2D3B13B4F0025012650
:102A0000344210D0AB0003F1804303F5C043D3F848
:102A10001005D3F8101557F8253023B1C1F3014143
:102A2000C0F3052098470135082D4FEA4606E7D147
:102A3000002C4EDA2C4F2D4E97F954305A1C3AD0B8
:102A4000C3F3C20104A80144DAB211F8081C03F070
:102A50003F04012503F0070305FA03F319422AD0C6
:102A600001A80194FFF73AFE019B03F5E07350F8CB
:102A70002330C3F30148B8F1020F0CBF0321022138
:102A80002046FFF737FE01A80194FFF727FE019BC0
:102A90009D403B19C0F8205593F9243057F8233056
:102AA0004BB19109032904D0B8F1020F14D10129C7
:102AB00001D1204698474FF0A043D3F82025029239
:102AC000C3F82025D6F820350393C6F820351343E4
:102AD000B2D104B0BDE8F081B8F1030FEBD1022907
:102AE000E6E700BF00600040E80600200003005059
:102AF0002DE9F341104C114F114E00254FF4803851
:102B0000236883B1D7F8043308FA05F21A420AD0D1
:102B10000023236023680193A4F50040019B80B249
:102B2000D6E9003198470135042D04F10404E7D1BA
:102B300002B0BDE8F08100BF40810040008000404D
:102B40004407002000F5E0704FF0A043032243F853
:102B500020207047014BD3F8040570470010014056
:102B600010B50D200C46FFF72FFE022C02BF024BC2
:102B700001221A7010BD00BF980D002038B5054D18
:102B8000044645F001054FF47A40A847013CFAD1CC
:102B900038BD00BFE04000001FB50A0C00238DF8CF
:102BA00009200A0A8DF80C308DF808008DF80A20EB
:102BB0008DF80B10009302AA052358210248FFF755
:102BC00075F805B05DF804FBEC40000010B586B068
:102BD00001238DF80F0000930D480DF10F025821CD
:102BE000FFF764F8044688B90948032305AA582169
:102BF000FFF772F838B9BDF8144064BAA0B29DF876
:102C0000164044EA0024204606B010BD0024FAE72E
:102C1000EC4000002A20FFF7D9BF2B20FFF7D6BFDA
:102C20002DE9F041E8B04FF4D0720021684600F081
:102C300050FD01225023CDE90223744B0221CDE93E
:102C40000413032040F22233CDE90603072540F2A6
:102C50007230CDE90E5040F2B14104230820CDE995
:102C60000831CDE91001092112910A2740F28F1194
:102C7000CDE914714FF00B0C40F20351CDE916C1B0
:102C80004FF00C0E40F24261CDE918E1052340F20D
:102C9000E1124FF00D0840F29511CDE90A32CDE96D
:102CA0001A814FF4487206240E2040F22331CDE9F8
:102CB0000C42CDE91C010F2440F22931CDE91E411F
:102CC000102540F2B741CDE92051112640F2BD4117
:102CD000162440F29310CDE922611725CDE92C404E
:102CE00040F22530CDE92E50122740F24B611826D4
:102CF00040F22730CDE92471CDE930604FF0130C5C
:102D000040F25161192740F2B940CDE926C1CDE921
:102D100032704FF0140E40F2DF7140F2BB404FF0C2
:102D20001A0CCDE928E1CDE934C040F291114FF001
:102D300015084FF01B0E40F24D60CDE92A81CDE918
:102D400036E04FF01C0840F24F60CDE938801D247A
:102D500049F63F40CDE93A401E2540F20310CDE947
:102D60003C5048F215042020CDE93E042124CDE951
:102D7000404422264FF44354CDE94264244C232797
:102D8000CDE94474292446942A2448942B244A9457
:102D90002C244C942D244E942E2450942F24529461
:102DA0003124CDE954404FF0320E40F6A7004FF0E9
:102DB0003308CDE956E049F67730CDE95880342024
:102DC0005A9035205C903620CDE95E013721CDE95F
:102DD00060123922CDE96223DFF838803A23649308
:102DE0006C460025D4E9006740463A46314600F07B
:102DF00073FA01353946F0B2FFF7CEFE342D04F1F7
:102E00000804EFD168B0BDE8F08100BF8F01200059
:102E100018421200F03F00001FB51B221A23CDE913
:102E200000234FF0CC710223CDE9021300230748A1
:102E30001A466946FEF71AFB08B1FDF769FF044818
:102E4000FEF7BAFD05B05DF804FB00BFE8400000E6
:102E5000EC40000008B5C8220021064800F039FC0B
:102E6000C8220548002100F034FC044B00221A60FF
:102E700008BD00BF58070020200800205007002090
:102E800038B5074C2568FFF7C5FE064B246843F8A4
:102E90002500FFF7C2FE044B43F8240038BD00BFF5
:102EA0005007002058070020200800202DE9F04F8F
:102EB0008E4885B00021FDF723FC08B1FDF728FFFF
:102EC000FDF762FB1420FFF73DFE0F20FFF73AFEEF
:102ED000FFF736FC08B1FDF71BFF0D20FFF732FEB0
:102EE0004FF0A0434FF40052C3F80825804BB3F8CD
:102EF00003205B79ADF80C208DF80E307D4A03235A
:102F000003A92E208DF80D30FFF772FC08B1FDF7F4
:102F1000FFFE01212E20FFF7EBFC774C774B784921
:102F2000E41AE408240444F003042046FDF77EFD7F
:102F3000FDF736FC0028FBD14FF4FA70FFF71EFEB8
:102F400070492046FDF772FDFDF72AFC0028FBD1F1
:102F5000FFF762FF03AA58216B480123FEF7BCFE6E
:102F60006A49054658222046FDF764FD002D40F0D1
:102F7000B280674958222046FDF75CFDFDF710FC42
:102F80000028FBD1FFF74CFE4FF4FA70FFF7F6FD77
:102F9000DFF894B10120FFF7F1FD5E4B1B78002BA9
:102FA000F8D05D4E5D4F3568FFF734FE5C4B43F85B
:102FB00025003568FFF731FE5A4B43F825003B6882
:102FC000322B79D8FFF75CFF3B68322B74D1002598
:102FD0005548DFF868C12B464FF0000A01931A46A6
:102FE000D04603F10509322A07DC01688E465BF8FA
:102FF00022108E4588BF08F10108019941B101688E
:103000008E4601995BF821108E4588BF0AF1010AAE
:103010000199013201394A450191E4D1B8F1040F17
:1030200005D1BAF1040F04BF4CF823300135013348
:10303000332B00F10400CFD1394BDFF8E8A03B4936
:1030400001934FF0000901985AF8043B50F8042B03
:1030500001902046FDF7F7FCFDF7A2FB33498046BF
:103060000028F9D109F10109B9F1960FEBD13049E6
:10307000DFF8D0902A462046FDF7DCFC2A462D4991
:103080002046FDF7D7FCD9F8002033682A44962B58
:10309000C9F800200CD92849C6F800802046FDF761
:1030A000C9FC2648C822414600F013FBC9F800803D
:1030B000FDF776FB0028FBD13B68312B01D9FFF7E8
:1030C000C9FE144A002313703B6801333B60336828
:1030D000013333605EE71A492046FDF7A7FCFDF790
:1030E0005FFB0028FBD105B0BDE8F08F552B000039
:1030F000CD400000612B0000443E0000143E000063
:10310000114000001B400000EC4000003040000077
:103110003E400000980D002054070020500700207A
:10312000E8080020400B0020200800206B40000031
:1031300072400000854000009F400000A00D00206C
:10314000B84000009C0D00200369C26893429CBFF8
:1031500080681B18013B981A70472DE9F843D0E9A5
:1031600002940546A9EB04084068904520440F46A8
:10317000144404D900F084FAEC60BDE8F8834246B8
:10318000A4EB090400F07CFA6868224607EB08010A
:10319000F0E72DE9F843C5680646894617464FF023
:1031A00000083469B3687068A54228BFE418013C80
:1031B000621B5C1BBC4228BF3C46944228BF14469D
:1031C00049462844224600F05BFAB3682544AB42E6
:1031D00008BF00253F1BA044A144F560E1D1404653
:1031E000BDE8F88310B5114C114AA2610223C4E96D
:1031F0000433104BE361A2644FF400730E4A0F498D
:103200002362E26400231022E01DA3626362E36292
:10321000A3656365E365226500F08EFA08492046E0
:1032200000F08AFA2023A37110BD00BF680E0020B1
:10323000F8400000F00E0020E00E002001410000E8
:103240000541000070B5164B182400FB04451D44D1
:1032500004FB00331646DC6A012C0ED0022C18D079
:10326000E4B92846FFF770FF864204D83246284664
:10327000FFF773FF3446204670BD2846FFF764FF12
:103280008642344628BF044622462846FFF765FF9B
:10329000F1E72846BDE87040FFF77BBF0024EAE76E
:1032A000680E002070B50B4B1B7804460D46164681
:1032B0000BB9FFF797FF0020FDF780FD3246294646
:1032C0002046FFF7BFFF04460020FDF779FD2046AA
:1032D00070BD00BF680E00200FB410B5A2B024ABC3
:1032E000802153F8042B019302A800F0BBF9802839
:1032F00004460ADD802202A90020FFF7D3FF204602
:1033000022B0BDE8104004B070470028F7DD024647
:10331000F1E74FF08053D3F83001A0F10803584291
:10332000584170474FF08053D3F83021082A06D116
:10333000D3F83431032B02D8024AD05C7047002006
:10334000704700BF0C41000008B5FFF7E2FF40B135
:103350004FF080430022C3F80C21C3F81021C3F8BA
:103360003825FFF7D6FF002846D04FF08052614B3A
:10337000D2F80414C3F82015D2F80814C3F82415A1
:10338000D2F80C14C3F82815D2F81014C3F82C1571
:10339000D2F81414C3F83015D2F81814C3F8341541
:1033A000D2F81C14C3F84015D2F82014C3F8441501
:1033B000D2F82414C3F84815D2F82814C3F84C15D1
:1033C000D2F82C14C3F85015D2F83014C3F85415A1
:1033D000D2F83414C3F86015D2F83814C3F8641561
:1033E000D2F83C14C3F86815D2F84014C3F86C1531
:1033F000D2F84424C3F87025FFF794FF18B13E4B70
:103400003E4AC3F88C26FFF78DFF18B13C4BFB22D8
:10341000C3F81825FFF786FF70B14FF080414FF0D9
:103420008053D1F8E42ED3F8583222F00F0203F083
:103430000F031343C1F8E43EFFF774FF20B1314B93
:103440004FF40072C3F84026FFF763FF48B14FF016
:103450008043D3F80024D20744BF6FF00102C3F8C1
:103460000024294AD2F8883043F47003C2F8883027
:10347000BFF34F8FBFF36F8F4FF01023D3F80022AD
:10348000002A03DBD3F80432002B2EDA1F4B012273
:10349000C3F80425D3F80024002AFBD04FF01022F3
:1034A0001221C2F80012D3F80024002AFBD04FF0FA
:1034B00010231222C3F80422144BD3F80024002A4C
:1034C000FBD00022C3F80425D3F80024002AFBD047
:1034D000BFF34F8F0C490E4BCA6802F4E0621343EE
:1034E000CB60BFF34F8F00BFFDE70A4B0A4A1A605B
:1034F00008BD00BF00C000400050004048810300EC
:1035000000F000400090024000ED00E000E00140CB
:103510000400FA051C0000200090D0037F2805D885
:10352000034B185C034B5B5C1840704700207047EE
:103530001C4100009C410000A0F16103192B98BFC1
:1035400020387047A0F14103192B98BF20307047F5
:103550007F2805D8034B185C034B5B5C1840704711
:10356000002070471C4100009C410000A0F1610355
:10357000192B98BF20387047A0F14103192B98BF31
:10358000203070477F299ABF017001206FF02E0014
:1035900070475AB10A787F2A0AD800B10260002128
:1035A00019605960501A18BF0120704700207047F9
:1035B0006FF02E00704710B504460846A2684AB165
:1035C0002368616803F1010C8C4508BF00208B4221
:1035D00008D2D054E3682BB121686268914201D2CD
:1035E0002146984723680133236010BD70B54C1EF7
:1035F00009D41646C5B229463046FFF7DCFF013C28
:10360000B4F1FF3FF7D170BD10F0100F08D108B52D
:1036100010F4007F14BF30202020FFF7E7FF08BD23
:103620007047000008B5034B5B689B681B689847B0
:1036300008BD00BF2000002008B50921FFF7F2FFF8
:1036400008BD037853B159B10144034613F8012F63
:1036500012B18B42FAD10B46181A70470346FBE7AA
:103660000346F9E710B584B00C46114602900022DB
:10367000039201941A46684600F0B0F804B010BDF9
:10368000844640EA010313F0030F18D18446202A30
:103690000BD32DE9F007B1E8F807A0E8F807A2F18D
:1036A0002002202AF7D2BDE8F007042A07D351F8F8
:1036B000043B40F8043BA2F10402042AF7D2002A9A
:1036C00005D011F8013B00F8013B013AF9D1604601
:1036D00070478446002A2DD010F0030F04D000F864
:1036E000011B013A26D0F7E7C9B241EA012141EABC
:1036F0000141202A12D3A2F120022DE9F0030B464A
:103700000C460D460E460F4688468946A0E8FA0349
:10371000203AFBD2BDE8F00320320BD0042A05D3B7
:1037200040F8041B043A05D0042AF9D200F8011B22
:10373000013AFBD160467047024610F0030F16D1E4
:1037400011F0030F13D12DE9F0004FF001374FF0C6
:10375000803351F8044BA4EB070525EA04051D400E
:1037600002D142F8044BF4E7A1F10401F0BC11F8D6
:10377000013B02F8013B002BF9D1704700F1010138
:1037800010F0030F11D010F8012B002A23D010F0F5
:10379000030F0AD010F8012B002A1CD010F0030FE1
:1037A00003D010F8012B002A15D02DE970004FF03E
:1037B00001324FF0803350F8044BA4EB020525EAA8
:1037C00004051D4000D1F6E7A0F1040070BC10F81C
:1037D000012B002AFBD1A0EB010070472DE9F04F2F
:1037E00089B007460392002303600C4614F8011BBE
:1037F000002900F0FC82DFF818B5EBE2002507E0B5
:103800005E2868D145F4805501E045F040051C462E
:10381000234613F8010B3028F2D81F2837D9A0F11E
:103820002002102A33D801A151F822F00B380000F1
:103830008F3800008F380000713800008F3800008A
:103840008F3800008F380000773800008F38000074
:103850008F3800008F3800007D3800008F3800005E
:10386000833800008F3800008F380000893800004E
:1038700045F08005CBE745F40045C8E745F0200555
:10388000C5E745F01005C2E745F40075BFE72A28F3
:1038900021D1039A111D0391D2F800A0BAF1000FB3
:1038A000BCBFCAF1000A45F010051878A31C2AEA2B
:1038B000EA7A2E2826D00021742847D07A2845D0CD
:1038C0006C2800F0A8804C2800F0AB80682800F03D
:1038D000B8801C463DE0A0F13002D2B2092A88BF70
:1038E0004FF0000AE3D84FF0000A0AEB8A0A30389A
:1038F00000EB4A0A13F8010BA0F13002D2B2092AF8
:10390000F3D9D4E718782A280AD1039A111D039114
:103910001168587802330029CEDB45F48075CBE777
:103920000133A0F13002D2B2092A88BF0021F4D8B5
:10393000002101EB8101303800EB410113F8010B4C
:10394000A0F13002D2B2092AF3D9E4E71C4614F8F8
:10395000010B002800F05782A0F12503DBB2532BA6
:1039600062D8A0F12503532B5ED8DFE813F0760070
:103970005D005D005D005D005D005D005D005D005F
:103980005D005D005D005D005D005D005D005D004F
:103990005D005D005D005D005D005D005D005D003F
:1039A0005D005D005D005D005D005D005D005D002F
:1039B0005D005D005D005D005D005D005D005D001F
:1039C0005D005D005D005D005D005D005D005D000F
:1039D0005D005D00EC005D005D005D005D005D0070
:1039E0005D005D005D005D005D007B0021015D000C
:1039F0005D005D005D0021015D005D005D005D001A
:103A000095000F01D2005D005D00A6005D001A0167
:103A10005D005D00EE001C4614F8010B45F0010549
:103A200097E745F001051C46B54B1E68002E00F0D7
:103A3000CE8103AB0193009153462A463946B047E5
:103A4000C5E11878682803D05C1C45F0040580E7C0
:103A500045F008059C1C58787BE725213846FFF780
:103A6000AAFDB4E1039B1A1D03921E780AF1FF3AE6
:103A70003A4651462846FFF7C7FD31463846FFF71C
:103A80009AFDA94619F0100F00F0A1813A4651465F
:103A90002020FFF7ABFD9AE115F0080F06D03A6839
:103AA000039B191D03911B681A7090E1039B1A1D5B
:103AB00003921B683A681A6089E1039B1A1D0392FE
:103AC000D3F800808F4BB8F1000F08BF98464646E8
:103AD00025F4007915F4807F16D04046FFF7B1FD3C
:103AE0000546AAEB050A3A4651464846FFF78CFDC3
:103AF000002DC7D016F8011B3846FFF75CFDA8EB78
:103B00000603EB42F6D1BDE74046FFF737FE054618
:103B1000E7E7039B1A1D03921B6815F0800F0CBF8B
:103B20000026232645F4807508211A46002B00F054
:103B30002A8105AB4FF0000805F4005CA6466046FC
:103B40008C460146D2E045F4005515F0800F1BD09D
:103B500043F2780643F25803782818BF1E4615F43E
:103B6000807F01D025F4007515F4804F32D0039B7F
:103B70001A1D03921B6815F0040F1FD01BB2002BF7
:103B800020DA5B422D262DE00026E8E715F0800FB5
:103B90000CBF0026302615F4807FE5D025F4007593
:103BA000E2E715F4807F07D025F400750026DBE7F7
:103BB00045F480450026D7E70026D5E715F0080F25
:103BC000DDD0DBB215F0200F61D115F0400F18BF2A
:103BD000202607E0039B1A1D03921B6815F0040FB3
:103BE00050D09BB215F4807F14BF25F400750121DD
:103BF0005838202800F2AF8001A252F820F000BF10
:103C00002B3B0000573D0000573D0000573D000092
:103C1000573D0000573D0000573D0000573D000054
:103C2000573D0000573D0000573D0000573D000044
:103C3000BB3C0000573D0000573D0000573D0000D1
:103C4000573D0000BB3C0000573D0000573D0000C1
:103C5000573D0000573D0000573D0000933C0000D9
:103C60002B3B0000573D0000573D0000573D000032
:103C7000573D0000BB3C0000573D0000573D000091
:103C80002B3B000015F0080FACD0DBB2AAE72B26C7
:103C9000A8E71A464FF00008002B5ED005A84FF0A9
:103CA000000803F00703303300F8013B08F1010876
:103CB000D2081346002AF4D14FE018464FF000080E
:103CC000002B4AD04FF0000805F4004E4FF02C09AD
:103CD00073468E4619462FE002F00F000A4C205C16
:103CE00003F8010B08F10108120906D00029F3D0EE
:103CF00002F00F00054C205CF2E7744661462CE0B0
:103D0000F0100020704300005043000060430000AA
:103D1000CDCCCCCC08AB03EB080CABFB0032D2080B
:103D200002EB8203A0EB430330330CF80C3C08F1A8
:103D3000010809280DD910460029EBD008F003032B
:103D4000032BE7D108AB434403F80C9C08F10108AE
:103D5000E0E7714601E04FF00008A1EB080121EA1D
:103D6000E179AAEB090AAAEB080AFF2E0ED9AAF1FB
:103D7000020AC6F307213846FFF71DFCF1B23846A8
:103D8000FFF719FC04E04FF00008E6E7002E3DD1F4
:103D90003A4651462846FFF737FC3A464946302016
:103DA000FFF724FCB8F1000F0EDD0DF1140908F146
:103DB000FF38C84498F8001046463846FFF7FBFB2A
:103DC000C14508F1FF38F5D115F0100F09D114F8ED
:103DD000011B61B125293FF411AD3846FFF7EBFB1C
:103DE000F5E73A4651462020FFF700FCEFE7BB68B5
:103DF0002BB13A6879688A423CBF002199543868EF
:103E000009B0BDE8F08F4FF0FF30F9E70AF1FF3A53
:043E1000B4E700BF54
:103E1400E33F000000000000C63F00000000000077
:103E2400EA3F000000000000CA3F0000000000005C
:103E3400D83F000000000000DD3F0000000000004B
:083E4400BE3E00000000030374
:103E4C00903E0000000000009C3E0000140000208A
:103E5C007800002040010020480100208000002054
:043E6C00180000003A
:103E7000FFFFFFFFFFFFFFFFFFFFFFFFFFFFFFFF52
:103E800000000000000000000000D6010601000054
:103E9000F104000055050000A10400007561727472
:103EA0005F6C6F675F6261636B656E640042616344
:103EB0006B656E647320666C757368656400617011
:103EC00070000000680500207F000000E805002069
:103ED0001B5B313B33316D0025734C6F677320647E
:103EE000726F70706564202825642925730D0A009F
:103EF0001B5B306D002573003C25733E2025733A13
:103F00002000202530327800202020007C0025630E
:103F1000001B5B313B33306D001B5B313B33326D3B
:103F2000001B5B313B33336D001B5B313B33346D26
:103F3000001B5B313B33356D001B5B313B33366D12
:103F4000001B5B313B33376D007761726E696E67C2
:103F500000696E666F00646562756700F03E000080
:103F6000113F0000D03E0000193F0000213F00003B
:103F7000293F0000313F0000393F0000413F000071
:103F8000000000009A3F0000493F0000513F000040
:103F9000563F0000466174616C206572726F72005A
:103FA00053797374656D20726573657400303132B6
:103FB00033343536373839414243444546000000F2
:103FC0000338FDD87047505253005457494D0000F4
:103FD00095180000A5180000554152540055415253
:103FE0005445004750494F54450054494D455200EF
:103FF00044656275673A2052656769737465723A01
:10400000203078256C78202D203078256C780D0AAA
:10401000004770696F20696E6974005457492073B6
:1040200063616E6E657220737461727465642E00D4
:10403000536561726368696E672025782E00486554
:104040006172742052617465203520436C69636B22
:1040500020646574656374656420617420616464C0
:104060007265737320307825782E003B25643B25DC
:1040700064004E756D626572206F66205065616BDD
:1040800073202564004E756D626572206F66206333
:10409000616C63756C617465644852202564004EE0
:1040A000756D626572206F6620415647204C4F4EF9
:1040B00047204852202564004E6F2064657669636E
:1040C000652077617320666F756E642E00000000B6
:1040D00002000200000000000000000000000000DC
:1040E0000338FDD870470000000000000030004099
:1040F00000000000010000005465726D696E616C83
:1041000000525454005345474745520001000000F7
:1041100043000000504F5349580000002020202049
:104120002020202020682828282820202020202027
:104130002020202020202020202020204810101087
:10414000101010101010101010101010848484849F
:104150008484848484841010101010101081818154
:1041600081818101010101010101010101010101BF
:104170000101010101010110101010101082828252
:10418000828282020202020202020202020202028F
:104190000202020202020210101010200007032087
:1041A0000417020108571040800000001041000071
:1041B000144200002843000053756E004D6F6E00DE
:1041C000547565005765640054687500467269004F
:1041D00053617400000000004A616E004665620091
:1041E0004D617200417072004D6179004A756E0038
:1041F0004A756C0041756700536570004F63740029
:104200004E6F76004465630000000000414D005091
:104210004D0000004C4300004843000048430000AC
:104220004843000048430000484300004843000062
:10423000484300004843000048430000FFFFFFFFE1
:10424000FFFFFFFFFFFFFFFFFFFF000088420000AE
:10425000B8410000C4420000D84100000C420000F8
:104260006C4200001C43000078420000256D2F25A1
:10427000642F257900000000256120256220256536
:10428000202554202559000053756E646179004D36
:104290006F6E646179005475657364617900576568
:1042A000646E6573646179005468757273646179D2
:1042B0000046726964617900536174757264617952
:1042C000000000004A616E75617279004665627295
:1042D00075617279004D6172636800417072696C3A
:1042E000004D6179004A756E65004A756C79004130
:1042F00075677573740053657074656D62657200DF
:104300004F63746F626572004E6F76656D626572A1
:1043100000446563656D62657200000025483A25BA
:104320004D3A2553000000001D35000039350000CE
:1043300045350000513500006D350000793500002D
:104340008535000093350000000000002E000000BD
:1043500030313233343536373839616263646566FB
:1043600030313233343536373839414243444546AB
:07437000286E756C6C29003A
:104378000000000000200040000000000020004075
:104388000000000000000000FF0000000090D003C3
:10439800AC410000AC410000AC410000AC41000061
:0443A800AC41000024
:040000030000037581
:00000001FF
